{
  "_format": "hh-sol-artifact-1",
  "contractName": "SarauNFT",
  "sourceName": "contracts/SarauNFT.sol",
  "abi": [
    {
      "inputs": [],
      "name": "ApprovalCallerNotOwnerNorApproved",
      "type": "error"
    },
    {
      "inputs": [],
      "name": "ApprovalQueryForNonexistentToken",
      "type": "error"
    },
    {
      "inputs": [],
      "name": "ApproveToCaller",
      "type": "error"
    },
    {
      "inputs": [],
      "name": "BalanceQueryForZeroAddress",
      "type": "error"
    },
    {
      "inputs": [],
      "name": "MintERC2309QuantityExceedsLimit",
      "type": "error"
    },
    {
      "inputs": [],
      "name": "MintToZeroAddress",
      "type": "error"
    },
    {
      "inputs": [],
      "name": "MintZeroQuantity",
      "type": "error"
    },
    {
      "inputs": [],
      "name": "OwnerQueryForNonexistentToken",
      "type": "error"
    },
    {
      "inputs": [],
      "name": "OwnershipNotInitializedForExtraData",
      "type": "error"
    },
    {
      "inputs": [],
      "name": "TransferCallerNotOwnerNorApproved",
      "type": "error"
    },
    {
      "inputs": [],
      "name": "TransferFromIncorrectOwner",
      "type": "error"
    },
    {
      "inputs": [],
      "name": "TransferToNonERC721ReceiverImplementer",
      "type": "error"
    },
    {
      "inputs": [],
      "name": "TransferToZeroAddress",
      "type": "error"
    },
    {
      "inputs": [],
      "name": "URIQueryForNonexistentToken",
      "type": "error"
    },
    {
      "anonymous": false,
      "inputs": [
        {
          "indexed": true,
          "internalType": "address",
          "name": "owner",
          "type": "address"
        },
        {
          "indexed": true,
          "internalType": "address",
          "name": "approved",
          "type": "address"
        },
        {
          "indexed": true,
          "internalType": "uint256",
          "name": "tokenId",
          "type": "uint256"
        }
      ],
      "name": "Approval",
      "type": "event"
    },
    {
      "anonymous": false,
      "inputs": [
        {
          "indexed": true,
          "internalType": "address",
          "name": "owner",
          "type": "address"
        },
        {
          "indexed": true,
          "internalType": "address",
          "name": "operator",
          "type": "address"
        },
        {
          "indexed": false,
          "internalType": "bool",
          "name": "approved",
          "type": "bool"
        }
      ],
      "name": "ApprovalForAll",
      "type": "event"
    },
    {
      "anonymous": false,
      "inputs": [
        {
          "indexed": true,
          "internalType": "uint256",
          "name": "fromTokenId",
          "type": "uint256"
        },
        {
          "indexed": false,
          "internalType": "uint256",
          "name": "toTokenId",
          "type": "uint256"
        },
        {
          "indexed": true,
          "internalType": "address",
          "name": "from",
          "type": "address"
        },
        {
          "indexed": true,
          "internalType": "address",
          "name": "to",
          "type": "address"
        }
      ],
      "name": "ConsecutiveTransfer",
      "type": "event"
    },
    {
      "anonymous": false,
      "inputs": [
        {
          "indexed": false,
          "internalType": "uint8",
          "name": "version",
          "type": "uint8"
        }
      ],
      "name": "Initialized",
      "type": "event"
    },
    {
      "anonymous": false,
      "inputs": [
        {
          "indexed": true,
          "internalType": "address",
          "name": "previousOwner",
          "type": "address"
        },
        {
          "indexed": true,
          "internalType": "address",
          "name": "newOwner",
          "type": "address"
        }
      ],
      "name": "OwnershipTransferred",
      "type": "event"
    },
    {
      "anonymous": false,
      "inputs": [
        {
          "indexed": true,
          "internalType": "address",
          "name": "from",
          "type": "address"
        },
        {
          "indexed": true,
          "internalType": "address",
          "name": "to",
          "type": "address"
        },
        {
          "indexed": true,
          "internalType": "uint256",
          "name": "tokenId",
          "type": "uint256"
        }
      ],
      "name": "Transfer",
      "type": "event"
    },
    {
      "inputs": [
        {
          "internalType": "address",
          "name": "",
          "type": "address"
        }
      ],
      "name": "addressToMints",
      "outputs": [
        {
          "internalType": "uint8",
          "name": "",
          "type": "uint8"
        }
      ],
      "stateMutability": "view",
      "type": "function"
    },
    {
      "inputs": [
        {
          "internalType": "address",
          "name": "to",
          "type": "address"
        },
        {
          "internalType": "uint256",
          "name": "tokenId",
          "type": "uint256"
        }
      ],
      "name": "approve",
      "outputs": [],
      "stateMutability": "nonpayable",
      "type": "function"
    },
    {
      "inputs": [
        {
          "internalType": "address",
          "name": "owner",
          "type": "address"
        }
      ],
      "name": "balanceOf",
      "outputs": [
        {
          "internalType": "uint256",
          "name": "",
          "type": "uint256"
        }
      ],
      "stateMutability": "view",
      "type": "function"
    },
    {
      "inputs": [
        {
          "internalType": "address",
          "name": "wallet",
          "type": "address"
        }
      ],
      "name": "canMint",
      "outputs": [
        {
          "internalType": "bool",
          "name": "",
          "type": "bool"
        }
      ],
      "stateMutability": "view",
      "type": "function"
    },
    {
      "inputs": [],
      "name": "endDate",
      "outputs": [
        {
          "internalType": "uint256",
          "name": "",
          "type": "uint256"
        }
      ],
      "stateMutability": "view",
      "type": "function"
    },
    {
      "inputs": [
        {
          "internalType": "uint256",
          "name": "tokenId",
          "type": "uint256"
        }
      ],
      "name": "getApproved",
      "outputs": [
        {
          "internalType": "address",
          "name": "",
          "type": "address"
        }
      ],
      "stateMutability": "view",
      "type": "function"
    },
    {
      "inputs": [],
      "name": "homepage",
      "outputs": [
        {
          "internalType": "string",
          "name": "",
          "type": "string"
        }
      ],
      "stateMutability": "view",
      "type": "function"
    },
    {
      "inputs": [
        {
          "internalType": "uint256",
          "name": "maxMint_",
          "type": "uint256"
        },
        {
          "internalType": "uint256",
          "name": "startDate_",
          "type": "uint256"
        },
        {
          "internalType": "uint256",
          "name": "endDate_",
          "type": "uint256"
        },
        {
          "internalType": "string",
          "name": "homepage_",
          "type": "string"
        },
        {
          "internalType": "string",
          "name": "name_",
          "type": "string"
        },
        {
          "internalType": "string",
          "name": "symbol_",
          "type": "string"
        },
        {
          "internalType": "string",
          "name": "tokenURI_",
          "type": "string"
        }
      ],
      "name": "initialize",
      "outputs": [],
      "stateMutability": "nonpayable",
      "type": "function"
    },
    {
      "inputs": [
        {
          "internalType": "address",
          "name": "owner",
          "type": "address"
        },
        {
          "internalType": "address",
          "name": "operator",
          "type": "address"
        }
      ],
      "name": "isApprovedForAll",
      "outputs": [
        {
          "internalType": "bool",
          "name": "",
          "type": "bool"
        }
      ],
      "stateMutability": "view",
      "type": "function"
    },
    {
      "inputs": [],
      "name": "maxMint",
      "outputs": [
        {
          "internalType": "uint256",
          "name": "",
          "type": "uint256"
        }
      ],
      "stateMutability": "view",
      "type": "function"
    },
    {
      "inputs": [
        {
          "internalType": "bytes32",
          "name": "code_",
          "type": "bytes32"
        }
      ],
      "name": "mint",
      "outputs": [
        {
          "internalType": "uint256",
          "name": "",
          "type": "uint256"
        }
      ],
      "stateMutability": "payable",
      "type": "function"
    },
    {
      "inputs": [],
      "name": "minted",
      "outputs": [
        {
          "internalType": "uint256",
          "name": "",
          "type": "uint256"
        }
      ],
      "stateMutability": "view",
      "type": "function"
    },
    {
      "inputs": [],
      "name": "name",
      "outputs": [
        {
          "internalType": "string",
          "name": "",
          "type": "string"
        }
      ],
      "stateMutability": "view",
      "type": "function"
    },
    {
      "inputs": [],
      "name": "owner",
      "outputs": [
        {
          "internalType": "address",
          "name": "",
          "type": "address"
        }
      ],
      "stateMutability": "view",
      "type": "function"
    },
    {
      "inputs": [
        {
          "internalType": "uint256",
          "name": "tokenId",
          "type": "uint256"
        }
      ],
      "name": "ownerOf",
      "outputs": [
        {
          "internalType": "address",
          "name": "",
          "type": "address"
        }
      ],
      "stateMutability": "view",
      "type": "function"
    },
    {
      "inputs": [],
      "name": "renounceOwnership",
      "outputs": [],
      "stateMutability": "nonpayable",
      "type": "function"
    },
    {
      "inputs": [
        {
          "internalType": "address",
          "name": "from",
          "type": "address"
        },
        {
          "internalType": "address",
          "name": "to",
          "type": "address"
        },
        {
          "internalType": "uint256",
          "name": "tokenId",
          "type": "uint256"
        }
      ],
      "name": "safeTransferFrom",
      "outputs": [],
      "stateMutability": "nonpayable",
      "type": "function"
    },
    {
      "inputs": [
        {
          "internalType": "address",
          "name": "from",
          "type": "address"
        },
        {
          "internalType": "address",
          "name": "to",
          "type": "address"
        },
        {
          "internalType": "uint256",
          "name": "tokenId",
          "type": "uint256"
        },
        {
          "internalType": "bytes",
          "name": "_data",
          "type": "bytes"
        }
      ],
      "name": "safeTransferFrom",
      "outputs": [],
      "stateMutability": "nonpayable",
      "type": "function"
    },
    {
      "inputs": [
        {
          "internalType": "address",
          "name": "operator",
          "type": "address"
        },
        {
          "internalType": "bool",
          "name": "approved",
          "type": "bool"
        }
      ],
      "name": "setApprovalForAll",
      "outputs": [],
      "stateMutability": "nonpayable",
      "type": "function"
    },
    {
      "inputs": [
        {
          "internalType": "bytes32",
          "name": "code_",
          "type": "bytes32"
        }
      ],
      "name": "setCode",
      "outputs": [],
      "stateMutability": "nonpayable",
      "type": "function"
    },
    {
      "inputs": [],
      "name": "startDate",
      "outputs": [
        {
          "internalType": "uint256",
          "name": "",
          "type": "uint256"
        }
      ],
      "stateMutability": "view",
      "type": "function"
    },
    {
      "inputs": [
        {
          "internalType": "bytes4",
          "name": "interfaceId",
          "type": "bytes4"
        }
      ],
      "name": "supportsInterface",
      "outputs": [
        {
          "internalType": "bool",
          "name": "",
          "type": "bool"
        }
      ],
      "stateMutability": "view",
      "type": "function"
    },
    {
      "inputs": [],
      "name": "symbol",
      "outputs": [
        {
          "internalType": "string",
          "name": "",
          "type": "string"
        }
      ],
      "stateMutability": "view",
      "type": "function"
    },
    {
      "inputs": [
        {
          "internalType": "uint256",
          "name": "tokenId",
          "type": "uint256"
        }
      ],
      "name": "tokenURI",
      "outputs": [
        {
          "internalType": "string",
          "name": "",
          "type": "string"
        }
      ],
      "stateMutability": "view",
      "type": "function"
    },
    {
      "inputs": [],
      "name": "totalSupply",
      "outputs": [
        {
          "internalType": "uint256",
          "name": "",
          "type": "uint256"
        }
      ],
      "stateMutability": "view",
      "type": "function"
    },
    {
      "inputs": [
        {
          "internalType": "address",
          "name": "from",
          "type": "address"
        },
        {
          "internalType": "address",
          "name": "to",
          "type": "address"
        },
        {
          "internalType": "uint256",
          "name": "tokenId",
          "type": "uint256"
        }
      ],
      "name": "transferFrom",
      "outputs": [],
      "stateMutability": "nonpayable",
      "type": "function"
    },
    {
      "inputs": [
        {
          "internalType": "address",
          "name": "newOwner",
          "type": "address"
        }
      ],
      "name": "transferOwnership",
      "outputs": [],
      "stateMutability": "nonpayable",
      "type": "function"
    }
  ],
  "bytecode": "0x608060405234801561001057600080fd5b506131c3806100206000396000f3fe60806040526004361061019c5760003560e01c8063715018a6116100ec578063b9ef767f1161008a578063c2ba474411610064578063c2ba4744146105bb578063c87b56dd146105f8578063e985e9c514610635578063f2fde38b146106725761019c565b8063b9ef767f1461053e578063c170fc9214610567578063c24a0f8b146105905761019c565b806395d89b41116100c657806395d89b4114610491578063a22cb465146104bc578063adf2cead146104e5578063b88d4fde146105155761019c565b8063715018a6146104245780637501f7411461043b5780638da5cb5b146104665761019c565b806323b872dd116101595780636352211e116101335780636352211e1461034257806363820f231461037f578063686c4d3c146103bc57806370a08231146103e75761019c565b806323b872dd146102c557806342842e0e146102ee5780634f02c420146103175761019c565b806301ffc9a7146101a157806306fdde03146101de578063081812fc14610209578063095ea7b3146102465780630b97bc861461026f57806318160ddd1461029a575b600080fd5b3480156101ad57600080fd5b506101c860048036038101906101c39190612630565b61069b565b6040516101d59190612a3d565b60405180910390f35b3480156101ea57600080fd5b506101f361072d565b6040516102009190612a73565b60405180910390f35b34801561021557600080fd5b50610230600480360381019061022b9190612682565b6107c8565b60405161023d91906129d6565b60405180910390f35b34801561025257600080fd5b5061026d600480360381019061026891906125cb565b610850565b005b34801561027b57600080fd5b5061028461099d565b6040516102919190612bd5565b60405180910390f35b3480156102a657600080fd5b506102af6109a3565b6040516102bc9190612bd5565b60405180910390f35b3480156102d157600080fd5b506102ec60048036038101906102e791906124c5565b6109cc565b005b3480156102fa57600080fd5b50610315600480360381019061031091906124c5565b610d27565b005b34801561032357600080fd5b5061032c610d47565b6040516103399190612bd5565b60405180910390f35b34801561034e57600080fd5b5061036960048036038101906103649190612682565b610d4d565b60405161037691906129d6565b60405180910390f35b34801561038b57600080fd5b506103a660048036038101906103a19190612460565b610d5f565b6040516103b39190612bf0565b60405180910390f35b3480156103c857600080fd5b506103d1610d7f565b6040516103de9190612a73565b60405180910390f35b3480156103f357600080fd5b5061040e60048036038101906104099190612460565b610e0d565b60405161041b9190612bd5565b60405180910390f35b34801561043057600080fd5b50610439610ecf565b005b34801561044757600080fd5b50610450610ee3565b60405161045d9190612bd5565b60405180910390f35b34801561047257600080fd5b5061047b610ee9565b60405161048891906129d6565b60405180910390f35b34801561049d57600080fd5b506104a6610f13565b6040516104b39190612a73565b60405180910390f35b3480156104c857600080fd5b506104e360048036038101906104de919061258f565b610fae565b005b6104ff60048036038101906104fa9190612607565b61112f565b60405161050c9190612bd5565b60405180910390f35b34801561052157600080fd5b5061053c60048036038101906105379190612514565b6112f1565b005b34801561054a57600080fd5b5061056560048036038101906105609190612607565b611364565b005b34801561057357600080fd5b5061058e600480360381019061058991906126ab565b611376565b005b34801561059c57600080fd5b506105a56116a7565b6040516105b29190612bd5565b60405180910390f35b3480156105c757600080fd5b506105e260048036038101906105dd9190612460565b6116ad565b6040516105ef9190612a3d565b60405180910390f35b34801561060457600080fd5b5061061f600480360381019061061a9190612682565b61170a565b60405161062c9190612a73565b60405180910390f35b34801561064157600080fd5b5061065c60048036038101906106579190612489565b61179e565b6040516106699190612a3d565b60405180910390f35b34801561067e57600080fd5b5061069960048036038101906106949190612460565b61183b565b005b60006301ffc9a760e01b827bffffffffffffffffffffffffffffffffffffffffffffffffffffffff191614806106f657506380ac58cd60e01b827bffffffffffffffffffffffffffffffffffffffffffffffffffffffff1916145b806107265750635b5e139f60e01b827bffffffffffffffffffffffffffffffffffffffffffffffffffffffff1916145b9050919050565b60606107376118bf565b600201805461074590612d78565b80601f016020809104026020016040519081016040528092919081815260200182805461077190612d78565b80156107be5780601f10610793576101008083540402835291602001916107be565b820191906000526020600020905b8154815290600101906020018083116107a157829003601f168201915b5050505050905090565b60006107d3826118ec565b610809576040517fcf4700e400000000000000000000000000000000000000000000000000000000815260040160405180910390fd5b6108116118bf565b600601600083815260200190815260200160002060000160009054906101000a900473ffffffffffffffffffffffffffffffffffffffff169050919050565b600061085b82610d4d565b90508073ffffffffffffffffffffffffffffffffffffffff1661087c61195d565b73ffffffffffffffffffffffffffffffffffffffff16146108df576108a8816108a361195d565b61179e565b6108de576040517fcfb3b94200000000000000000000000000000000000000000000000000000000815260040160405180910390fd5b5b826108e86118bf565b600601600084815260200190815260200160002060000160006101000a81548173ffffffffffffffffffffffffffffffffffffffff021916908373ffffffffffffffffffffffffffffffffffffffff160217905550818373ffffffffffffffffffffffffffffffffffffffff168273ffffffffffffffffffffffffffffffffffffffff167f8c5be1e5ebec7d5bd14f71427d1e84f3dd0314c0f7b2291e5b200ac8c7c3b92560405160405180910390a4505050565b60675481565b60006109ad611965565b6109b56118bf565b600101546109c16118bf565b600001540303905090565b60006109d78261196a565b90508373ffffffffffffffffffffffffffffffffffffffff168173ffffffffffffffffffffffffffffffffffffffff1614610a3e576040517fa114810000000000000000000000000000000000000000000000000000000000815260040160405180910390fd5b600080610a4a84611a53565b91509150610a608187610a5b61195d565b611a83565b610aac57610a7586610a7061195d565b61179e565b610aab576040517f59c896be00000000000000000000000000000000000000000000000000000000815260040160405180910390fd5b5b600073ffffffffffffffffffffffffffffffffffffffff168573ffffffffffffffffffffffffffffffffffffffff161415610b13576040517fea553b3400000000000000000000000000000000000000000000000000000000815260040160405180910390fd5b610b208686866001611ac7565b8015610b2b57600082555b610b336118bf565b60050160008773ffffffffffffffffffffffffffffffffffffffff1673ffffffffffffffffffffffffffffffffffffffff168152602001908152602001600020600081546001900391905081905550610b8a6118bf565b60050160008673ffffffffffffffffffffffffffffffffffffffff1673ffffffffffffffffffffffffffffffffffffffff1681526020019081526020016000206000815460010191905081905550610c0b85610be7888887611acd565b7c020000000000000000000000000000000000000000000000000000000017611af5565b610c136118bf565b60040160008681526020019081526020016000208190555060007c020000000000000000000000000000000000000000000000000000000084161415610cb75760006001850190506000610c656118bf565b6004016000838152602001908152602001600020541415610cb557610c886118bf565b600001548114610cb45783610c9b6118bf565b6004016000838152602001908152602001600020819055505b5b505b838573ffffffffffffffffffffffffffffffffffffffff168773ffffffffffffffffffffffffffffffffffffffff167fddf252ad1be2c89b69c2b068fc378daa952ba7f163c4a11628f55a4df523b3ef60405160405180910390a4610d1f8686866001611b20565b505050505050565b610d42838383604051806020016040528060008152506112f1565b505050565b60665481565b6000610d588261196a565b9050919050565b606b6020528060005260406000206000915054906101000a900460ff1681565b60698054610d8c90612d78565b80601f0160208091040260200160405190810160405280929190818152602001828054610db890612d78565b8015610e055780601f10610dda57610100808354040283529160200191610e05565b820191906000526020600020905b815481529060010190602001808311610de857829003601f168201915b505050505081565b60008073ffffffffffffffffffffffffffffffffffffffff168273ffffffffffffffffffffffffffffffffffffffff161415610e75576040517f8f4eb60400000000000000000000000000000000000000000000000000000000815260040160405180910390fd5b67ffffffffffffffff610e866118bf565b60050160008473ffffffffffffffffffffffffffffffffffffffff1673ffffffffffffffffffffffffffffffffffffffff16815260200190815260200160002054169050919050565b610ed7611b26565b610ee16000611ba4565b565b60655481565b6000603360009054906101000a900473ffffffffffffffffffffffffffffffffffffffff16905090565b6060610f1d6118bf565b6003018054610f2b90612d78565b80601f0160208091040260200160405190810160405280929190818152602001828054610f5790612d78565b8015610fa45780601f10610f7957610100808354040283529160200191610fa4565b820191906000526020600020905b815481529060010190602001808311610f8757829003601f168201915b5050505050905090565b610fb661195d565b73ffffffffffffffffffffffffffffffffffffffff168273ffffffffffffffffffffffffffffffffffffffff16141561101b576040517fb06307db00000000000000000000000000000000000000000000000000000000815260040160405180910390fd5b806110246118bf565b600701600061103161195d565b73ffffffffffffffffffffffffffffffffffffffff1673ffffffffffffffffffffffffffffffffffffffff16815260200190815260200160002060008473ffffffffffffffffffffffffffffffffffffffff1673ffffffffffffffffffffffffffffffffffffffff16815260200190815260200160002060006101000a81548160ff0219169083151502179055508173ffffffffffffffffffffffffffffffffffffffff166110de61195d565b73ffffffffffffffffffffffffffffffffffffffff167f17307eab39ab6107e8899845ad3d59bd9653f200f220920489ca2b5937696c31836040516111239190612a3d565b60405180910390a35050565b600060665460655411611177576040517f08c379a000000000000000000000000000000000000000000000000000000000815260040161116e90612ad5565b60405180910390fd5b606754421015801561118b57506068544211155b6111ca576040517f08c379a00000000000000000000000000000000000000000000000000000000081526004016111c190612b75565b60405180910390fd5b6111da6111d5611c6a565b6116ad565b611219576040517f08c379a000000000000000000000000000000000000000000000000000000000815260040161121090612bb5565b60405180910390fd5b81606a541461125d576040517f08c379a000000000000000000000000000000000000000000000000000000000815260040161125490612b15565b60405180910390fd5b6001606b600061126b611c6a565b73ffffffffffffffffffffffffffffffffffffffff1673ffffffffffffffffffffffffffffffffffffffff16815260200190815260200160002060006101000a81548160ff021916908360ff160217905550606660008154809291906112d090612ddb565b91905055506112e76112e0611c6a565b6001611c72565b6066549050919050565b6112fc8484846109cc565b60008373ffffffffffffffffffffffffffffffffffffffff163b1461135e5761132784848484611e54565b61135d576040517fd1a57ed600000000000000000000000000000000000000000000000000000000815260040160405180910390fd5b5b50505050565b61136c611b26565b80606a8190555050565b61137e611fb4565b60000160019054906101000a900460ff166113b25761139b611fb4565b60000160009054906101000a900460ff16156113bb565b6113ba611fe1565b5b6113fa576040517f08c379a00000000000000000000000000000000000000000000000000000000081526004016113f190612b35565b60405180910390fd5b6000611404611fb4565b60000160019054906101000a900460ff161590508015611467576001611428611fb4565b60000160016101000a81548160ff021916908315150217905550600161144c611fb4565b60000160006101000a81548160ff0219169083151502179055505b60008060019054906101000a900460ff161590508080156114985750600160008054906101000a900460ff1660ff16105b806114c557506114a730611ff8565b1580156114c45750600160008054906101000a900460ff1660ff16145b5b611504576040517f08c379a00000000000000000000000000000000000000000000000000000000081526004016114fb90612af5565b60405180910390fd5b60016000806101000a81548160ff021916908360ff1602179055508015611541576001600060016101000a81548160ff0219169083151502179055505b8c6065819055508b6067819055508a606881905550898960699190611567929190612207565b508383606c9190611579929190612207565b5061160c88888080601f016020809104026020016040519081016040528093929190818152602001838380828437600081840152601f19601f8201169050808301925050505050505087878080601f016020809104026020016040519081016040528093929190818152602001838380828437600081840152601f19601f8201169050808301925050505050505061201b565b611614612081565b801561166d5760008060016101000a81548160ff0219169083151502179055507f7f26b83ff96e1f2b6a682f133852f6798a09c465da95921460cefb384740249860016040516116649190612a58565b60405180910390a15b50801561169957600061167e611fb4565b60000160016101000a81548160ff0219169083151502179055505b505050505050505050505050565b60685481565b60006001606b60008473ffffffffffffffffffffffffffffffffffffffff1673ffffffffffffffffffffffffffffffffffffffff16815260200190815260200160002060009054906101000a900460ff1660ff1614159050919050565b6060606c805461171990612d78565b80601f016020809104026020016040519081016040528092919081815260200182805461174590612d78565b80156117925780601f1061176757610100808354040283529160200191611792565b820191906000526020600020905b81548152906001019060200180831161177557829003601f168201915b50505050509050919050565b60006117a86118bf565b60070160008473ffffffffffffffffffffffffffffffffffffffff1673ffffffffffffffffffffffffffffffffffffffff16815260200190815260200160002060008373ffffffffffffffffffffffffffffffffffffffff1673ffffffffffffffffffffffffffffffffffffffff16815260200190815260200160002060009054906101000a900460ff16905092915050565b611843611b26565b600073ffffffffffffffffffffffffffffffffffffffff168173ffffffffffffffffffffffffffffffffffffffff1614156118b3576040517f08c379a00000000000000000000000000000000000000000000000000000000081526004016118aa90612ab5565b60405180910390fd5b6118bc81611ba4565b50565b6000807f2569078dfb4b0305704d3008e7403993ae9601b85f7ae5e742de3de8f8011c4090508091505090565b6000816118f7611965565b1115801561190f57506119086118bf565b6000015482105b8015611956575060007c010000000000000000000000000000000000000000000000000000000061193e6118bf565b60040160008581526020019081526020016000205416145b9050919050565b600033905090565b600090565b60008082905080611979611965565b11611a1c576119866118bf565b60000154811015611a1b57600061199b6118bf565b600401600083815260200190815260200160002054905060007c010000000000000000000000000000000000000000000000000000000082161415611a19575b6000811415611a0f576119ec6118bf565b6004016000836001900393508381526020019081526020016000205490506119db565b8092505050611a4e565b505b5b6040517fdf2d9b4200000000000000000000000000000000000000000000000000000000815260040160405180910390fd5b919050565b6000806000611a606118bf565b600601600085815260200190815260200160002090508092508254915050915091565b600073ffffffffffffffffffffffffffffffffffffffff8316925073ffffffffffffffffffffffffffffffffffffffff821691508382148383141790509392505050565b50505050565b60008060e883901c905060e8611ae48686846120da565b62ffffff16901b9150509392505050565b600073ffffffffffffffffffffffffffffffffffffffff83169250814260a01b178317905092915050565b50505050565b611b2e611c6a565b73ffffffffffffffffffffffffffffffffffffffff16611b4c610ee9565b73ffffffffffffffffffffffffffffffffffffffff1614611ba2576040517f08c379a0000000000000000000000000000000000000000000000000000000008152600401611b9990612b55565b60405180910390fd5b565b6000603360009054906101000a900473ffffffffffffffffffffffffffffffffffffffff16905081603360006101000a81548173ffffffffffffffffffffffffffffffffffffffff021916908373ffffffffffffffffffffffffffffffffffffffff1602179055508173ffffffffffffffffffffffffffffffffffffffff168173ffffffffffffffffffffffffffffffffffffffff167f8be0079c531659141344cd1fd0a4f28419497f9722a3daafe3b4186f6b6457e060405160405180910390a35050565b600033905090565b6000611c7c6118bf565b6000015490506000821415611cbd576040517fb562e8dd00000000000000000000000000000000000000000000000000000000815260040160405180910390fd5b611cca6000848385611ac7565b600160406001901b178202611cdd6118bf565b60050160008573ffffffffffffffffffffffffffffffffffffffff1673ffffffffffffffffffffffffffffffffffffffff16815260200190815260200160002060008282540192505081905550611d4a83611d3b6000866000611acd565b611d44856120e3565b17611af5565b611d526118bf565b600401600083815260200190815260200160002081905550600080838301905073ffffffffffffffffffffffffffffffffffffffff85169150828260007fddf252ad1be2c89b69c2b068fc378daa952ba7f163c4a11628f55a4df523b3ef600080a4600183015b818114611df457808360007fddf252ad1be2c89b69c2b068fc378daa952ba7f163c4a11628f55a4df523b3ef600080a4600181019050611db9565b506000821415611e30576040517f2e07630000000000000000000000000000000000000000000000000000000000815260040160405180910390fd5b80611e396118bf565b600001819055505050611e4f6000848385611b20565b505050565b60008373ffffffffffffffffffffffffffffffffffffffff1663150b7a02611e7a61195d565b8786866040518563ffffffff1660e01b8152600401611e9c94939291906129f1565b602060405180830381600087803b158015611eb657600080fd5b505af1925050508015611ee757506040513d601f19601f82011682018060405250810190611ee49190612659565b60015b611f61573d8060008114611f17576040519150601f19603f3d011682016040523d82523d6000602084013e611f1c565b606091505b50600081511415611f59576040517fd1a57ed600000000000000000000000000000000000000000000000000000000815260040160405180910390fd5b805181602001fd5b63150b7a0260e01b7bffffffffffffffffffffffffffffffffffffffffffffffffffffffff1916817bffffffffffffffffffffffffffffffffffffffffffffffffffffffff191614915050949350505050565b6000807fee151c8401928dc223602bb187aff91b9a56c7cae5476ef1b3287b085a16c85f90508091505090565b6000803090506000813b9050600081149250505090565b6000808273ffffffffffffffffffffffffffffffffffffffff163b119050919050565b612023611fb4565b60000160019054906101000a900460ff16612073576040517f08c379a000000000000000000000000000000000000000000000000000000000815260040161206a90612a95565b60405180910390fd5b61207d82826120f3565b5050565b600060019054906101000a900460ff166120d0576040517f08c379a00000000000000000000000000000000000000000000000000000000081526004016120c790612b95565b60405180910390fd5b6120d86121a6565b565b60009392505050565b60006001821460e11b9050919050565b6120fb611fb4565b60000160019054906101000a900460ff1661214b576040517f08c379a000000000000000000000000000000000000000000000000000000000815260040161214290612a95565b60405180910390fd5b816121546118bf565b600201908051906020019061216a92919061228d565b50806121746118bf565b600301908051906020019061218a92919061228d565b50612193611965565b61219b6118bf565b600001819055505050565b600060019054906101000a900460ff166121f5576040517f08c379a00000000000000000000000000000000000000000000000000000000081526004016121ec90612b95565b60405180910390fd5b612205612200611c6a565b611ba4565b565b82805461221390612d78565b90600052602060002090601f016020900481019282612235576000855561227c565b82601f1061224e57803560ff191683800117855561227c565b8280016001018555821561227c579182015b8281111561227b578235825591602001919060010190612260565b5b5090506122899190612313565b5090565b82805461229990612d78565b90600052602060002090601f0160209004810192826122bb5760008555612302565b82601f106122d457805160ff1916838001178555612302565b82800160010185558215612302579182015b828111156123015782518255916020019190600101906122e6565b5b50905061230f9190612313565b5090565b5b8082111561232c576000816000905550600101612314565b5090565b600061234361233e84612c30565b612c0b565b90508281526020810184848401111561235b57600080fd5b612366848285612d36565b509392505050565b60008135905061237d8161311a565b92915050565b60008135905061239281613131565b92915050565b6000813590506123a781613148565b92915050565b6000813590506123bc8161315f565b92915050565b6000815190506123d18161315f565b92915050565b600082601f8301126123e857600080fd5b81356123f8848260208601612330565b91505092915050565b60008083601f84011261241357600080fd5b8235905067ffffffffffffffff81111561242c57600080fd5b60208301915083600182028301111561244457600080fd5b9250929050565b60008135905061245a81613176565b92915050565b60006020828403121561247257600080fd5b60006124808482850161236e565b91505092915050565b6000806040838503121561249c57600080fd5b60006124aa8582860161236e565b92505060206124bb8582860161236e565b9150509250929050565b6000806000606084860312156124da57600080fd5b60006124e88682870161236e565b93505060206124f98682870161236e565b925050604061250a8682870161244b565b9150509250925092565b6000806000806080858703121561252a57600080fd5b60006125388782880161236e565b94505060206125498782880161236e565b935050604061255a8782880161244b565b925050606085013567ffffffffffffffff81111561257757600080fd5b612583878288016123d7565b91505092959194509250565b600080604083850312156125a257600080fd5b60006125b08582860161236e565b92505060206125c185828601612383565b9150509250929050565b600080604083850312156125de57600080fd5b60006125ec8582860161236e565b92505060206125fd8582860161244b565b9150509250929050565b60006020828403121561261957600080fd5b600061262784828501612398565b91505092915050565b60006020828403121561264257600080fd5b6000612650848285016123ad565b91505092915050565b60006020828403121561266b57600080fd5b6000612679848285016123c2565b91505092915050565b60006020828403121561269457600080fd5b60006126a28482850161244b565b91505092915050565b600080600080600080600080600080600060e08c8e0312156126cc57600080fd5b60006126da8e828f0161244b565b9b505060206126eb8e828f0161244b565b9a505060406126fc8e828f0161244b565b99505060608c013567ffffffffffffffff81111561271957600080fd5b6127258e828f01612401565b985098505060808c013567ffffffffffffffff81111561274457600080fd5b6127508e828f01612401565b965096505060a08c013567ffffffffffffffff81111561276f57600080fd5b61277b8e828f01612401565b945094505060c08c013567ffffffffffffffff81111561279a57600080fd5b6127a68e828f01612401565b92509250509295989b509295989b9093969950565b6127c481612c99565b82525050565b6127d381612cab565b82525050565b60006127e482612c61565b6127ee8185612c77565b93506127fe818560208601612d45565b61280781612eb1565b840191505092915050565b61281b81612d24565b82525050565b600061282c82612c6c565b6128368185612c88565b9350612846818560208601612d45565b61284f81612eb1565b840191505092915050565b6000612867603483612c88565b915061287282612ec2565b604082019050919050565b600061288a602683612c88565b915061289582612f11565b604082019050919050565b60006128ad601083612c88565b91506128b882612f60565b602082019050919050565b60006128d0602e83612c88565b91506128db82612f89565b604082019050919050565b60006128f3601183612c88565b91506128fe82612fd8565b602082019050919050565b6000612916603783612c88565b915061292182613001565b604082019050919050565b6000612939602083612c88565b915061294482613050565b602082019050919050565b600061295c601383612c88565b915061296782613079565b602082019050919050565b600061297f602b83612c88565b915061298a826130a2565b604082019050919050565b60006129a2600e83612c88565b91506129ad826130f1565b602082019050919050565b6129c181612d0d565b82525050565b6129d081612d17565b82525050565b60006020820190506129eb60008301846127bb565b92915050565b6000608082019050612a0660008301876127bb565b612a1360208301866127bb565b612a2060408301856129b8565b8181036060830152612a3281846127d9565b905095945050505050565b6000602082019050612a5260008301846127ca565b92915050565b6000602082019050612a6d6000830184612812565b92915050565b60006020820190508181036000830152612a8d8184612821565b905092915050565b60006020820190508181036000830152612aae8161285a565b9050919050565b60006020820190508181036000830152612ace8161287d565b9050919050565b60006020820190508181036000830152612aee816128a0565b9050919050565b60006020820190508181036000830152612b0e816128c3565b9050919050565b60006020820190508181036000830152612b2e816128e6565b9050919050565b60006020820190508181036000830152612b4e81612909565b9050919050565b60006020820190508181036000830152612b6e8161292c565b9050919050565b60006020820190508181036000830152612b8e8161294f565b9050919050565b60006020820190508181036000830152612bae81612972565b9050919050565b60006020820190508181036000830152612bce81612995565b9050919050565b6000602082019050612bea60008301846129b8565b92915050565b6000602082019050612c0560008301846129c7565b92915050565b6000612c15612c26565b9050612c218282612daa565b919050565b6000604051905090565b600067ffffffffffffffff821115612c4b57612c4a612e82565b5b612c5482612eb1565b9050602081019050919050565b600081519050919050565b600081519050919050565b600082825260208201905092915050565b600082825260208201905092915050565b6000612ca482612ced565b9050919050565b60008115159050919050565b6000819050919050565b60007fffffffff0000000000000000000000000000000000000000000000000000000082169050919050565b600073ffffffffffffffffffffffffffffffffffffffff82169050919050565b6000819050919050565b600060ff82169050919050565b6000612d2f82612d17565b9050919050565b82818337600083830152505050565b60005b83811015612d63578082015181840152602081019050612d48565b83811115612d72576000848401525b50505050565b60006002820490506001821680612d9057607f821691505b60208210811415612da457612da3612e53565b5b50919050565b612db382612eb1565b810181811067ffffffffffffffff82111715612dd257612dd1612e82565b5b80604052505050565b6000612de682612d0d565b91507fffffffffffffffffffffffffffffffffffffffffffffffffffffffffffffffff821415612e1957612e18612e24565b5b600182019050919050565b7f4e487b7100000000000000000000000000000000000000000000000000000000600052601160045260246000fd5b7f4e487b7100000000000000000000000000000000000000000000000000000000600052602260045260246000fd5b7f4e487b7100000000000000000000000000000000000000000000000000000000600052604160045260246000fd5b6000601f19601f8301169050919050565b7f455243373231415f5f496e697469616c697a61626c653a20636f6e747261637460008201527f206973206e6f7420696e697469616c697a696e67000000000000000000000000602082015250565b7f4f776e61626c653a206e6577206f776e657220697320746865207a65726f206160008201527f6464726573730000000000000000000000000000000000000000000000000000602082015250565b7f6d6178206d696e74207265616368656400000000000000000000000000000000600082015250565b7f496e697469616c697a61626c653a20636f6e747261637420697320616c72656160008201527f647920696e697469616c697a6564000000000000000000000000000000000000602082015250565b7f696e76616c6964206d696e7420636f6465000000000000000000000000000000600082015250565b7f455243373231415f5f496e697469616c697a61626c653a20636f6e747261637460008201527f20697320616c726561647920696e697469616c697a6564000000000000000000602082015250565b7f4f776e61626c653a2063616c6c6572206973206e6f7420746865206f776e6572600082015250565b7f6f757473696465206d696e742077696e646f7700000000000000000000000000600082015250565b7f496e697469616c697a61626c653a20636f6e7472616374206973206e6f74206960008201527f6e697469616c697a696e67000000000000000000000000000000000000000000602082015250565b7f616c7265616479206d696e746564000000000000000000000000000000000000600082015250565b61312381612c99565b811461312e57600080fd5b50565b61313a81612cab565b811461314557600080fd5b50565b61315181612cb7565b811461315c57600080fd5b50565b61316881612cc1565b811461317357600080fd5b50565b61317f81612d0d565b811461318a57600080fd5b5056fea26469706673582212202d1fe4c6b945632237eb714df12d58035420722cec1a395228f5f1d520162e1664736f6c63430008040033",
  "linkReferences": {},
  "deployedLinkReferences": {}
}