{
  "_format": "hh-sol-artifact-1",
  "contractName": "SarauMaker",
  "sourceName": "contracts/SarauMaker.sol",
  "abi": [
    {
      "inputs": [
        {
          "internalType": "address",
          "name": "nftImplementation_",
          "type": "address"
        },
        {
          "internalType": "bytes32",
          "name": "currency_",
          "type": "bytes32"
        },
        {
          "internalType": "uint256",
          "name": "redstoneDecimals_",
          "type": "uint256"
        }
      ],
      "stateMutability": "nonpayable",
      "type": "constructor"
    },
    {
      "anonymous": false,
      "inputs": [
        {
          "indexed": true,
          "internalType": "uint256",
          "name": "fee",
          "type": "uint256"
        }
      ],
      "name": "CreationUSDFeeChanged",
      "type": "event"
    },
    {
      "anonymous": false,
      "inputs": [
        {
          "indexed": true,
          "internalType": "address",
          "name": "sender",
          "type": "address"
        },
        {
          "indexed": false,
          "internalType": "uint256",
          "name": "amount",
          "type": "uint256"
        }
      ],
      "name": "EtherFlushed",
      "type": "event"
    },
    {
      "anonymous": false,
      "inputs": [
        {
          "indexed": true,
          "internalType": "address",
          "name": "sender",
          "type": "address"
        },
        {
          "indexed": true,
          "internalType": "uint256",
          "name": "amount",
          "type": "uint256"
        }
      ],
      "name": "ReceivedEther",
      "type": "event"
    },
    {
      "anonymous": false,
      "inputs": [
        {
          "indexed": false,
          "internalType": "uint256",
          "name": "decimals",
          "type": "uint256"
        }
      ],
      "name": "RedstoneDecimalsChanged",
      "type": "event"
    },
    {
      "anonymous": false,
      "inputs": [
        {
          "indexed": false,
          "internalType": "address",
          "name": "signer",
          "type": "address"
        }
      ],
      "name": "RedstoneSignerChanged",
      "type": "event"
    },
    {
      "anonymous": false,
      "inputs": [
        {
          "indexed": true,
          "internalType": "bytes32",
          "name": "role",
          "type": "bytes32"
        },
        {
          "indexed": true,
          "internalType": "bytes32",
          "name": "previousAdminRole",
          "type": "bytes32"
        },
        {
          "indexed": true,
          "internalType": "bytes32",
          "name": "newAdminRole",
          "type": "bytes32"
        }
      ],
      "name": "RoleAdminChanged",
      "type": "event"
    },
    {
      "anonymous": false,
      "inputs": [
        {
          "indexed": true,
          "internalType": "bytes32",
          "name": "role",
          "type": "bytes32"
        },
        {
          "indexed": true,
          "internalType": "address",
          "name": "account",
          "type": "address"
        },
        {
          "indexed": true,
          "internalType": "address",
          "name": "sender",
          "type": "address"
        }
      ],
      "name": "RoleGranted",
      "type": "event"
    },
    {
      "anonymous": false,
      "inputs": [
        {
          "indexed": true,
          "internalType": "bytes32",
          "name": "role",
          "type": "bytes32"
        },
        {
          "indexed": true,
          "internalType": "address",
          "name": "account",
          "type": "address"
        },
        {
          "indexed": true,
          "internalType": "address",
          "name": "sender",
          "type": "address"
        }
      ],
      "name": "RoleRevoked",
      "type": "event"
    },
    {
      "anonymous": false,
      "inputs": [
        {
          "indexed": true,
          "internalType": "address",
          "name": "nft",
          "type": "address"
        },
        {
          "indexed": true,
          "internalType": "uint256",
          "name": "id",
          "type": "uint256"
        }
      ],
      "name": "SarauCreated",
      "type": "event"
    },
    {
      "inputs": [],
      "name": "CURRENCY",
      "outputs": [
        {
          "internalType": "bytes32",
          "name": "",
          "type": "bytes32"
        }
      ],
      "stateMutability": "view",
      "type": "function"
    },
    {
      "inputs": [],
      "name": "DEFAULT_ADMIN_ROLE",
      "outputs": [
        {
          "internalType": "bytes32",
          "name": "",
          "type": "bytes32"
        }
      ],
      "stateMutability": "view",
      "type": "function"
    },
    {
      "inputs": [],
      "name": "NFT_IMPLEMENTATION",
      "outputs": [
        {
          "internalType": "address",
          "name": "",
          "type": "address"
        }
      ],
      "stateMutability": "view",
      "type": "function"
    },
    {
      "inputs": [
        {
          "internalType": "uint256",
          "name": "",
          "type": "uint256"
        },
        {
          "internalType": "address",
          "name": "",
          "type": "address"
        }
      ],
      "name": "addressToMints",
      "outputs": [
        {
          "internalType": "uint8",
          "name": "",
          "type": "uint8"
        }
      ],
      "stateMutability": "view",
      "type": "function"
    },
    {
      "inputs": [
        {
          "internalType": "uint256",
          "name": "index_",
          "type": "uint256"
        },
        {
          "internalType": "address",
          "name": "wallet",
          "type": "address"
        }
      ],
      "name": "canMint",
      "outputs": [
        {
          "internalType": "bool",
          "name": "",
          "type": "bool"
        }
      ],
      "stateMutability": "view",
      "type": "function"
    },
    {
      "inputs": [
        {
          "internalType": "uint256",
          "name": "maxMint_",
          "type": "uint256"
        },
        {
          "internalType": "uint256",
          "name": "startDate_",
          "type": "uint256"
        },
        {
          "internalType": "uint256",
          "name": "endDate_",
          "type": "uint256"
        },
        {
          "internalType": "string",
          "name": "homepage_",
          "type": "string"
        },
        {
          "internalType": "string",
          "name": "name",
          "type": "string"
        },
        {
          "internalType": "string",
          "name": "symbol",
          "type": "string"
        },
        {
          "internalType": "string",
          "name": "uri_",
          "type": "string"
        }
      ],
      "name": "createSarau",
      "outputs": [
        {
          "internalType": "uint256",
          "name": "index",
          "type": "uint256"
        }
      ],
      "stateMutability": "payable",
      "type": "function"
    },
    {
      "inputs": [],
      "name": "creationEtherFee",
      "outputs": [
        {
          "internalType": "uint256",
          "name": "",
          "type": "uint256"
        }
      ],
      "stateMutability": "view",
      "type": "function"
    },
    {
      "inputs": [],
      "name": "creationUSDFee",
      "outputs": [
        {
          "internalType": "uint256",
          "name": "",
          "type": "uint256"
        }
      ],
      "stateMutability": "view",
      "type": "function"
    },
    {
      "inputs": [],
      "name": "etherPrice",
      "outputs": [
        {
          "internalType": "uint256",
          "name": "",
          "type": "uint256"
        }
      ],
      "stateMutability": "view",
      "type": "function"
    },
    {
      "inputs": [
        {
          "internalType": "address",
          "name": "_to",
          "type": "address"
        }
      ],
      "name": "flushETH",
      "outputs": [],
      "stateMutability": "nonpayable",
      "type": "function"
    },
    {
      "inputs": [],
      "name": "getMaxBlockTimestampDelay",
      "outputs": [
        {
          "internalType": "uint256",
          "name": "",
          "type": "uint256"
        }
      ],
      "stateMutability": "view",
      "type": "function"
    },
    {
      "inputs": [],
      "name": "getMaxDataTimestampDelay",
      "outputs": [
        {
          "internalType": "uint256",
          "name": "",
          "type": "uint256"
        }
      ],
      "stateMutability": "view",
      "type": "function"
    },
    {
      "inputs": [
        {
          "internalType": "address",
          "name": "wallet",
          "type": "address"
        }
      ],
      "name": "getNumberOFSarausCreatedByWallet",
      "outputs": [
        {
          "internalType": "uint256",
          "name": "",
          "type": "uint256"
        }
      ],
      "stateMutability": "view",
      "type": "function"
    },
    {
      "inputs": [],
      "name": "getNumberOfMints",
      "outputs": [
        {
          "internalType": "uint256",
          "name": "",
          "type": "uint256"
        }
      ],
      "stateMutability": "view",
      "type": "function"
    },
    {
      "inputs": [],
      "name": "getNumberOfSaraus",
      "outputs": [
        {
          "internalType": "uint256",
          "name": "",
          "type": "uint256"
        }
      ],
      "stateMutability": "view",
      "type": "function"
    },
    {
      "inputs": [
        {
          "internalType": "bytes32",
          "name": "role",
          "type": "bytes32"
        }
      ],
      "name": "getRoleAdmin",
      "outputs": [
        {
          "internalType": "bytes32",
          "name": "",
          "type": "bytes32"
        }
      ],
      "stateMutability": "view",
      "type": "function"
    },
    {
      "inputs": [
        {
          "internalType": "uint256",
          "name": "index_",
          "type": "uint256"
        }
      ],
      "name": "getSarauAddress",
      "outputs": [
        {
          "internalType": "address",
          "name": "",
          "type": "address"
        }
      ],
      "stateMutability": "view",
      "type": "function"
    },
    {
      "inputs": [
        {
          "internalType": "address",
          "name": "wallet_",
          "type": "address"
        },
        {
          "internalType": "uint256",
          "name": "startIndex_",
          "type": "uint256"
        },
        {
          "internalType": "uint256",
          "name": "endIndex_",
          "type": "uint256"
        }
      ],
      "name": "getSarausByWallet",
      "outputs": [
        {
          "internalType": "uint256[]",
          "name": "",
          "type": "uint256[]"
        }
      ],
      "stateMutability": "view",
      "type": "function"
    },
    {
      "inputs": [
        {
          "internalType": "bytes32",
          "name": "role",
          "type": "bytes32"
        },
        {
          "internalType": "address",
          "name": "account",
          "type": "address"
        }
      ],
      "name": "grantRole",
      "outputs": [],
      "stateMutability": "nonpayable",
      "type": "function"
    },
    {
      "inputs": [
        {
          "internalType": "bytes32",
          "name": "role",
          "type": "bytes32"
        },
        {
          "internalType": "address",
          "name": "account",
          "type": "address"
        }
      ],
      "name": "hasRole",
      "outputs": [
        {
          "internalType": "bool",
          "name": "",
          "type": "bool"
        }
      ],
      "stateMutability": "view",
      "type": "function"
    },
    {
      "inputs": [
        {
          "internalType": "address",
          "name": "_receivedSigner",
          "type": "address"
        }
      ],
      "name": "isSignerAuthorized",
      "outputs": [
        {
          "internalType": "bool",
          "name": "",
          "type": "bool"
        }
      ],
      "stateMutability": "view",
      "type": "function"
    },
    {
      "inputs": [
        {
          "internalType": "uint256",
          "name": "_receivedTimestamp",
          "type": "uint256"
        }
      ],
      "name": "isTimestampValid",
      "outputs": [
        {
          "internalType": "bool",
          "name": "",
          "type": "bool"
        }
      ],
      "stateMutability": "view",
      "type": "function"
    },
    {
      "inputs": [
        {
          "internalType": "uint256",
          "name": "index_",
          "type": "uint256"
        },
        {
          "internalType": "bytes32",
          "name": "code_",
          "type": "bytes32"
        }
      ],
      "name": "mint",
      "outputs": [
        {
          "internalType": "uint256",
          "name": "",
          "type": "uint256"
        }
      ],
      "stateMutability": "nonpayable",
      "type": "function"
    },
    {
      "inputs": [],
      "name": "redstoneDecimals",
      "outputs": [
        {
          "internalType": "uint256",
          "name": "",
          "type": "uint256"
        }
      ],
      "stateMutability": "view",
      "type": "function"
    },
    {
      "inputs": [],
      "name": "redstoneSigner",
      "outputs": [
        {
          "internalType": "address",
          "name": "",
          "type": "address"
        }
      ],
      "stateMutability": "view",
      "type": "function"
    },
    {
      "inputs": [
        {
          "internalType": "bytes32",
          "name": "role",
          "type": "bytes32"
        },
        {
          "internalType": "address",
          "name": "account",
          "type": "address"
        }
      ],
      "name": "renounceRole",
      "outputs": [],
      "stateMutability": "nonpayable",
      "type": "function"
    },
    {
      "inputs": [
        {
          "internalType": "bytes32",
          "name": "role",
          "type": "bytes32"
        },
        {
          "internalType": "address",
          "name": "account",
          "type": "address"
        }
      ],
      "name": "revokeRole",
      "outputs": [],
      "stateMutability": "nonpayable",
      "type": "function"
    },
    {
      "inputs": [
        {
          "internalType": "uint256",
          "name": "creationUSDFee_",
          "type": "uint256"
        }
      ],
      "name": "setCreationUSDFee",
      "outputs": [],
      "stateMutability": "nonpayable",
      "type": "function"
    },
    {
      "inputs": [
        {
          "internalType": "uint256",
          "name": "redstoneDecimals_",
          "type": "uint256"
        }
      ],
      "name": "setRedstoneDecimals",
      "outputs": [],
      "stateMutability": "nonpayable",
      "type": "function"
    },
    {
      "inputs": [
        {
          "internalType": "address",
          "name": "redstoneSigner_",
          "type": "address"
        }
      ],
      "name": "setRedstoneSigner",
      "outputs": [],
      "stateMutability": "nonpayable",
      "type": "function"
    },
    {
      "inputs": [
        {
          "internalType": "bytes4",
          "name": "interfaceId",
          "type": "bytes4"
        }
      ],
      "name": "supportsInterface",
      "outputs": [
        {
          "internalType": "bool",
          "name": "",
          "type": "bool"
        }
      ],
      "stateMutability": "view",
      "type": "function"
    },
    {
      "inputs": [],
      "name": "updateEtherPrice",
      "outputs": [],
      "stateMutability": "nonpayable",
      "type": "function"
    },
    {
      "stateMutability": "payable",
      "type": "receive"
    }
  ],
  "bytecode": "0x60c06040523480156200001157600080fd5b50604051620043b4380380620043b4833981810160405281019062000037919062000252565b8273ffffffffffffffffffffffffffffffffffffffff1660808173ffffffffffffffffffffffffffffffffffffffff1660601b815250508160a0818152505080600981905550620000a16000801b62000095620000aa60201b60201c565b620000b260201b60201c565b5050506200033e565b600033905090565b620000c48282620001a360201b60201c565b6200019f57600160008084815260200190815260200160002060000160008373ffffffffffffffffffffffffffffffffffffffff1673ffffffffffffffffffffffffffffffffffffffff16815260200190815260200160002060006101000a81548160ff02191690831515021790555062000144620000aa60201b60201c565b73ffffffffffffffffffffffffffffffffffffffff168173ffffffffffffffffffffffffffffffffffffffff16837f2f8788117e7eff1d82e926ec794901d17c78024a50270940304540a733656f0d60405160405180910390a45b5050565b600080600084815260200190815260200160002060000160008373ffffffffffffffffffffffffffffffffffffffff1673ffffffffffffffffffffffffffffffffffffffff16815260200190815260200160002060009054906101000a900460ff16905092915050565b6000815190506200021e81620002f0565b92915050565b60008151905062000235816200030a565b92915050565b6000815190506200024c8162000324565b92915050565b6000806000606084860312156200026857600080fd5b600062000278868287016200020d565b93505060206200028b8682870162000224565b92505060406200029e868287016200023b565b9150509250925092565b6000620002b582620002c6565b9050919050565b6000819050919050565b600073ffffffffffffffffffffffffffffffffffffffff82169050919050565b6000819050919050565b620002fb81620002a8565b81146200030757600080fd5b50565b6200031581620002bc565b81146200032157600080fd5b50565b6200032f81620002e6565b81146200033b57600080fd5b50565b60805160601c60a05161403f62000375600039600081816112f401526117f10152600081816109e90152611815015261403f6000f3fe6080604052600436106101e75760003560e01c80638f4e76b911610102578063d6e7e8f511610095578063f536121911610064578063f53612191461078b578063f69d2bcc146107b6578063f77b407b146107e1578063f84f459c1461081e57610239565b8063d6e7e8f5146106cf578063dc426881146106fa578063ee272ceb14610723578063f31a210a1461076057610239565b8063a217fddf116100d1578063a217fddf14610615578063abeae71014610640578063c5d5ac001461067d578063d547741f146106a657610239565b80638f4e76b91461054757806391d1485414610584578063971836e8146105c15780639e307955146105ea57610239565b806330a7b1f51161017a5780635335b6af116101495780635335b6af1461049d57806375058205146104c85780637e34d72314610505578063867b3d4b1461053057610239565b806330a7b1f5146103f357806336568abe1461041e57806342ba9bb3146104475780635118af5a1461047257610239565b80631801fbe5116101b65780631801fbe514610313578063248a9ca314610350578063264029af1461038d5780632f2ff15d146103ca57610239565b806301ffc9a71461023e57806305503f5d1461027b578063071054bd146102a657806311c89b10146102d657610239565b3661023957346101f5610847565b73ffffffffffffffffffffffffffffffffffffffff167fa419615bc8fda4c87663805ee2a3597a6d71c1d476911d9892f340d965bc7bf160405160405180910390a3005b600080fd5b34801561024a57600080fd5b5061026560048036038101906102609190612c06565b61084f565b6040516102729190613335565b60405180910390f35b34801561028757600080fd5b506102906108c9565b60405161029d9190613692565b60405180910390f35b6102c060048036038101906102bb9190612cf9565b6108cf565b6040516102cd9190613692565b60405180910390f35b3480156102e257600080fd5b506102fd60048036038101906102f89190612b00565b610c5b565b60405161030a9190613335565b60405180910390f35b34801561031f57600080fd5b5061033a60048036038101906103359190612cbd565b610cb5565b6040516103479190613692565b60405180910390f35b34801561035c57600080fd5b5061037760048036038101906103729190612b78565b611111565b6040516103849190613350565b60405180910390f35b34801561039957600080fd5b506103b460048036038101906103af9190612c2f565b611130565b6040516103c191906132f8565b60405180910390f35b3480156103d657600080fd5b506103f160048036038101906103ec9190612bca565b611153565b005b3480156103ff57600080fd5b50610408611174565b6040516104159190613692565b60405180910390f35b34801561042a57600080fd5b5061044560048036038101906104409190612bca565b6111aa565b005b34801561045357600080fd5b5061045c61122d565b60405161046991906132f8565b60405180910390f35b34801561047e57600080fd5b50610487611253565b6040516104949190613692565b60405180910390f35b3480156104a957600080fd5b506104b261125c565b6040516104bf9190613692565b60405180910390f35b3480156104d457600080fd5b506104ef60048036038101906104ea9190612c2f565b611262565b6040516104fc9190613335565b60405180910390f35b34801561051157600080fd5b5061051a6112de565b6040516105279190613692565b60405180910390f35b34801561053c57600080fd5b506105456112ef565b005b34801561055357600080fd5b5061056e60048036038101906105699190612c81565b611320565b60405161057b9190613335565b60405180910390f35b34801561059057600080fd5b506105ab60048036038101906105a69190612bca565b61138f565b6040516105b89190613335565b60405180910390f35b3480156105cd57600080fd5b506105e860048036038101906105e39190612c2f565b6113f9565b005b3480156105f657600080fd5b506105ff61143e565b60405161060c9190613692565b60405180910390f35b34801561062157600080fd5b5061062a611444565b6040516106379190613350565b60405180910390f35b34801561064c57600080fd5b5061066760048036038101906106629190612b29565b61144b565b6040516106749190613313565b60405180910390f35b34801561068957600080fd5b506106a4600480360381019061069f9190612c2f565b6115af565b005b3480156106b257600080fd5b506106cd60048036038101906106c89190612bca565b6115fe565b005b3480156106db57600080fd5b506106e461161f565b6040516106f19190613692565b60405180910390f35b34801561070657600080fd5b50610721600480360381019061071c9190612b00565b611630565b005b34801561072f57600080fd5b5061074a60048036038101906107459190612b00565b611796565b6040516107579190613692565b60405180910390f35b34801561076c57600080fd5b506107756117e6565b6040516107829190613692565b60405180910390f35b34801561079757600080fd5b506107a06117ef565b6040516107ad9190613350565b60405180910390f35b3480156107c257600080fd5b506107cb611813565b6040516107d891906132f8565b60405180910390f35b3480156107ed57600080fd5b5061080860048036038101906108039190612c81565b611837565b6040516108159190613740565b60405180910390f35b34801561082a57600080fd5b5061084560048036038101906108409190612b00565b611866565b005b600033905090565b60007f7965db0b000000000000000000000000000000000000000000000000000000007bffffffffffffffffffffffffffffffffffffffffffffffffffffffff1916827bffffffffffffffffffffffffffffffffffffffffffffffffffffffff191614806108c257506108c1826118ef565b5b9050919050565b60095481565b60006108d9611174565b341461091a576040517f08c379a0000000000000000000000000000000000000000000000000000000008152600401610911906134d2565b60405180910390fd5b60008b1161095d576040517f08c379a0000000000000000000000000000000000000000000000000000000008152600401610954906134b2565b60405180910390fd5b60008a116109a0576040517f08c379a0000000000000000000000000000000000000000000000000000000008152600401610997906135f2565b60405180910390fd5b8a8a116109e2576040517f08c379a00000000000000000000000000000000000000000000000000000000081526004016109d990613512565b60405180910390fd5b6000610a0d7f0000000000000000000000000000000000000000000000000000000000000000611959565b90508073ffffffffffffffffffffffffffffffffffffffff1663c170fc928e8e8e8e8e8e8e8e8e8e8e6040518c63ffffffff1660e01b8152600401610a5c9b9a999897969594939291906136ad565b600060405180830381600087803b158015610a7657600080fd5b505af1158015610a8a573d6000803e3d6000fd5b505050508073ffffffffffffffffffffffffffffffffffffffff16632f2ff15d8273ffffffffffffffffffffffffffffffffffffffff1663a217fddf6040518163ffffffff1660e01b815260040160206040518083038186803b158015610af057600080fd5b505afa158015610b04573d6000803e3d6000fd5b505050506040513d601f19601f82011682018060405250810190610b289190612ba1565b610b30610847565b6040518363ffffffff1660e01b8152600401610b4d92919061336b565b600060405180830381600087803b158015610b6757600080fd5b505af1158015610b7b573d6000803e3d6000fd5b505050506001610b8b6002611a2e565b610b9591906137f3565b9150610bad82826002611a439092919063ffffffff16565b50610c068260056000610bbe610847565b73ffffffffffffffffffffffffffffffffffffffff1673ffffffffffffffffffffffffffffffffffffffff168152602001908152602001600020611a7890919063ffffffff16565b50818173ffffffffffffffffffffffffffffffffffffffff167fac100e67e29f770c65d8049cdf0b746851e89c395ca9d80fcbaaebc0d38cf65e60405160405180910390a3509b9a5050505050505050505050565b60008173ffffffffffffffffffffffffffffffffffffffff16600860009054906101000a900473ffffffffffffffffffffffffffffffffffffffff1673ffffffffffffffffffffffffffffffffffffffff16149050919050565b600080610cc184611130565b90508073ffffffffffffffffffffffffffffffffffffffff166318160ddd6040518163ffffffff1660e01b815260040160206040518083038186803b158015610d0957600080fd5b505afa158015610d1d573d6000803e3d6000fd5b505050506040513d601f19601f82011682018060405250810190610d419190612c58565b8173ffffffffffffffffffffffffffffffffffffffff16637501f7416040518163ffffffff1660e01b815260040160206040518083038186803b158015610d8757600080fd5b505afa158015610d9b573d6000803e3d6000fd5b505050506040513d601f19601f82011682018060405250810190610dbf9190612c58565b11610dff576040517f08c379a0000000000000000000000000000000000000000000000000000000008152600401610df690613572565b60405180910390fd5b8073ffffffffffffffffffffffffffffffffffffffff16630b97bc866040518163ffffffff1660e01b815260040160206040518083038186803b158015610e4557600080fd5b505afa158015610e59573d6000803e3d6000fd5b505050506040513d601f19601f82011682018060405250810190610e7d9190612c58565b4210158015610f0957508073ffffffffffffffffffffffffffffffffffffffff1663c24a0f8b6040518163ffffffff1660e01b815260040160206040518083038186803b158015610ecd57600080fd5b505afa158015610ee1573d6000803e3d6000fd5b505050506040513d601f19601f82011682018060405250810190610f059190612c58565b4211155b610f48576040517f08c379a0000000000000000000000000000000000000000000000000000000008152600401610f3f906135d2565b60405180910390fd5b610f5984610f54610847565b611320565b610f98576040517f08c379a0000000000000000000000000000000000000000000000000000000008152600401610f8f90613672565b60405180910390fd5b6001600660008681526020019081526020016000206000610fb7610847565b73ffffffffffffffffffffffffffffffffffffffff1673ffffffffffffffffffffffffffffffffffffffff16815260200190815260200160002060006101000a81548160ff021916908360ff1602179055508073ffffffffffffffffffffffffffffffffffffffff1663507411a3600161102f610847565b866040518463ffffffff1660e01b815260040161104e939291906133d9565b600060405180830381600087803b15801561106857600080fd5b505af115801561107c573d6000803e3d6000fd5b5050505061108a6001611a92565b8073ffffffffffffffffffffffffffffffffffffffff166318160ddd6040518163ffffffff1660e01b815260040160206040518083038186803b1580156110d057600080fd5b505afa1580156110e4573d6000803e3d6000fd5b505050506040513d601f19601f820116820180604052508101906111089190612c58565b91505092915050565b6000806000838152602001908152602001600020600101549050919050565b600080611147836002611aa890919063ffffffff16565b91505080915050919050565b61115c82611111565b61116581611ad4565b61116f8383611ae8565b505050565b600060095460006007541461119857600754600a546111939190613849565b61119b565b60005b6111a591906138b6565b905090565b6111b2610847565b73ffffffffffffffffffffffffffffffffffffffff168173ffffffffffffffffffffffffffffffffffffffff161461121f576040517f08c379a000000000000000000000000000000000000000000000000000000000815260040161121690613652565b60405180910390fd5b6112298282611bc8565b5050565b600860009054906101000a900473ffffffffffffffffffffffffffffffffffffffff1681565b6000600f905090565b600a5481565b60008161126d611253565b4261127891906137f3565b116112b8576040517f08c379a00000000000000000000000000000000000000000000000000000000081526004016112af90613612565b60405180910390fd5b814210806112d757506112c96117e6565b82426112d59190613910565b105b9050919050565b60006112ea6002611a2e565b905090565b6113187f0000000000000000000000000000000000000000000000000000000000000000611ca9565b600781905550565b600060016006600085815260200190815260200160002060008473ffffffffffffffffffffffffffffffffffffffff1673ffffffffffffffffffffffffffffffffffffffff16815260200190815260200160002060009054906101000a900460ff1660ff161415905092915050565b600080600084815260200190815260200160002060000160008373ffffffffffffffffffffffffffffffffffffffff1673ffffffffffffffffffffffffffffffffffffffff16815260200190815260200160002060009054906101000a900460ff16905092915050565b6000801b61140681611ad4565b81600a81905550817f7a570aff860f1dbe00d36164ca3379f53f6362009fba0ce8d78254e95cead99560405160405180910390a25050565b60075481565b6000801b81565b606060006001848461145d9190613910565b61146791906137f3565b905060008167ffffffffffffffff8111156114ab577f4e487b7100000000000000000000000000000000000000000000000000000000600052604160045260246000fd5b6040519080825280602002602001820160405280156114d95781602001602082028036833780820191505090505b5090506000808690505b8581116115a15761153b81600560008b73ffffffffffffffffffffffffffffffffffffffff1673ffffffffffffffffffffffffffffffffffffffff168152602001908152602001600020611db790919063ffffffff16565b838381518110611574577f4e487b7100000000000000000000000000000000000000000000000000000000600052603260045260246000fd5b602002602001018181525050818061158b90613a5b565b925050808061159990613a5b565b9150506114e3565b508193505050509392505050565b6000801b6115bc81611ad4565b816009819055507f32a3e518123805f5c20349e18a4c636d97f0fec98369af309dd61fe90ed037b2826040516115f29190613692565b60405180910390a15050565b61160782611111565b61161081611ad4565b61161a8383611bc8565b505050565b600061162b6001611dd1565b905090565b6000801b61163d81611ad4565b600073ffffffffffffffffffffffffffffffffffffffff168273ffffffffffffffffffffffffffffffffffffffff1614156116ad576040517f08c379a00000000000000000000000000000000000000000000000000000000081526004016116a4906135b2565b60405180910390fd5b6000479050600081116116f5576040517f08c379a00000000000000000000000000000000000000000000000000000000081526004016116ec90613632565b60405180910390fd5b8273ffffffffffffffffffffffffffffffffffffffff166108fc829081150290604051600060405180830381858888f1935050505015801561173b573d6000803e3d6000fd5b50611744610847565b73ffffffffffffffffffffffffffffffffffffffff167f7e8bfbce8498a152a0bedcf83edec38ffb0a13b19a197cb7c2686fc6371013ab826040516117899190613692565b60405180910390a2505050565b60006117df600560008473ffffffffffffffffffffffffffffffffffffffff1673ffffffffffffffffffffffffffffffffffffffff168152602001908152602001600020611ddf565b9050919050565b600060b4905090565b7f000000000000000000000000000000000000000000000000000000000000000081565b7f000000000000000000000000000000000000000000000000000000000000000081565b60066020528160005260406000206020528060005260406000206000915091509054906101000a900460ff1681565b6000801b61187381611ad4565b81600860006101000a81548173ffffffffffffffffffffffffffffffffffffffff021916908373ffffffffffffffffffffffffffffffffffffffff1602179055507fbd95025ed42064979834dfebc62ec9d5892e915976f55b415979d34f349ac4ab826040516118e391906132f8565b60405180910390a15050565b60007f01ffc9a7000000000000000000000000000000000000000000000000000000007bffffffffffffffffffffffffffffffffffffffffffffffffffffffff1916827bffffffffffffffffffffffffffffffffffffffffffffffffffffffff1916149050919050565b60006040517f3d602d80600a3d3981f3363d3d373d3d3d363d7300000000000000000000000081528260601b60148201527f5af43d82803e903d91602b57fd5bf3000000000000000000000000000000000060288201526037816000f0915050600073ffffffffffffffffffffffffffffffffffffffff168173ffffffffffffffffffffffffffffffffffffffff161415611a29576040517f08c379a0000000000000000000000000000000000000000000000000000000008152600401611a2090613552565b60405180910390fd5b919050565b6000611a3c82600001611df4565b9050919050565b6000611a6f846000018460001b8473ffffffffffffffffffffffffffffffffffffffff1660001b611e09565b90509392505050565b6000611a8a836000018360001b611e44565b905092915050565b6001816000016000828254019250508190555050565b600080600080611abb8660000186611eb4565b915091508160001c8160001c9350935050509250929050565b611ae581611ae0610847565b611ef4565b50565b611af2828261138f565b611bc457600160008084815260200190815260200160002060000160008373ffffffffffffffffffffffffffffffffffffffff1673ffffffffffffffffffffffffffffffffffffffff16815260200190815260200160002060006101000a81548160ff021916908315150217905550611b69610847565b73ffffffffffffffffffffffffffffffffffffffff168173ffffffffffffffffffffffffffffffffffffffff16837f2f8788117e7eff1d82e926ec794901d17c78024a50270940304540a733656f0d60405160405180910390a45b5050565b611bd2828261138f565b15611ca557600080600084815260200190815260200160002060000160008373ffffffffffffffffffffffffffffffffffffffff1673ffffffffffffffffffffffffffffffffffffffff16815260200190815260200160002060006101000a81548160ff021916908315150217905550611c4a610847565b73ffffffffffffffffffffffffffffffffffffffff168173ffffffffffffffffffffffffffffffffffffffff16837ff6391f5c32d9c69d2a47ea670b442974b53935d1edc7fd64eb21e047a839171b60405160405180910390a45b5050565b600080600167ffffffffffffffff811115611ced577f4e487b7100000000000000000000000000000000000000000000000000000000600052604160045260246000fd5b604051908082528060200260200182016040528015611d1b5781602001602082028036833780820191505090505b5090508281600081518110611d59577f4e487b7100000000000000000000000000000000000000000000000000000000600052603260045260246000fd5b602002602001018181525050611d6e81611f91565b600081518110611da7577f4e487b7100000000000000000000000000000000000000000000000000000000600052603260045260246000fd5b6020026020010151915050919050565b6000611dc683600001836120f9565b60001c905092915050565b600081600001549050919050565b6000611ded8260000161214a565b9050919050565b6000611e028260000161215b565b9050919050565b60008184600201600085815260200190815260200160002081905550611e3b838560000161217090919063ffffffff16565b90509392505050565b6000611e508383612187565b611ea9578260000182908060018154018082558091505060019003906000526020600020016000909190919091505582600001805490508360010160008481526020019081526020016000208190555060019050611eae565b600090505b92915050565b6000806000611ecf84866000016121aa90919063ffffffff16565b9050808560020160008381526020019081526020016000205492509250509250929050565b611efe828261138f565b611f8d57611f238173ffffffffffffffffffffffffffffffffffffffff1660146121c1565b611f318360001c60206121c1565b604051602001611f429291906132be565b6040516020818303038152906040526040517f08c379a0000000000000000000000000000000000000000000000000000000008152600401611f849190613410565b60405180910390fd5b5050565b60606000606136033590506000602060408360ff16611fb0919061387a565b611fba91906137bb565b90506060604051905081815281604283013603602083013760208101604052600081805190602001209050600081604051602001611ff89190613298565b60405160208183030381529060405280519060200120905060606040519050604181526041803603602083013760208101604052600061204182846124bb90919063ffffffff16565b905061204c81610c5b565b61208b576040517f08c379a0000000000000000000000000000000000000000000000000000000008152600401612082906134f2565b60405180910390fd5b60006062360335905061209d81611262565b6120dc576040517f08c379a00000000000000000000000000000000000000000000000000000000081526004016120d390613492565b60405180910390fd5b6120ea8a8960ff16896124e2565b98505050505050505050919050565b6000826000018281548110612137577f4e487b7100000000000000000000000000000000000000000000000000000000600052603260045260246000fd5b9060005260206000200154905092915050565b600081600001805490509050919050565b60006121698260000161214a565b9050919050565b600061217f8360000183611e44565b905092915050565b600080836001016000848152602001908152602001600020541415905092915050565b60006121b983600001836120f9565b905092915050565b6060600060028360026121d491906138b6565b6121de91906137f3565b67ffffffffffffffff81111561221d577f4e487b7100000000000000000000000000000000000000000000000000000000600052604160045260246000fd5b6040519080825280601f01601f19166020018201604052801561224f5781602001600182028036833780820191505090505b5090507f3000000000000000000000000000000000000000000000000000000000000000816000815181106122ad577f4e487b7100000000000000000000000000000000000000000000000000000000600052603260045260246000fd5b60200101907effffffffffffffffffffffffffffffffffffffffffffffffffffffffffffff1916908160001a9053507f780000000000000000000000000000000000000000000000000000000000000081600181518110612337577f4e487b7100000000000000000000000000000000000000000000000000000000600052603260045260246000fd5b60200101907effffffffffffffffffffffffffffffffffffffffffffffffffffffffffffff1916908160001a9053506000600184600261237791906138b6565b61238191906137f3565b90505b600181111561246d577f3031323334353637383961626364656600000000000000000000000000000000600f8616601081106123e9577f4e487b7100000000000000000000000000000000000000000000000000000000600052603260045260246000fd5b1a60f81b828281518110612426577f4e487b7100000000000000000000000000000000000000000000000000000000600052603260045260246000fd5b60200101907effffffffffffffffffffffffffffffffffffffffffffffffffffffffffffff1916908160001a905350600485901c94508061246690613a31565b9050612384565b50600084146124b1576040517f08c379a00000000000000000000000000000000000000000000000000000000081526004016124a890613452565b60405180910390fd5b8091505092915050565b60008060006124ca8585612588565b915091506124d7816125da565b819250505092915050565b6060806000806000806042870136035995508951865260208a51026020870101604052600094505b8951851015612578576020850260208b0101519150600093505b8884101561256d57816040850282013514156125555760206040850282010135602086026020880101526001830192505b8951831415612562578894505b600184019350612524565b60018501945061250a565b5084955050505050509392505050565b6000806041835114156125ca5760008060006020860151925060408601519150606086015160001a90506125be8782858561292b565b945094505050506125d3565b60006002915091505b9250929050565b60006004811115612614577f4e487b7100000000000000000000000000000000000000000000000000000000600052602160045260246000fd5b81600481111561264d577f4e487b7100000000000000000000000000000000000000000000000000000000600052602160045260246000fd5b141561265857612928565b60016004811115612692577f4e487b7100000000000000000000000000000000000000000000000000000000600052602160045260246000fd5b8160048111156126cb577f4e487b7100000000000000000000000000000000000000000000000000000000600052602160045260246000fd5b141561270c576040517f08c379a000000000000000000000000000000000000000000000000000000000815260040161270390613432565b60405180910390fd5b60026004811115612746577f4e487b7100000000000000000000000000000000000000000000000000000000600052602160045260246000fd5b81600481111561277f577f4e487b7100000000000000000000000000000000000000000000000000000000600052602160045260246000fd5b14156127c0576040517f08c379a00000000000000000000000000000000000000000000000000000000081526004016127b790613472565b60405180910390fd5b600360048111156127fa577f4e487b7100000000000000000000000000000000000000000000000000000000600052602160045260246000fd5b816004811115612833577f4e487b7100000000000000000000000000000000000000000000000000000000600052602160045260246000fd5b1415612874576040517f08c379a000000000000000000000000000000000000000000000000000000000815260040161286b90613532565b60405180910390fd5b6004808111156128ad577f4e487b7100000000000000000000000000000000000000000000000000000000600052602160045260246000fd5b8160048111156128e6577f4e487b7100000000000000000000000000000000000000000000000000000000600052602160045260246000fd5b1415612927576040517f08c379a000000000000000000000000000000000000000000000000000000000815260040161291e90613592565b60405180910390fd5b5b50565b6000807f7fffffffffffffffffffffffffffffff5d576e7357a4501ddfe92f46681b20a08360001c1115612966576000600391509150612a2f565b601b8560ff161415801561297e5750601c8560ff1614155b15612990576000600491509150612a2f565b6000600187878787604051600081526020016040526040516129b59493929190613394565b6020604051602081039080840390855afa1580156129d7573d6000803e3d6000fd5b505050602060405103519050600073ffffffffffffffffffffffffffffffffffffffff168173ffffffffffffffffffffffffffffffffffffffff161415612a2657600060019250925050612a2f565b80600092509250505b94509492505050565b600081359050612a4781613fad565b92915050565b600081359050612a5c81613fc4565b92915050565b600081519050612a7181613fc4565b92915050565b600081359050612a8681613fdb565b92915050565b60008083601f840112612a9e57600080fd5b8235905067ffffffffffffffff811115612ab757600080fd5b602083019150836001820283011115612acf57600080fd5b9250929050565b600081359050612ae581613ff2565b92915050565b600081519050612afa81613ff2565b92915050565b600060208284031215612b1257600080fd5b6000612b2084828501612a38565b91505092915050565b600080600060608486031215612b3e57600080fd5b6000612b4c86828701612a38565b9350506020612b5d86828701612ad6565b9250506040612b6e86828701612ad6565b9150509250925092565b600060208284031215612b8a57600080fd5b6000612b9884828501612a4d565b91505092915050565b600060208284031215612bb357600080fd5b6000612bc184828501612a62565b91505092915050565b60008060408385031215612bdd57600080fd5b6000612beb85828601612a4d565b9250506020612bfc85828601612a38565b9150509250929050565b600060208284031215612c1857600080fd5b6000612c2684828501612a77565b91505092915050565b600060208284031215612c4157600080fd5b6000612c4f84828501612ad6565b91505092915050565b600060208284031215612c6a57600080fd5b6000612c7884828501612aeb565b91505092915050565b60008060408385031215612c9457600080fd5b6000612ca285828601612ad6565b9250506020612cb385828601612a38565b9150509250929050565b60008060408385031215612cd057600080fd5b6000612cde85828601612ad6565b9250506020612cef85828601612a4d565b9150509250929050565b600080600080600080600080600080600060e08c8e031215612d1a57600080fd5b6000612d288e828f01612ad6565b9b50506020612d398e828f01612ad6565b9a50506040612d4a8e828f01612ad6565b99505060608c013567ffffffffffffffff811115612d6757600080fd5b612d738e828f01612a8c565b985098505060808c013567ffffffffffffffff811115612d9257600080fd5b612d9e8e828f01612a8c565b965096505060a08c013567ffffffffffffffff811115612dbd57600080fd5b612dc98e828f01612a8c565b945094505060c08c013567ffffffffffffffff811115612de857600080fd5b612df48e828f01612a8c565b92509250509295989b509295989b9093969950565b6000612e15838361326b565b60208301905092915050565b612e2a81613944565b82525050565b6000612e3b8261376b565b612e45818561378e565b9350612e508361375b565b8060005b83811015612e81578151612e688882612e09565b9750612e7383613781565b925050600181019050612e54565b5085935050505092915050565b612e9781613956565b82525050565b612ea681613962565b82525050565b612ebd612eb882613962565b613aa4565b82525050565b612ecc816139dd565b82525050565b6000612ede838561379f565b9350612eeb8385846139ef565b612ef483613b0c565b840190509392505050565b6000612f0a82613776565b612f14818561379f565b9350612f248185602086016139fe565b612f2d81613b0c565b840191505092915050565b6000612f4382613776565b612f4d81856137b0565b9350612f5d8185602086016139fe565b80840191505092915050565b6000612f7660188361379f565b9150612f8182613b1d565b602082019050919050565b6000612f9960208361379f565b9150612fa482613b46565b602082019050919050565b6000612fbc601f8361379f565b9150612fc782613b6f565b602082019050919050565b6000612fdf601c836137b0565b9150612fea82613b98565b601c82019050919050565b600061300260198361379f565b915061300d82613bc1565b602082019050919050565b600061302560248361379f565b915061303082613bea565b604082019050919050565b6000613048600d8361379f565b915061305382613c39565b602082019050919050565b600061306b60158361379f565b915061307682613c62565b602082019050919050565b600061308e60288361379f565b915061309982613c8b565b604082019050919050565b60006130b160228361379f565b91506130bc82613cda565b604082019050919050565b60006130d460168361379f565b91506130df82613d29565b602082019050919050565b60006130f760108361379f565b915061310282613d52565b602082019050919050565b600061311a60228361379f565b915061312582613d7b565b604082019050919050565b600061313d601f8361379f565b915061314882613dca565b602082019050919050565b600061316060138361379f565b915061316b82613df3565b602082019050919050565b600061318360228361379f565b915061318e82613e1c565b604082019050919050565b60006131a6602a8361379f565b91506131b182613e6b565b604082019050919050565b60006131c96017836137b0565b91506131d482613eba565b601782019050919050565b60006131ec60148361379f565b91506131f782613ee3565b602082019050919050565b600061320f6011836137b0565b915061321a82613f0c565b601182019050919050565b6000613232602f8361379f565b915061323d82613f35565b604082019050919050565b6000613255600e8361379f565b915061326082613f84565b602082019050919050565b613274816139c6565b82525050565b613283816139c6565b82525050565b613292816139d0565b82525050565b60006132a382612fd2565b91506132af8284612eac565b60208201915081905092915050565b60006132c9826131bc565b91506132d58285612f38565b91506132e082613202565b91506132ec8284612f38565b91508190509392505050565b600060208201905061330d6000830184612e21565b92915050565b6000602082019050818103600083015261332d8184612e30565b905092915050565b600060208201905061334a6000830184612e8e565b92915050565b60006020820190506133656000830184612e9d565b92915050565b60006040820190506133806000830185612e9d565b61338d6020830184612e21565b9392505050565b60006080820190506133a96000830187612e9d565b6133b66020830186613289565b6133c36040830185612e9d565b6133d06060830184612e9d565b95945050505050565b60006060820190506133ee6000830186612ec3565b6133fb6020830185612e21565b6134086040830184612e9d565b949350505050565b6000602082019050818103600083015261342a8184612eff565b905092915050565b6000602082019050818103600083015261344b81612f69565b9050919050565b6000602082019050818103600083015261346b81612f8c565b9050919050565b6000602082019050818103600083015261348b81612faf565b9050919050565b600060208201905081810360008301526134ab81612ff5565b9050919050565b600060208201905081810360008301526134cb81613018565b9050919050565b600060208201905081810360008301526134eb8161303b565b9050919050565b6000602082019050818103600083015261350b8161305e565b9050919050565b6000602082019050818103600083015261352b81613081565b9050919050565b6000602082019050818103600083015261354b816130a4565b9050919050565b6000602082019050818103600083015261356b816130c7565b9050919050565b6000602082019050818103600083015261358b816130ea565b9050919050565b600060208201905081810360008301526135ab8161310d565b9050919050565b600060208201905081810360008301526135cb81613130565b9050919050565b600060208201905081810360008301526135eb81613153565b9050919050565b6000602082019050818103600083015261360b81613176565b9050919050565b6000602082019050818103600083015261362b81613199565b9050919050565b6000602082019050818103600083015261364b816131df565b9050919050565b6000602082019050818103600083015261366b81613225565b9050919050565b6000602082019050818103600083015261368b81613248565b9050919050565b60006020820190506136a7600083018461327a565b92915050565b600060e0820190506136c2600083018e61327a565b6136cf602083018d61327a565b6136dc604083018c61327a565b81810360608301526136ef818a8c612ed2565b9050818103608083015261370481888a612ed2565b905081810360a0830152613719818688612ed2565b905081810360c083015261372e818486612ed2565b90509c9b505050505050505050505050565b60006020820190506137556000830184613289565b92915050565b6000819050602082019050919050565b600081519050919050565b600081519050919050565b6000602082019050919050565b600082825260208201905092915050565b600082825260208201905092915050565b600081905092915050565b60006137c682613998565b91506137d183613998565b92508261ffff038211156137e8576137e7613aae565b5b828201905092915050565b60006137fe826139c6565b9150613809836139c6565b9250827fffffffffffffffffffffffffffffffffffffffffffffffffffffffffffffffff0382111561383e5761383d613aae565b5b828201905092915050565b6000613854826139c6565b915061385f836139c6565b92508261386f5761386e613add565b5b828204905092915050565b600061388582613998565b915061389083613998565b92508161ffff04831182151516156138ab576138aa613aae565b5b828202905092915050565b60006138c1826139c6565b91506138cc836139c6565b9250817fffffffffffffffffffffffffffffffffffffffffffffffffffffffffffffffff048311821515161561390557613904613aae565b5b828202905092915050565b600061391b826139c6565b9150613926836139c6565b92508282101561393957613938613aae565b5b828203905092915050565b600061394f826139a6565b9050919050565b60008115159050919050565b6000819050919050565b60007fffffffff0000000000000000000000000000000000000000000000000000000082169050919050565b600061ffff82169050919050565b600073ffffffffffffffffffffffffffffffffffffffff82169050919050565b6000819050919050565b600060ff82169050919050565b60006139e8826139c6565b9050919050565b82818337600083830152505050565b60005b83811015613a1c578082015181840152602081019050613a01565b83811115613a2b576000848401525b50505050565b6000613a3c826139c6565b91506000821415613a5057613a4f613aae565b5b600182039050919050565b6000613a66826139c6565b91507fffffffffffffffffffffffffffffffffffffffffffffffffffffffffffffffff821415613a9957613a98613aae565b5b600182019050919050565b6000819050919050565b7f4e487b7100000000000000000000000000000000000000000000000000000000600052601160045260246000fd5b7f4e487b7100000000000000000000000000000000000000000000000000000000600052601260045260246000fd5b6000601f19601f8301169050919050565b7f45434453413a20696e76616c6964207369676e61747572650000000000000000600082015250565b7f537472696e67733a20686578206c656e67746820696e73756666696369656e74600082015250565b7f45434453413a20696e76616c6964207369676e6174757265206c656e67746800600082015250565b7f19457468657265756d205369676e6564204d6573736167653a0a333200000000600082015250565b7f446174612074696d657374616d7020697320696e76616c696400000000000000600082015250565b7f7374617274446174655f206d7573742062652067726561746572207468616e2060008201527f7a65726f00000000000000000000000000000000000000000000000000000000602082015250565b7f696e636f72726563742066656500000000000000000000000000000000000000600082015250565b7f5369676e6572206e6f7420617574686f72697a65640000000000000000000000600082015250565b7f656e64446174655f206d7573742062652067726561746572207468616e20737460008201527f617274446174655f000000000000000000000000000000000000000000000000602082015250565b7f45434453413a20696e76616c6964207369676e6174757265202773272076616c60008201527f7565000000000000000000000000000000000000000000000000000000000000602082015250565b7f455243313136373a20637265617465206661696c656400000000000000000000600082015250565b7f6d6178206d696e74207265616368656400000000000000000000000000000000600082015250565b7f45434453413a20696e76616c6964207369676e6174757265202776272076616c60008201527f7565000000000000000000000000000000000000000000000000000000000000602082015250565b7f63616e6e6f7420776974686472617720746f207a65726f206164647265737300600082015250565b7f6f757473696465206d696e742077696e646f7700000000000000000000000000600082015250565b7f656e64446174655f206d7573742062652067726561746572207468616e207a6560008201527f726f000000000000000000000000000000000000000000000000000000000000602082015250565b7f446174612077697468206675747572652074696d657374616d7073206973206e60008201527f6f7420616c6c6f77656400000000000000000000000000000000000000000000602082015250565b7f416363657373436f6e74726f6c3a206163636f756e7420000000000000000000600082015250565b7f6e6f20657468657220746f207769746864726177000000000000000000000000600082015250565b7f206973206d697373696e6720726f6c6520000000000000000000000000000000600082015250565b7f416363657373436f6e74726f6c3a2063616e206f6e6c792072656e6f756e636560008201527f20726f6c657320666f722073656c660000000000000000000000000000000000602082015250565b7f616c7265616479206d696e746564000000000000000000000000000000000000600082015250565b613fb681613944565b8114613fc157600080fd5b50565b613fcd81613962565b8114613fd857600080fd5b50565b613fe48161396c565b8114613fef57600080fd5b50565b613ffb816139c6565b811461400657600080fd5b5056fea2646970667358221220359d5f693177544bcfc9a0462115e396846ca5de7a473cda230db014ca3ecefa64736f6c63430008040033",
  "linkReferences": {},
  "deployedLinkReferences": {}
}