{
  "_format": "hh-sol-artifact-1",
  "contractName": "SarauMaker",
  "sourceName": "contracts/SarauMaker.sol",
  "abi": [
    {
      "inputs": [
        {
          "internalType": "address",
          "name": "tokenImplementation_",
          "type": "address"
        },
        {
          "internalType": "bytes32",
          "name": "currency_",
          "type": "bytes32"
        }
      ],
      "stateMutability": "nonpayable",
      "type": "constructor"
    },
    {
      "anonymous": false,
      "inputs": [
        {
          "indexed": true,
          "internalType": "address",
          "name": "sender",
          "type": "address"
        },
        {
          "indexed": false,
          "internalType": "uint256",
          "name": "amount",
          "type": "uint256"
        }
      ],
      "name": "EtherFlushed",
      "type": "event"
    },
    {
      "anonymous": false,
      "inputs": [
        {
          "indexed": true,
          "internalType": "address",
          "name": "sender",
          "type": "address"
        },
        {
          "indexed": true,
          "internalType": "uint256",
          "name": "amount",
          "type": "uint256"
        }
      ],
      "name": "ReceivedEther",
      "type": "event"
    },
    {
      "anonymous": false,
      "inputs": [
        {
          "indexed": true,
          "internalType": "bytes32",
          "name": "role",
          "type": "bytes32"
        },
        {
          "indexed": true,
          "internalType": "bytes32",
          "name": "previousAdminRole",
          "type": "bytes32"
        },
        {
          "indexed": true,
          "internalType": "bytes32",
          "name": "newAdminRole",
          "type": "bytes32"
        }
      ],
      "name": "RoleAdminChanged",
      "type": "event"
    },
    {
      "anonymous": false,
      "inputs": [
        {
          "indexed": true,
          "internalType": "bytes32",
          "name": "role",
          "type": "bytes32"
        },
        {
          "indexed": true,
          "internalType": "address",
          "name": "account",
          "type": "address"
        },
        {
          "indexed": true,
          "internalType": "address",
          "name": "sender",
          "type": "address"
        }
      ],
      "name": "RoleGranted",
      "type": "event"
    },
    {
      "anonymous": false,
      "inputs": [
        {
          "indexed": true,
          "internalType": "bytes32",
          "name": "role",
          "type": "bytes32"
        },
        {
          "indexed": true,
          "internalType": "address",
          "name": "account",
          "type": "address"
        },
        {
          "indexed": true,
          "internalType": "address",
          "name": "sender",
          "type": "address"
        }
      ],
      "name": "RoleRevoked",
      "type": "event"
    },
    {
      "anonymous": false,
      "inputs": [
        {
          "indexed": true,
          "internalType": "address",
          "name": "owner",
          "type": "address"
        },
        {
          "indexed": true,
          "internalType": "uint256",
          "name": "id",
          "type": "uint256"
        }
      ],
      "name": "SarauCreated",
      "type": "event"
    },
    {
      "inputs": [],
      "name": "DEFAULT_ADMIN_ROLE",
      "outputs": [
        {
          "internalType": "bytes32",
          "name": "",
          "type": "bytes32"
        }
      ],
      "stateMutability": "view",
      "type": "function"
    },
    {
      "inputs": [
        {
          "internalType": "uint256",
          "name": "",
          "type": "uint256"
        },
        {
          "internalType": "address",
          "name": "",
          "type": "address"
        }
      ],
      "name": "addressToMints",
      "outputs": [
        {
          "internalType": "bool",
          "name": "",
          "type": "bool"
        }
      ],
      "stateMutability": "view",
      "type": "function"
    },
    {
      "inputs": [
        {
          "internalType": "uint256",
          "name": "maxMint_",
          "type": "uint256"
        },
        {
          "internalType": "uint256",
          "name": "startDate_",
          "type": "uint256"
        },
        {
          "internalType": "uint256",
          "name": "endDate_",
          "type": "uint256"
        },
        {
          "internalType": "string",
          "name": "uri_",
          "type": "string"
        },
        {
          "internalType": "string",
          "name": "homepage_",
          "type": "string"
        },
        {
          "internalType": "string",
          "name": "name",
          "type": "string"
        },
        {
          "internalType": "string",
          "name": "symbol",
          "type": "string"
        }
      ],
      "name": "createSarau",
      "outputs": [],
      "stateMutability": "payable",
      "type": "function"
    },
    {
      "inputs": [],
      "name": "creationEtherFee",
      "outputs": [
        {
          "internalType": "uint256",
          "name": "",
          "type": "uint256"
        }
      ],
      "stateMutability": "view",
      "type": "function"
    },
    {
      "inputs": [],
      "name": "creationUSDFee",
      "outputs": [
        {
          "internalType": "uint256",
          "name": "",
          "type": "uint256"
        }
      ],
      "stateMutability": "view",
      "type": "function"
    },
    {
      "inputs": [],
      "name": "currency",
      "outputs": [
        {
          "internalType": "bytes32",
          "name": "",
          "type": "bytes32"
        }
      ],
      "stateMutability": "view",
      "type": "function"
    },
    {
      "inputs": [],
      "name": "currentIndex",
      "outputs": [
        {
          "internalType": "uint256",
          "name": "",
          "type": "uint256"
        }
      ],
      "stateMutability": "view",
      "type": "function"
    },
    {
      "inputs": [
        {
          "internalType": "address",
          "name": "_to",
          "type": "address"
        }
      ],
      "name": "flushETH",
      "outputs": [],
      "stateMutability": "nonpayable",
      "type": "function"
    },
    {
      "inputs": [],
      "name": "getMaxBlockTimestampDelay",
      "outputs": [
        {
          "internalType": "uint256",
          "name": "",
          "type": "uint256"
        }
      ],
      "stateMutability": "view",
      "type": "function"
    },
    {
      "inputs": [],
      "name": "getMaxDataTimestampDelay",
      "outputs": [
        {
          "internalType": "uint256",
          "name": "",
          "type": "uint256"
        }
      ],
      "stateMutability": "view",
      "type": "function"
    },
    {
      "inputs": [
        {
          "internalType": "bytes32",
          "name": "role",
          "type": "bytes32"
        }
      ],
      "name": "getRoleAdmin",
      "outputs": [
        {
          "internalType": "bytes32",
          "name": "",
          "type": "bytes32"
        }
      ],
      "stateMutability": "view",
      "type": "function"
    },
    {
      "inputs": [
        {
          "internalType": "uint256",
          "name": "index_",
          "type": "uint256"
        }
      ],
      "name": "getSarau",
      "outputs": [
        {
          "components": [
            {
              "internalType": "address",
              "name": "owner",
              "type": "address"
            },
            {
              "internalType": "uint256",
              "name": "maxMint",
              "type": "uint256"
            },
            {
              "internalType": "uint256",
              "name": "minted",
              "type": "uint256"
            },
            {
              "internalType": "uint256",
              "name": "startDate",
              "type": "uint256"
            },
            {
              "internalType": "uint256",
              "name": "endDate",
              "type": "uint256"
            },
            {
              "internalType": "string",
              "name": "homepage",
              "type": "string"
            },
            {
              "internalType": "address",
              "name": "nft",
              "type": "address"
            }
          ],
          "internalType": "struct SarauMaker.SarauInfo",
          "name": "",
          "type": "tuple"
        }
      ],
      "stateMutability": "view",
      "type": "function"
    },
    {
      "inputs": [
        {
          "internalType": "bytes32",
          "name": "role",
          "type": "bytes32"
        },
        {
          "internalType": "address",
          "name": "account",
          "type": "address"
        }
      ],
      "name": "grantRole",
      "outputs": [],
      "stateMutability": "nonpayable",
      "type": "function"
    },
    {
      "inputs": [
        {
          "internalType": "bytes32",
          "name": "role",
          "type": "bytes32"
        },
        {
          "internalType": "address",
          "name": "account",
          "type": "address"
        }
      ],
      "name": "hasRole",
      "outputs": [
        {
          "internalType": "bool",
          "name": "",
          "type": "bool"
        }
      ],
      "stateMutability": "view",
      "type": "function"
    },
    {
      "inputs": [
        {
          "internalType": "address",
          "name": "_receivedSigner",
          "type": "address"
        }
      ],
      "name": "isSignerAuthorized",
      "outputs": [
        {
          "internalType": "bool",
          "name": "",
          "type": "bool"
        }
      ],
      "stateMutability": "view",
      "type": "function"
    },
    {
      "inputs": [
        {
          "internalType": "uint256",
          "name": "_receivedTimestamp",
          "type": "uint256"
        }
      ],
      "name": "isTimestampValid",
      "outputs": [
        {
          "internalType": "bool",
          "name": "",
          "type": "bool"
        }
      ],
      "stateMutability": "view",
      "type": "function"
    },
    {
      "inputs": [
        {
          "internalType": "uint256",
          "name": "index_",
          "type": "uint256"
        }
      ],
      "name": "mint",
      "outputs": [],
      "stateMutability": "nonpayable",
      "type": "function"
    },
    {
      "inputs": [],
      "name": "redstoneSigner",
      "outputs": [
        {
          "internalType": "address",
          "name": "",
          "type": "address"
        }
      ],
      "stateMutability": "view",
      "type": "function"
    },
    {
      "inputs": [
        {
          "internalType": "bytes32",
          "name": "role",
          "type": "bytes32"
        },
        {
          "internalType": "address",
          "name": "account",
          "type": "address"
        }
      ],
      "name": "renounceRole",
      "outputs": [],
      "stateMutability": "nonpayable",
      "type": "function"
    },
    {
      "inputs": [
        {
          "internalType": "bytes32",
          "name": "role",
          "type": "bytes32"
        },
        {
          "internalType": "address",
          "name": "account",
          "type": "address"
        }
      ],
      "name": "revokeRole",
      "outputs": [],
      "stateMutability": "nonpayable",
      "type": "function"
    },
    {
      "inputs": [
        {
          "internalType": "uint256",
          "name": "",
          "type": "uint256"
        }
      ],
      "name": "saraus",
      "outputs": [
        {
          "internalType": "address",
          "name": "owner",
          "type": "address"
        },
        {
          "internalType": "uint256",
          "name": "maxMint",
          "type": "uint256"
        },
        {
          "internalType": "uint256",
          "name": "minted",
          "type": "uint256"
        },
        {
          "internalType": "uint256",
          "name": "startDate",
          "type": "uint256"
        },
        {
          "internalType": "uint256",
          "name": "endDate",
          "type": "uint256"
        },
        {
          "internalType": "string",
          "name": "homepage",
          "type": "string"
        },
        {
          "internalType": "address",
          "name": "nft",
          "type": "address"
        }
      ],
      "stateMutability": "view",
      "type": "function"
    },
    {
      "inputs": [
        {
          "internalType": "uint256",
          "name": "creationFee_",
          "type": "uint256"
        }
      ],
      "name": "setCreationFee",
      "outputs": [],
      "stateMutability": "nonpayable",
      "type": "function"
    },
    {
      "inputs": [
        {
          "internalType": "address",
          "name": "redstoneSigner_",
          "type": "address"
        }
      ],
      "name": "setRedstoneSigner",
      "outputs": [],
      "stateMutability": "nonpayable",
      "type": "function"
    },
    {
      "inputs": [
        {
          "internalType": "bytes4",
          "name": "interfaceId",
          "type": "bytes4"
        }
      ],
      "name": "supportsInterface",
      "outputs": [
        {
          "internalType": "bool",
          "name": "",
          "type": "bool"
        }
      ],
      "stateMutability": "view",
      "type": "function"
    },
    {
      "inputs": [],
      "name": "tokenImplementation",
      "outputs": [
        {
          "internalType": "address",
          "name": "",
          "type": "address"
        }
      ],
      "stateMutability": "view",
      "type": "function"
    },
    {
      "stateMutability": "payable",
      "type": "receive"
    }
  ],
  "bytecode": "0x60c06040523480156200001157600080fd5b5060405162003ca938038062003ca9833981810160405281019062000037919062000233565b8173ffffffffffffffffffffffffffffffffffffffff1660808173ffffffffffffffffffffffffffffffffffffffff1660601b815250508060a081815250506200009a6000801b6200008e620000a260201b60201c565b620000aa60201b60201c565b5050620002e6565b600033905090565b620000bc82826200019b60201b60201c565b6200019757600160008084815260200190815260200160002060000160008373ffffffffffffffffffffffffffffffffffffffff1673ffffffffffffffffffffffffffffffffffffffff16815260200190815260200160002060006101000a81548160ff0219169083151502179055506200013c620000a260201b60201c565b73ffffffffffffffffffffffffffffffffffffffff168173ffffffffffffffffffffffffffffffffffffffff16837f2f8788117e7eff1d82e926ec794901d17c78024a50270940304540a733656f0d60405160405180910390a45b5050565b600080600084815260200190815260200160002060000160008373ffffffffffffffffffffffffffffffffffffffff1673ffffffffffffffffffffffffffffffffffffffff16815260200190815260200160002060009054906101000a900460ff16905092915050565b6000815190506200021681620002b2565b92915050565b6000815190506200022d81620002cc565b92915050565b600080604083850312156200024757600080fd5b6000620002578582860162000205565b92505060206200026a858286016200021c565b9150509250929050565b6000620002818262000292565b9050919050565b6000819050919050565b600073ffffffffffffffffffffffffffffffffffffffff82169050919050565b620002bd8162000274565b8114620002c957600080fd5b50565b620002d78162000288565b8114620002e357600080fd5b50565b60805160601c60a05161398c6200031d60003960008181610cf6015261144e0152600081816107f80152610cca015261398c6000f3fe60806040526004361061016a5760003560e01c80635335b6af116100d1578063b7d862251161008a578063e5a6b10f11610064578063e5a6b10f146105aa578063f31a210a146105d5578063f77b407b14610600578063f84f459c1461063d576101b5565b8063b7d862251461052f578063d547741f14610558578063dc42688114610581576101b5565b80635335b6af146103f357806370e373251461041e578063750582051461046157806391d148541461049e578063a0712d68146104db578063a217fddf14610504576101b5565b80632f2ff15d116101235780632f2ff15d146102f55780632f3a3d5d1461031e57806330a7b1f51461034957806336568abe1461037457806342ba9bb31461039d5780635118af5a146103c8576101b5565b806301ffc9a7146101ba578063071054bd146101f757806311c89b101461021357806314ebbef514610250578063248a9ca31461028d57806326987b60146102ca576101b5565b366101b557343373ffffffffffffffffffffffffffffffffffffffff167fa419615bc8fda4c87663805ee2a3597a6d71c1d476911d9892f340d965bc7bf160405160405180910390a3005b600080fd5b3480156101c657600080fd5b506101e160048036038101906101dc91906125d8565b610666565b6040516101ee9190612d55565b60405180910390f35b610211600480360381019061020c9190612666565b6106e0565b005b34801561021f57600080fd5b5061023a6004803603810190610235919061254a565b610a95565b6040516102479190612d55565b60405180910390f35b34801561025c57600080fd5b5061027760048036038101906102729190612601565b610aef565b60405161028491906130a4565b60405180910390f35b34801561029957600080fd5b506102b460048036038101906102af9190612573565b610c82565b6040516102c19190612d70565b60405180910390f35b3480156102d657600080fd5b506102df610ca1565b6040516102ec91906130c6565b60405180910390f35b34801561030157600080fd5b5061031c6004803603810190610317919061259c565b610ca7565b005b34801561032a57600080fd5b50610333610cc8565b6040516103409190612cc4565b60405180910390f35b34801561035557600080fd5b5061035e610cec565b60405161036b91906130c6565b60405180910390f35b34801561038057600080fd5b5061039b6004803603810190610396919061259c565b610d29565b005b3480156103a957600080fd5b506103b2610dac565b6040516103bf9190612cc4565b60405180910390f35b3480156103d457600080fd5b506103dd610dd2565b6040516103ea91906130c6565b60405180910390f35b3480156103ff57600080fd5b50610408610ddb565b60405161041591906130c6565b60405180910390f35b34801561042a57600080fd5b5061044560048036038101906104409190612601565b610de1565b6040516104589796959493929190612cdf565b60405180910390f35b34801561046d57600080fd5b5061048860048036038101906104839190612601565b610eeb565b6040516104959190612d55565b60405180910390f35b3480156104aa57600080fd5b506104c560048036038101906104c0919061259c565b610f67565b6040516104d29190612d55565b60405180910390f35b3480156104e757600080fd5b5061050260048036038101906104fd9190612601565b610fd1565b005b34801561051057600080fd5b506105196112a6565b6040516105269190612d70565b60405180910390f35b34801561053b57600080fd5b5061055660048036038101906105519190612601565b6112ad565b005b34801561056457600080fd5b5061057f600480360381019061057a919061259c565b6112c5565b005b34801561058d57600080fd5b506105a860048036038101906105a3919061254a565b6112e6565b005b3480156105b657600080fd5b506105bf61144c565b6040516105cc9190612d70565b60405180910390f35b3480156105e157600080fd5b506105ea611470565b6040516105f791906130c6565b60405180910390f35b34801561060c57600080fd5b506106276004803603810190610622919061262a565b611479565b6040516106349190612d55565b60405180910390f35b34801561064957600080fd5b50610664600480360381019061065f919061254a565b6114a8565b005b60007f7965db0b000000000000000000000000000000000000000000000000000000007bffffffffffffffffffffffffffffffffffffffffffffffffffffffff1916827bffffffffffffffffffffffffffffffffffffffffffffffffffffffff191614806106d957506106d8826114fa565b5b9050919050565b60008a11610723576040517f08c379a000000000000000000000000000000000000000000000000000000000815260040161071a90612ec4565b60405180910390fd5b60008911610766576040517f08c379a000000000000000000000000000000000000000000000000000000000815260040161075d90613024565b60405180910390fd5b8989116107a8576040517f08c379a000000000000000000000000000000000000000000000000000000000815260040161079f90612f24565b60405180910390fd5b6107b0610cec565b34146107f1576040517f08c379a00000000000000000000000000000000000000000000000000000000081526004016107e890612ee4565b60405180910390fd5b600061081c7f0000000000000000000000000000000000000000000000000000000000000000611564565b90508073ffffffffffffffffffffffffffffffffffffffff1663a6487c53868686868e8e6040518763ffffffff1660e01b815260040161086196959493929190612dd0565b600060405180830381600087803b15801561087b57600080fd5b505af115801561088f573d6000803e3d6000fd5b505050506040518060e001604052806108a6611639565b73ffffffffffffffffffffffffffffffffffffffff1681526020018d8152602001600081526020018c81526020018b815260200188888080601f016020809104026020016040519081016040528093929190818152602001838380828437600081840152601f19601f8201169050808301925050505050505081526020018273ffffffffffffffffffffffffffffffffffffffff1681525060036000600154815260200190815260200160002060008201518160000160006101000a81548173ffffffffffffffffffffffffffffffffffffffff021916908373ffffffffffffffffffffffffffffffffffffffff1602179055506020820151816001015560408201518160020155606082015181600301556080820151816004015560a08201518160050190805190602001906109de9291906123a0565b5060c08201518160060160006101000a81548173ffffffffffffffffffffffffffffffffffffffff021916908373ffffffffffffffffffffffffffffffffffffffff16021790555090505060016000815480929190610a3c906133a8565b91905055506001548173ffffffffffffffffffffffffffffffffffffffff167fac100e67e29f770c65d8049cdf0b746851e89c395ca9d80fcbaaebc0d38cf65e60405160405180910390a3505050505050505050505050565b6000600560009054906101000a900473ffffffffffffffffffffffffffffffffffffffff1673ffffffffffffffffffffffffffffffffffffffff168273ffffffffffffffffffffffffffffffffffffffff16149050919050565b610af7612426565b600360008381526020019081526020016000206040518060e00160405290816000820160009054906101000a900473ffffffffffffffffffffffffffffffffffffffff1673ffffffffffffffffffffffffffffffffffffffff1673ffffffffffffffffffffffffffffffffffffffff16815260200160018201548152602001600282015481526020016003820154815260200160048201548152602001600582018054610ba390613376565b80601f0160208091040260200160405190810160405280929190818152602001828054610bcf90613376565b8015610c1c5780601f10610bf157610100808354040283529160200191610c1c565b820191906000526020600020905b815481529060010190602001808311610bff57829003601f168201915b505050505081526020016006820160009054906101000a900473ffffffffffffffffffffffffffffffffffffffff1673ffffffffffffffffffffffffffffffffffffffff1673ffffffffffffffffffffffffffffffffffffffff16815250509050919050565b6000806000838152602001908152602001600020600101549050919050565b60015481565b610cb082610c82565b610cb981611641565b610cc38383611655565b505050565b7f000000000000000000000000000000000000000000000000000000000000000081565b6000600254610d1a7f0000000000000000000000000000000000000000000000000000000000000000611735565b610d2491906131e3565b905090565b610d31611639565b73ffffffffffffffffffffffffffffffffffffffff168173ffffffffffffffffffffffffffffffffffffffff1614610d9e576040517f08c379a0000000000000000000000000000000000000000000000000000000008152600401610d9590613064565b60405180910390fd5b610da88282611843565b5050565b600560009054906101000a900473ffffffffffffffffffffffffffffffffffffffff1681565b6000600f905090565b60025481565b60036020528060005260406000206000915090508060000160009054906101000a900473ffffffffffffffffffffffffffffffffffffffff1690806001015490806002015490806003015490806004015490806005018054610e4290613376565b80601f0160208091040260200160405190810160405280929190818152602001828054610e6e90613376565b8015610ebb5780601f10610e9057610100808354040283529160200191610ebb565b820191906000526020600020905b815481529060010190602001808311610e9e57829003601f168201915b5050505050908060060160009054906101000a900473ffffffffffffffffffffffffffffffffffffffff16905087565b600081610ef6610dd2565b42610f019190613151565b11610f41576040517f08c379a0000000000000000000000000000000000000000000000000000000008152600401610f3890613044565b60405180910390fd5b81421080610f605750610f52611470565b8242610f5e919061323d565b105b9050919050565b600080600084815260200190815260200160002060000160008373ffffffffffffffffffffffffffffffffffffffff1673ffffffffffffffffffffffffffffffffffffffff16815260200190815260200160002060009054906101000a900460ff16905092915050565b600360008281526020019081526020016000206002015460036000838152602001908152602001600020600101541161103f576040517f08c379a000000000000000000000000000000000000000000000000000000000815260040161103690612f84565b60405180910390fd5b6003600082815260200190815260200160002060030154421015801561107b575060036000828152602001908152602001600020600401544211155b6110ba576040517f08c379a00000000000000000000000000000000000000000000000000000000081526004016110b190613004565b60405180910390fd5b6004600082815260200190815260200160002060006110d7611639565b73ffffffffffffffffffffffffffffffffffffffff1673ffffffffffffffffffffffffffffffffffffffff16815260200190815260200160002060009054906101000a900460ff161561115f576040517f08c379a000000000000000000000000000000000000000000000000000000000815260040161115690613084565b60405180910390fd5b600160046000838152602001908152602001600020600061117e611639565b73ffffffffffffffffffffffffffffffffffffffff1673ffffffffffffffffffffffffffffffffffffffff16815260200190815260200160002060006101000a81548160ff0219169083151502179055506003600082815260200190815260200160002060020160008154809291906111f6906133a8565b91905055506003600082815260200190815260200160002060060160009054906101000a900473ffffffffffffffffffffffffffffffffffffffff1673ffffffffffffffffffffffffffffffffffffffff16636a627842611255611639565b6040518263ffffffff1660e01b81526004016112719190612cc4565b600060405180830381600087803b15801561128b57600080fd5b505af115801561129f573d6000803e3d6000fd5b5050505050565b6000801b81565b6000801b6112ba81611641565b816002819055505050565b6112ce82610c82565b6112d781611641565b6112e18383611843565b505050565b6000801b6112f381611641565b600073ffffffffffffffffffffffffffffffffffffffff168273ffffffffffffffffffffffffffffffffffffffff161415611363576040517f08c379a000000000000000000000000000000000000000000000000000000000815260040161135a90612fa4565b60405180910390fd5b6000479050600081116113ab576040517f08c379a00000000000000000000000000000000000000000000000000000000081526004016113a290612fe4565b60405180910390fd5b8273ffffffffffffffffffffffffffffffffffffffff166108fc829081150290604051600060405180830381858888f193505050501580156113f1573d6000803e3d6000fd5b506113fa611639565b73ffffffffffffffffffffffffffffffffffffffff167f7e8bfbce8498a152a0bedcf83edec38ffb0a13b19a197cb7c2686fc6371013ab8260405161143f91906130c6565b60405180910390a2505050565b7f000000000000000000000000000000000000000000000000000000000000000081565b600060b4905090565b60046020528160005260406000206020528060005260406000206000915091509054906101000a900460ff1681565b6000801b6114b581611641565b81600560006101000a81548173ffffffffffffffffffffffffffffffffffffffff021916908373ffffffffffffffffffffffffffffffffffffffff1602179055505050565b60007f01ffc9a7000000000000000000000000000000000000000000000000000000007bffffffffffffffffffffffffffffffffffffffffffffffffffffffff1916827bffffffffffffffffffffffffffffffffffffffffffffffffffffffff1916149050919050565b60006040517f3d602d80600a3d3981f3363d3d373d3d3d363d7300000000000000000000000081528260601b60148201527f5af43d82803e903d91602b57fd5bf3000000000000000000000000000000000060288201526037816000f0915050600073ffffffffffffffffffffffffffffffffffffffff168173ffffffffffffffffffffffffffffffffffffffff161415611634576040517f08c379a000000000000000000000000000000000000000000000000000000000815260040161162b90612f64565b60405180910390fd5b919050565b600033905090565b6116528161164d611639565b611924565b50565b61165f8282610f67565b61173157600160008084815260200190815260200160002060000160008373ffffffffffffffffffffffffffffffffffffffff1673ffffffffffffffffffffffffffffffffffffffff16815260200190815260200160002060006101000a81548160ff0219169083151502179055506116d6611639565b73ffffffffffffffffffffffffffffffffffffffff168173ffffffffffffffffffffffffffffffffffffffff16837f2f8788117e7eff1d82e926ec794901d17c78024a50270940304540a733656f0d60405160405180910390a45b5050565b600080600167ffffffffffffffff811115611779577f4e487b7100000000000000000000000000000000000000000000000000000000600052604160045260246000fd5b6040519080825280602002602001820160405280156117a75781602001602082028036833780820191505090505b50905082816000815181106117e5577f4e487b7100000000000000000000000000000000000000000000000000000000600052603260045260246000fd5b6020026020010181815250506117fa816119c1565b600081518110611833577f4e487b7100000000000000000000000000000000000000000000000000000000600052603260045260246000fd5b6020026020010151915050919050565b61184d8282610f67565b1561192057600080600084815260200190815260200160002060000160008373ffffffffffffffffffffffffffffffffffffffff1673ffffffffffffffffffffffffffffffffffffffff16815260200190815260200160002060006101000a81548160ff0219169083151502179055506118c5611639565b73ffffffffffffffffffffffffffffffffffffffff168173ffffffffffffffffffffffffffffffffffffffff16837ff6391f5c32d9c69d2a47ea670b442974b53935d1edc7fd64eb21e047a839171b60405160405180910390a45b5050565b61192e8282610f67565b6119bd576119538173ffffffffffffffffffffffffffffffffffffffff166014611b29565b6119618360001c6020611b29565b604051602001611972929190612c8a565b6040516020818303038152906040526040517f08c379a00000000000000000000000000000000000000000000000000000000081526004016119b49190612e22565b60405180910390fd5b5050565b60606000606136033590506000602060408360ff166119e091906131a7565b6119ea9190613119565b90506060604051905081815281604283013603602083013760208101604052600081805190602001209050600081604051602001611a289190612c64565b604051602081830303815290604052805190602001209050606060405190506041815260418036036020830137602081016040526000611a718284611e2390919063ffffffff16565b9050611a7c81610a95565b611abb576040517f08c379a0000000000000000000000000000000000000000000000000000000008152600401611ab290612f04565b60405180910390fd5b600060623603359050611acd81610eeb565b611b0c576040517f08c379a0000000000000000000000000000000000000000000000000000000008152600401611b0390612ea4565b60405180910390fd5b611b1a8a8960ff1689611e4a565b98505050505050505050919050565b606060006002836002611b3c91906131e3565b611b469190613151565b67ffffffffffffffff811115611b85577f4e487b7100000000000000000000000000000000000000000000000000000000600052604160045260246000fd5b6040519080825280601f01601f191660200182016040528015611bb75781602001600182028036833780820191505090505b5090507f300000000000000000000000000000000000000000000000000000000000000081600081518110611c15577f4e487b7100000000000000000000000000000000000000000000000000000000600052603260045260246000fd5b60200101907effffffffffffffffffffffffffffffffffffffffffffffffffffffffffffff1916908160001a9053507f780000000000000000000000000000000000000000000000000000000000000081600181518110611c9f577f4e487b7100000000000000000000000000000000000000000000000000000000600052603260045260246000fd5b60200101907effffffffffffffffffffffffffffffffffffffffffffffffffffffffffffff1916908160001a90535060006001846002611cdf91906131e3565b611ce99190613151565b90505b6001811115611dd5577f3031323334353637383961626364656600000000000000000000000000000000600f861660108110611d51577f4e487b7100000000000000000000000000000000000000000000000000000000600052603260045260246000fd5b1a60f81b828281518110611d8e577f4e487b7100000000000000000000000000000000000000000000000000000000600052603260045260246000fd5b60200101907effffffffffffffffffffffffffffffffffffffffffffffffffffffffffffff1916908160001a905350600485901c945080611dce9061334c565b9050611cec565b5060008414611e19576040517f08c379a0000000000000000000000000000000000000000000000000000000008152600401611e1090612e64565b60405180910390fd5b8091505092915050565b6000806000611e328585611ef0565b91509150611e3f81611f42565b819250505092915050565b6060806000806000806042870136035995508951865260208a51026020870101604052600094505b8951851015611ee0576020850260208b0101519150600093505b88841015611ed55781604085028201351415611ebd5760206040850282010135602086026020880101526001830192505b8951831415611eca578894505b600184019350611e8c565b600185019450611e72565b5084955050505050509392505050565b600080604183511415611f325760008060006020860151925060408601519150606086015160001a9050611f2687828585612293565b94509450505050611f3b565b60006002915091505b9250929050565b60006004811115611f7c577f4e487b7100000000000000000000000000000000000000000000000000000000600052602160045260246000fd5b816004811115611fb5577f4e487b7100000000000000000000000000000000000000000000000000000000600052602160045260246000fd5b1415611fc057612290565b60016004811115611ffa577f4e487b7100000000000000000000000000000000000000000000000000000000600052602160045260246000fd5b816004811115612033577f4e487b7100000000000000000000000000000000000000000000000000000000600052602160045260246000fd5b1415612074576040517f08c379a000000000000000000000000000000000000000000000000000000000815260040161206b90612e44565b60405180910390fd5b600260048111156120ae577f4e487b7100000000000000000000000000000000000000000000000000000000600052602160045260246000fd5b8160048111156120e7577f4e487b7100000000000000000000000000000000000000000000000000000000600052602160045260246000fd5b1415612128576040517f08c379a000000000000000000000000000000000000000000000000000000000815260040161211f90612e84565b60405180910390fd5b60036004811115612162577f4e487b7100000000000000000000000000000000000000000000000000000000600052602160045260246000fd5b81600481111561219b577f4e487b7100000000000000000000000000000000000000000000000000000000600052602160045260246000fd5b14156121dc576040517f08c379a00000000000000000000000000000000000000000000000000000000081526004016121d390612f44565b60405180910390fd5b600480811115612215577f4e487b7100000000000000000000000000000000000000000000000000000000600052602160045260246000fd5b81600481111561224e577f4e487b7100000000000000000000000000000000000000000000000000000000600052602160045260246000fd5b141561228f576040517f08c379a000000000000000000000000000000000000000000000000000000000815260040161228690612fc4565b60405180910390fd5b5b50565b6000807f7fffffffffffffffffffffffffffffff5d576e7357a4501ddfe92f46681b20a08360001c11156122ce576000600391509150612397565b601b8560ff16141580156122e65750601c8560ff1614155b156122f8576000600491509150612397565b60006001878787876040516000815260200160405260405161231d9493929190612d8b565b6020604051602081039080840390855afa15801561233f573d6000803e3d6000fd5b505050602060405103519050600073ffffffffffffffffffffffffffffffffffffffff168173ffffffffffffffffffffffffffffffffffffffff16141561238e57600060019250925050612397565b80600092509250505b94509492505050565b8280546123ac90613376565b90600052602060002090601f0160209004810192826123ce5760008555612415565b82601f106123e757805160ff1916838001178555612415565b82800160010185558215612415579182015b828111156124145782518255916020019190600101906123f9565b5b509050612422919061248f565b5090565b6040518060e00160405280600073ffffffffffffffffffffffffffffffffffffffff1681526020016000815260200160008152602001600081526020016000815260200160608152602001600073ffffffffffffffffffffffffffffffffffffffff1681525090565b5b808211156124a8576000816000905550600101612490565b5090565b6000813590506124bb816138fa565b92915050565b6000813590506124d081613911565b92915050565b6000813590506124e581613928565b92915050565b60008083601f8401126124fd57600080fd5b8235905067ffffffffffffffff81111561251657600080fd5b60208301915083600182028301111561252e57600080fd5b9250929050565b6000813590506125448161393f565b92915050565b60006020828403121561255c57600080fd5b600061256a848285016124ac565b91505092915050565b60006020828403121561258557600080fd5b6000612593848285016124c1565b91505092915050565b600080604083850312156125af57600080fd5b60006125bd858286016124c1565b92505060206125ce858286016124ac565b9150509250929050565b6000602082840312156125ea57600080fd5b60006125f8848285016124d6565b91505092915050565b60006020828403121561261357600080fd5b600061262184828501612535565b91505092915050565b6000806040838503121561263d57600080fd5b600061264b85828601612535565b925050602061265c858286016124ac565b9150509250929050565b600080600080600080600080600080600060e08c8e03121561268757600080fd5b60006126958e828f01612535565b9b505060206126a68e828f01612535565b9a505060406126b78e828f01612535565b99505060608c013567ffffffffffffffff8111156126d457600080fd5b6126e08e828f016124eb565b985098505060808c013567ffffffffffffffff8111156126ff57600080fd5b61270b8e828f016124eb565b965096505060a08c013567ffffffffffffffff81111561272a57600080fd5b6127368e828f016124eb565b945094505060c08c013567ffffffffffffffff81111561275557600080fd5b6127618e828f016124eb565b92509250509295989b509295989b9093969950565b61277f81613271565b82525050565b61278e81613271565b82525050565b61279d81613283565b82525050565b6127ac8161328f565b82525050565b6127c36127be8261328f565b6133f1565b82525050565b60006127d583856130fd565b93506127e283858461330a565b6127eb83613459565b840190509392505050565b6000612801826130e1565b61280b81856130ec565b935061281b818560208601613319565b61282481613459565b840191505092915050565b600061283a826130e1565b61284481856130fd565b9350612854818560208601613319565b61285d81613459565b840191505092915050565b6000612873826130e1565b61287d818561310e565b935061288d818560208601613319565b80840191505092915050565b60006128a66018836130fd565b91506128b18261346a565b602082019050919050565b60006128c96020836130fd565b91506128d482613493565b602082019050919050565b60006128ec601f836130fd565b91506128f7826134bc565b602082019050919050565b600061290f601c8361310e565b915061291a826134e5565b601c82019050919050565b60006129326019836130fd565b915061293d8261350e565b602082019050919050565b60006129556024836130fd565b915061296082613537565b604082019050919050565b6000612978600d836130fd565b915061298382613586565b602082019050919050565b600061299b6015836130fd565b91506129a6826135af565b602082019050919050565b60006129be6028836130fd565b91506129c9826135d8565b604082019050919050565b60006129e16022836130fd565b91506129ec82613627565b604082019050919050565b6000612a046016836130fd565b9150612a0f82613676565b602082019050919050565b6000612a276010836130fd565b9150612a328261369f565b602082019050919050565b6000612a4a601f836130fd565b9150612a55826136c8565b602082019050919050565b6000612a6d6022836130fd565b9150612a78826136f1565b604082019050919050565b6000612a906014836130fd565b9150612a9b82613740565b602082019050919050565b6000612ab36013836130fd565b9150612abe82613769565b602082019050919050565b6000612ad66022836130fd565b9150612ae182613792565b604082019050919050565b6000612af9602a836130fd565b9150612b04826137e1565b604082019050919050565b6000612b1c60178361310e565b9150612b2782613830565b601782019050919050565b6000612b3f60118361310e565b9150612b4a82613859565b601182019050919050565b6000612b62602f836130fd565b9150612b6d82613882565b604082019050919050565b6000612b85600e836130fd565b9150612b90826138d1565b602082019050919050565b600060e083016000830151612bb36000860182612776565b506020830151612bc66020860182612c37565b506040830151612bd96040860182612c37565b506060830151612bec6060860182612c37565b506080830151612bff6080860182612c37565b5060a083015184820360a0860152612c1782826127f6565b91505060c0830151612c2c60c0860182612776565b508091505092915050565b612c40816132f3565b82525050565b612c4f816132f3565b82525050565b612c5e816132fd565b82525050565b6000612c6f82612902565b9150612c7b82846127b2565b60208201915081905092915050565b6000612c9582612b0f565b9150612ca18285612868565b9150612cac82612b32565b9150612cb88284612868565b91508190509392505050565b6000602082019050612cd96000830184612785565b92915050565b600060e082019050612cf4600083018a612785565b612d016020830189612c46565b612d0e6040830188612c46565b612d1b6060830187612c46565b612d286080830186612c46565b81810360a0830152612d3a818561282f565b9050612d4960c0830184612785565b98975050505050505050565b6000602082019050612d6a6000830184612794565b92915050565b6000602082019050612d8560008301846127a3565b92915050565b6000608082019050612da060008301876127a3565b612dad6020830186612c55565b612dba60408301856127a3565b612dc760608301846127a3565b95945050505050565b60006060820190508181036000830152612deb81888a6127c9565b90508181036020830152612e008186886127c9565b90508181036040830152612e158184866127c9565b9050979650505050505050565b60006020820190508181036000830152612e3c818461282f565b905092915050565b60006020820190508181036000830152612e5d81612899565b9050919050565b60006020820190508181036000830152612e7d816128bc565b9050919050565b60006020820190508181036000830152612e9d816128df565b9050919050565b60006020820190508181036000830152612ebd81612925565b9050919050565b60006020820190508181036000830152612edd81612948565b9050919050565b60006020820190508181036000830152612efd8161296b565b9050919050565b60006020820190508181036000830152612f1d8161298e565b9050919050565b60006020820190508181036000830152612f3d816129b1565b9050919050565b60006020820190508181036000830152612f5d816129d4565b9050919050565b60006020820190508181036000830152612f7d816129f7565b9050919050565b60006020820190508181036000830152612f9d81612a1a565b9050919050565b60006020820190508181036000830152612fbd81612a3d565b9050919050565b60006020820190508181036000830152612fdd81612a60565b9050919050565b60006020820190508181036000830152612ffd81612a83565b9050919050565b6000602082019050818103600083015261301d81612aa6565b9050919050565b6000602082019050818103600083015261303d81612ac9565b9050919050565b6000602082019050818103600083015261305d81612aec565b9050919050565b6000602082019050818103600083015261307d81612b55565b9050919050565b6000602082019050818103600083015261309d81612b78565b9050919050565b600060208201905081810360008301526130be8184612b9b565b905092915050565b60006020820190506130db6000830184612c46565b92915050565b600081519050919050565b600082825260208201905092915050565b600082825260208201905092915050565b600081905092915050565b6000613124826132c5565b915061312f836132c5565b92508261ffff03821115613146576131456133fb565b5b828201905092915050565b600061315c826132f3565b9150613167836132f3565b9250827fffffffffffffffffffffffffffffffffffffffffffffffffffffffffffffffff0382111561319c5761319b6133fb565b5b828201905092915050565b60006131b2826132c5565b91506131bd836132c5565b92508161ffff04831182151516156131d8576131d76133fb565b5b828202905092915050565b60006131ee826132f3565b91506131f9836132f3565b9250817fffffffffffffffffffffffffffffffffffffffffffffffffffffffffffffffff0483118215151615613232576132316133fb565b5b828202905092915050565b6000613248826132f3565b9150613253836132f3565b925082821015613266576132656133fb565b5b828203905092915050565b600061327c826132d3565b9050919050565b60008115159050919050565b6000819050919050565b60007fffffffff0000000000000000000000000000000000000000000000000000000082169050919050565b600061ffff82169050919050565b600073ffffffffffffffffffffffffffffffffffffffff82169050919050565b6000819050919050565b600060ff82169050919050565b82818337600083830152505050565b60005b8381101561333757808201518184015260208101905061331c565b83811115613346576000848401525b50505050565b6000613357826132f3565b9150600082141561336b5761336a6133fb565b5b600182039050919050565b6000600282049050600182168061338e57607f821691505b602082108114156133a2576133a161342a565b5b50919050565b60006133b3826132f3565b91507fffffffffffffffffffffffffffffffffffffffffffffffffffffffffffffffff8214156133e6576133e56133fb565b5b600182019050919050565b6000819050919050565b7f4e487b7100000000000000000000000000000000000000000000000000000000600052601160045260246000fd5b7f4e487b7100000000000000000000000000000000000000000000000000000000600052602260045260246000fd5b6000601f19601f8301169050919050565b7f45434453413a20696e76616c6964207369676e61747572650000000000000000600082015250565b7f537472696e67733a20686578206c656e67746820696e73756666696369656e74600082015250565b7f45434453413a20696e76616c6964207369676e6174757265206c656e67746800600082015250565b7f19457468657265756d205369676e6564204d6573736167653a0a333200000000600082015250565b7f446174612074696d657374616d7020697320696e76616c696400000000000000600082015250565b7f7374617274446174655f206d7573742062652067726561746572207468616e2060008201527f7a65726f00000000000000000000000000000000000000000000000000000000602082015250565b7f696e636f72726563742066656500000000000000000000000000000000000000600082015250565b7f5369676e6572206e6f7420617574686f72697a65640000000000000000000000600082015250565b7f656e64446174655f206d7573742062652067726561746572207468616e20737460008201527f617274446174655f000000000000000000000000000000000000000000000000602082015250565b7f45434453413a20696e76616c6964207369676e6174757265202773272076616c60008201527f7565000000000000000000000000000000000000000000000000000000000000602082015250565b7f455243313136373a20637265617465206661696c656400000000000000000000600082015250565b7f6d6178206d696e74207265616368656400000000000000000000000000000000600082015250565b7f43414e4e4f5420574954484452415720544f205a45524f204144445245535300600082015250565b7f45434453413a20696e76616c6964207369676e6174757265202776272076616c60008201527f7565000000000000000000000000000000000000000000000000000000000000602082015250565b7f4e4f20455448455220544f205749544844524157000000000000000000000000600082015250565b7f6f757473696465206d696e742077696e646f7700000000000000000000000000600082015250565b7f656e64446174655f206d7573742062652067726561746572207468616e207a6560008201527f726f000000000000000000000000000000000000000000000000000000000000602082015250565b7f446174612077697468206675747572652074696d657374616d7073206973206e60008201527f6f7420616c6c6f77656400000000000000000000000000000000000000000000602082015250565b7f416363657373436f6e74726f6c3a206163636f756e7420000000000000000000600082015250565b7f206973206d697373696e6720726f6c6520000000000000000000000000000000600082015250565b7f416363657373436f6e74726f6c3a2063616e206f6e6c792072656e6f756e636560008201527f20726f6c657320666f722073656c660000000000000000000000000000000000602082015250565b7f616c7265616479206d696e746564000000000000000000000000000000000000600082015250565b61390381613271565b811461390e57600080fd5b50565b61391a8161328f565b811461392557600080fd5b50565b61393181613299565b811461393c57600080fd5b50565b613948816132f3565b811461395357600080fd5b5056fea2646970667358221220602a8122f2f88a2b53cdffaa365572970a83cefb3973d9db1f899a0990f725ad64736f6c63430008040033",
  "linkReferences": {},
  "deployedLinkReferences": {}
}