{
  "_format": "hh-sol-artifact-1",
  "contractName": "SarauMaker",
  "sourceName": "contracts/SarauMaker.sol",
  "abi": [
    {
      "inputs": [
        {
          "internalType": "address",
          "name": "nftImplementation_",
          "type": "address"
        },
        {
          "internalType": "bytes32",
          "name": "currency_",
          "type": "bytes32"
        },
        {
          "internalType": "uint256",
          "name": "redstoneDecimals_",
          "type": "uint256"
        }
      ],
      "stateMutability": "nonpayable",
      "type": "constructor"
    },
    {
      "anonymous": false,
      "inputs": [
        {
          "indexed": true,
          "internalType": "uint256",
          "name": "fee",
          "type": "uint256"
        }
      ],
      "name": "CreationUSDFeeChanged",
      "type": "event"
    },
    {
      "anonymous": false,
      "inputs": [
        {
          "indexed": true,
          "internalType": "address",
          "name": "sender",
          "type": "address"
        },
        {
          "indexed": false,
          "internalType": "uint256",
          "name": "amount",
          "type": "uint256"
        }
      ],
      "name": "EtherFlushed",
      "type": "event"
    },
    {
      "anonymous": false,
      "inputs": [
        {
          "indexed": true,
          "internalType": "address",
          "name": "sender",
          "type": "address"
        },
        {
          "indexed": true,
          "internalType": "uint256",
          "name": "amount",
          "type": "uint256"
        }
      ],
      "name": "ReceivedEther",
      "type": "event"
    },
    {
      "anonymous": false,
      "inputs": [
        {
          "indexed": false,
          "internalType": "uint256",
          "name": "decimals",
          "type": "uint256"
        }
      ],
      "name": "RedstoneDecimalsChanged",
      "type": "event"
    },
    {
      "anonymous": false,
      "inputs": [
        {
          "indexed": false,
          "internalType": "address",
          "name": "signer",
          "type": "address"
        }
      ],
      "name": "RedstoneSignerChanged",
      "type": "event"
    },
    {
      "anonymous": false,
      "inputs": [
        {
          "indexed": true,
          "internalType": "bytes32",
          "name": "role",
          "type": "bytes32"
        },
        {
          "indexed": true,
          "internalType": "bytes32",
          "name": "previousAdminRole",
          "type": "bytes32"
        },
        {
          "indexed": true,
          "internalType": "bytes32",
          "name": "newAdminRole",
          "type": "bytes32"
        }
      ],
      "name": "RoleAdminChanged",
      "type": "event"
    },
    {
      "anonymous": false,
      "inputs": [
        {
          "indexed": true,
          "internalType": "bytes32",
          "name": "role",
          "type": "bytes32"
        },
        {
          "indexed": true,
          "internalType": "address",
          "name": "account",
          "type": "address"
        },
        {
          "indexed": true,
          "internalType": "address",
          "name": "sender",
          "type": "address"
        }
      ],
      "name": "RoleGranted",
      "type": "event"
    },
    {
      "anonymous": false,
      "inputs": [
        {
          "indexed": true,
          "internalType": "bytes32",
          "name": "role",
          "type": "bytes32"
        },
        {
          "indexed": true,
          "internalType": "address",
          "name": "account",
          "type": "address"
        },
        {
          "indexed": true,
          "internalType": "address",
          "name": "sender",
          "type": "address"
        }
      ],
      "name": "RoleRevoked",
      "type": "event"
    },
    {
      "inputs": [],
      "name": "CURRENCY",
      "outputs": [
        {
          "internalType": "bytes32",
          "name": "",
          "type": "bytes32"
        }
      ],
      "stateMutability": "view",
      "type": "function"
    },
    {
      "inputs": [],
      "name": "DEFAULT_ADMIN_ROLE",
      "outputs": [
        {
          "internalType": "bytes32",
          "name": "",
          "type": "bytes32"
        }
      ],
      "stateMutability": "view",
      "type": "function"
    },
    {
      "inputs": [],
      "name": "NFT_IMPLEMENTATION",
      "outputs": [
        {
          "internalType": "address",
          "name": "",
          "type": "address"
        }
      ],
      "stateMutability": "view",
      "type": "function"
    },
    {
      "inputs": [
        {
          "internalType": "uint256",
          "name": "",
          "type": "uint256"
        },
        {
          "internalType": "address",
          "name": "",
          "type": "address"
        }
      ],
      "name": "addressToMints",
      "outputs": [
        {
          "internalType": "uint8",
          "name": "",
          "type": "uint8"
        }
      ],
      "stateMutability": "view",
      "type": "function"
    },
    {
      "inputs": [
        {
          "internalType": "uint256",
          "name": "index_",
          "type": "uint256"
        },
        {
          "internalType": "address",
          "name": "wallet",
          "type": "address"
        }
      ],
      "name": "canMint",
      "outputs": [
        {
          "internalType": "bool",
          "name": "",
          "type": "bool"
        }
      ],
      "stateMutability": "view",
      "type": "function"
    },
    {
      "inputs": [
        {
          "internalType": "uint256",
          "name": "maxMint_",
          "type": "uint256"
        },
        {
          "internalType": "uint256",
          "name": "startDate_",
          "type": "uint256"
        },
        {
          "internalType": "uint256",
          "name": "endDate_",
          "type": "uint256"
        },
        {
          "internalType": "string",
          "name": "homepage_",
          "type": "string"
        },
        {
          "internalType": "string",
          "name": "name",
          "type": "string"
        },
        {
          "internalType": "string",
          "name": "symbol",
          "type": "string"
        },
        {
          "internalType": "string",
          "name": "uri_",
          "type": "string"
        }
      ],
      "name": "createSarau",
      "outputs": [
        {
          "internalType": "uint256",
          "name": "index",
          "type": "uint256"
        }
      ],
      "stateMutability": "payable",
      "type": "function"
    },
    {
      "inputs": [],
      "name": "creationEtherFee",
      "outputs": [
        {
          "internalType": "uint256",
          "name": "",
          "type": "uint256"
        }
      ],
      "stateMutability": "view",
      "type": "function"
    },
    {
      "inputs": [],
      "name": "creationUSDFee",
      "outputs": [
        {
          "internalType": "uint256",
          "name": "",
          "type": "uint256"
        }
      ],
      "stateMutability": "view",
      "type": "function"
    },
    {
      "inputs": [],
      "name": "etherPrice",
      "outputs": [
        {
          "internalType": "uint256",
          "name": "",
          "type": "uint256"
        }
      ],
      "stateMutability": "view",
      "type": "function"
    },
    {
      "inputs": [
        {
          "internalType": "address",
          "name": "_to",
          "type": "address"
        }
      ],
      "name": "flushETH",
      "outputs": [],
      "stateMutability": "nonpayable",
      "type": "function"
    },
    {
      "inputs": [],
      "name": "getMaxBlockTimestampDelay",
      "outputs": [
        {
          "internalType": "uint256",
          "name": "",
          "type": "uint256"
        }
      ],
      "stateMutability": "view",
      "type": "function"
    },
    {
      "inputs": [],
      "name": "getMaxDataTimestampDelay",
      "outputs": [
        {
          "internalType": "uint256",
          "name": "",
          "type": "uint256"
        }
      ],
      "stateMutability": "view",
      "type": "function"
    },
    {
      "inputs": [
        {
          "internalType": "address",
          "name": "wallet",
          "type": "address"
        }
      ],
      "name": "getNumberOFSarausCreatedByWallet",
      "outputs": [
        {
          "internalType": "uint256",
          "name": "",
          "type": "uint256"
        }
      ],
      "stateMutability": "view",
      "type": "function"
    },
    {
      "inputs": [],
      "name": "getNumberOfMints",
      "outputs": [
        {
          "internalType": "uint256",
          "name": "",
          "type": "uint256"
        }
      ],
      "stateMutability": "view",
      "type": "function"
    },
    {
      "inputs": [],
      "name": "getNumberOfSaraus",
      "outputs": [
        {
          "internalType": "uint256",
          "name": "",
          "type": "uint256"
        }
      ],
      "stateMutability": "view",
      "type": "function"
    },
    {
      "inputs": [
        {
          "internalType": "bytes32",
          "name": "role",
          "type": "bytes32"
        }
      ],
      "name": "getRoleAdmin",
      "outputs": [
        {
          "internalType": "bytes32",
          "name": "",
          "type": "bytes32"
        }
      ],
      "stateMutability": "view",
      "type": "function"
    },
    {
      "inputs": [
        {
          "internalType": "uint256",
          "name": "index_",
          "type": "uint256"
        }
      ],
      "name": "getSarauAddress",
      "outputs": [
        {
          "internalType": "address",
          "name": "",
          "type": "address"
        }
      ],
      "stateMutability": "view",
      "type": "function"
    },
    {
      "inputs": [
        {
          "internalType": "address",
          "name": "wallet_",
          "type": "address"
        },
        {
          "internalType": "uint256",
          "name": "startIndex_",
          "type": "uint256"
        },
        {
          "internalType": "uint256",
          "name": "endIndex_",
          "type": "uint256"
        }
      ],
      "name": "getSarausByWallet",
      "outputs": [
        {
          "internalType": "uint256[]",
          "name": "",
          "type": "uint256[]"
        }
      ],
      "stateMutability": "view",
      "type": "function"
    },
    {
      "inputs": [
        {
          "internalType": "bytes32",
          "name": "role",
          "type": "bytes32"
        },
        {
          "internalType": "address",
          "name": "account",
          "type": "address"
        }
      ],
      "name": "grantRole",
      "outputs": [],
      "stateMutability": "nonpayable",
      "type": "function"
    },
    {
      "inputs": [
        {
          "internalType": "bytes32",
          "name": "role",
          "type": "bytes32"
        },
        {
          "internalType": "address",
          "name": "account",
          "type": "address"
        }
      ],
      "name": "hasRole",
      "outputs": [
        {
          "internalType": "bool",
          "name": "",
          "type": "bool"
        }
      ],
      "stateMutability": "view",
      "type": "function"
    },
    {
      "inputs": [
        {
          "internalType": "address",
          "name": "_receivedSigner",
          "type": "address"
        }
      ],
      "name": "isSignerAuthorized",
      "outputs": [
        {
          "internalType": "bool",
          "name": "",
          "type": "bool"
        }
      ],
      "stateMutability": "view",
      "type": "function"
    },
    {
      "inputs": [
        {
          "internalType": "uint256",
          "name": "_receivedTimestamp",
          "type": "uint256"
        }
      ],
      "name": "isTimestampValid",
      "outputs": [
        {
          "internalType": "bool",
          "name": "",
          "type": "bool"
        }
      ],
      "stateMutability": "view",
      "type": "function"
    },
    {
      "inputs": [
        {
          "internalType": "uint256",
          "name": "index_",
          "type": "uint256"
        },
        {
          "internalType": "bytes32",
          "name": "code_",
          "type": "bytes32"
        }
      ],
      "name": "mint",
      "outputs": [
        {
          "internalType": "uint256",
          "name": "",
          "type": "uint256"
        }
      ],
      "stateMutability": "nonpayable",
      "type": "function"
    },
    {
      "inputs": [],
      "name": "redstoneDecimals",
      "outputs": [
        {
          "internalType": "uint256",
          "name": "",
          "type": "uint256"
        }
      ],
      "stateMutability": "view",
      "type": "function"
    },
    {
      "inputs": [],
      "name": "redstoneSigner",
      "outputs": [
        {
          "internalType": "address",
          "name": "",
          "type": "address"
        }
      ],
      "stateMutability": "view",
      "type": "function"
    },
    {
      "inputs": [
        {
          "internalType": "bytes32",
          "name": "role",
          "type": "bytes32"
        },
        {
          "internalType": "address",
          "name": "account",
          "type": "address"
        }
      ],
      "name": "renounceRole",
      "outputs": [],
      "stateMutability": "nonpayable",
      "type": "function"
    },
    {
      "inputs": [
        {
          "internalType": "bytes32",
          "name": "role",
          "type": "bytes32"
        },
        {
          "internalType": "address",
          "name": "account",
          "type": "address"
        }
      ],
      "name": "revokeRole",
      "outputs": [],
      "stateMutability": "nonpayable",
      "type": "function"
    },
    {
      "inputs": [
        {
          "internalType": "uint256",
          "name": "creationUSDFee_",
          "type": "uint256"
        }
      ],
      "name": "setCreationUSDFee",
      "outputs": [],
      "stateMutability": "nonpayable",
      "type": "function"
    },
    {
      "inputs": [
        {
          "internalType": "uint256",
          "name": "redstoneDecimals_",
          "type": "uint256"
        }
      ],
      "name": "setRedstoneDecimals",
      "outputs": [],
      "stateMutability": "nonpayable",
      "type": "function"
    },
    {
      "inputs": [
        {
          "internalType": "address",
          "name": "redstoneSigner_",
          "type": "address"
        }
      ],
      "name": "setRedstoneSigner",
      "outputs": [],
      "stateMutability": "nonpayable",
      "type": "function"
    },
    {
      "inputs": [
        {
          "internalType": "bytes4",
          "name": "interfaceId",
          "type": "bytes4"
        }
      ],
      "name": "supportsInterface",
      "outputs": [
        {
          "internalType": "bool",
          "name": "",
          "type": "bool"
        }
      ],
      "stateMutability": "view",
      "type": "function"
    },
    {
      "inputs": [],
      "name": "updateEtherPrice",
      "outputs": [],
      "stateMutability": "nonpayable",
      "type": "function"
    },
    {
      "stateMutability": "payable",
      "type": "receive"
    }
  ],
  "bytecode": "0x60c06040523480156200001157600080fd5b506040516200437038038062004370833981810160405281019062000037919062000252565b8273ffffffffffffffffffffffffffffffffffffffff1660808173ffffffffffffffffffffffffffffffffffffffff1660601b815250508160a0818152505080600981905550620000a16000801b62000095620000aa60201b60201c565b620000b260201b60201c565b5050506200033e565b600033905090565b620000c48282620001a360201b60201c565b6200019f57600160008084815260200190815260200160002060000160008373ffffffffffffffffffffffffffffffffffffffff1673ffffffffffffffffffffffffffffffffffffffff16815260200190815260200160002060006101000a81548160ff02191690831515021790555062000144620000aa60201b60201c565b73ffffffffffffffffffffffffffffffffffffffff168173ffffffffffffffffffffffffffffffffffffffff16837f2f8788117e7eff1d82e926ec794901d17c78024a50270940304540a733656f0d60405160405180910390a45b5050565b600080600084815260200190815260200160002060000160008373ffffffffffffffffffffffffffffffffffffffff1673ffffffffffffffffffffffffffffffffffffffff16815260200190815260200160002060009054906101000a900460ff16905092915050565b6000815190506200021e81620002f0565b92915050565b60008151905062000235816200030a565b92915050565b6000815190506200024c8162000324565b92915050565b6000806000606084860312156200026857600080fd5b600062000278868287016200020d565b93505060206200028b8682870162000224565b92505060406200029e868287016200023b565b9150509250925092565b6000620002b582620002c6565b9050919050565b6000819050919050565b600073ffffffffffffffffffffffffffffffffffffffff82169050919050565b6000819050919050565b620002fb81620002a8565b81146200030757600080fd5b50565b6200031581620002bc565b81146200032157600080fd5b50565b6200032f81620002e6565b81146200033b57600080fd5b50565b60805160601c60a051613ffb62000375600039600081816112b001526117ad0152600081816109e901526117d10152613ffb6000f3fe6080604052600436106101e75760003560e01c80638f4e76b911610102578063d6e7e8f511610095578063f536121911610064578063f53612191461078b578063f69d2bcc146107b6578063f77b407b146107e1578063f84f459c1461081e57610239565b8063d6e7e8f5146106cf578063dc426881146106fa578063ee272ceb14610723578063f31a210a1461076057610239565b8063a217fddf116100d1578063a217fddf14610615578063abeae71014610640578063c5d5ac001461067d578063d547741f146106a657610239565b80638f4e76b91461054757806391d1485414610584578063971836e8146105c15780639e307955146105ea57610239565b806330a7b1f51161017a5780635335b6af116101495780635335b6af1461049d57806375058205146104c85780637e34d72314610505578063867b3d4b1461053057610239565b806330a7b1f5146103f357806336568abe1461041e57806342ba9bb3146104475780635118af5a1461047257610239565b80631801fbe5116101b65780631801fbe514610313578063248a9ca314610350578063264029af1461038d5780632f2ff15d146103ca57610239565b806301ffc9a71461023e57806305503f5d1461027b578063071054bd146102a657806311c89b10146102d657610239565b3661023957346101f5610847565b73ffffffffffffffffffffffffffffffffffffffff167fa419615bc8fda4c87663805ee2a3597a6d71c1d476911d9892f340d965bc7bf160405160405180910390a3005b600080fd5b34801561024a57600080fd5b5061026560048036038101906102609190612bc2565b61084f565b60405161027291906132f1565b60405180910390f35b34801561028757600080fd5b506102906108c9565b60405161029d919061364e565b60405180910390f35b6102c060048036038101906102bb9190612cb5565b6108cf565b6040516102cd919061364e565b60405180910390f35b3480156102e257600080fd5b506102fd60048036038101906102f89190612abc565b610c17565b60405161030a91906132f1565b60405180910390f35b34801561031f57600080fd5b5061033a60048036038101906103359190612c79565b610c71565b604051610347919061364e565b60405180910390f35b34801561035c57600080fd5b5061037760048036038101906103729190612b34565b6110cd565b604051610384919061330c565b60405180910390f35b34801561039957600080fd5b506103b460048036038101906103af9190612beb565b6110ec565b6040516103c191906132b4565b60405180910390f35b3480156103d657600080fd5b506103f160048036038101906103ec9190612b86565b61110f565b005b3480156103ff57600080fd5b50610408611130565b604051610415919061364e565b60405180910390f35b34801561042a57600080fd5b5061044560048036038101906104409190612b86565b611166565b005b34801561045357600080fd5b5061045c6111e9565b60405161046991906132b4565b60405180910390f35b34801561047e57600080fd5b5061048761120f565b604051610494919061364e565b60405180910390f35b3480156104a957600080fd5b506104b2611218565b6040516104bf919061364e565b60405180910390f35b3480156104d457600080fd5b506104ef60048036038101906104ea9190612beb565b61121e565b6040516104fc91906132f1565b60405180910390f35b34801561051157600080fd5b5061051a61129a565b604051610527919061364e565b60405180910390f35b34801561053c57600080fd5b506105456112ab565b005b34801561055357600080fd5b5061056e60048036038101906105699190612c3d565b6112dc565b60405161057b91906132f1565b60405180910390f35b34801561059057600080fd5b506105ab60048036038101906105a69190612b86565b61134b565b6040516105b891906132f1565b60405180910390f35b3480156105cd57600080fd5b506105e860048036038101906105e39190612beb565b6113b5565b005b3480156105f657600080fd5b506105ff6113fa565b60405161060c919061364e565b60405180910390f35b34801561062157600080fd5b5061062a611400565b604051610637919061330c565b60405180910390f35b34801561064c57600080fd5b5061066760048036038101906106629190612ae5565b611407565b60405161067491906132cf565b60405180910390f35b34801561068957600080fd5b506106a4600480360381019061069f9190612beb565b61156b565b005b3480156106b257600080fd5b506106cd60048036038101906106c89190612b86565b6115ba565b005b3480156106db57600080fd5b506106e46115db565b6040516106f1919061364e565b60405180910390f35b34801561070657600080fd5b50610721600480360381019061071c9190612abc565b6115ec565b005b34801561072f57600080fd5b5061074a60048036038101906107459190612abc565b611752565b604051610757919061364e565b60405180910390f35b34801561076c57600080fd5b506107756117a2565b604051610782919061364e565b60405180910390f35b34801561079757600080fd5b506107a06117ab565b6040516107ad919061330c565b60405180910390f35b3480156107c257600080fd5b506107cb6117cf565b6040516107d891906132b4565b60405180910390f35b3480156107ed57600080fd5b5061080860048036038101906108039190612c3d565b6117f3565b60405161081591906136fc565b60405180910390f35b34801561082a57600080fd5b5061084560048036038101906108409190612abc565b611822565b005b600033905090565b60007f7965db0b000000000000000000000000000000000000000000000000000000007bffffffffffffffffffffffffffffffffffffffffffffffffffffffff1916827bffffffffffffffffffffffffffffffffffffffffffffffffffffffff191614806108c257506108c1826118ab565b5b9050919050565b60095481565b60006108d9611130565b341461091a576040517f08c379a00000000000000000000000000000000000000000000000000000000081526004016109119061348e565b60405180910390fd5b60008b1161095d576040517f08c379a00000000000000000000000000000000000000000000000000000000081526004016109549061346e565b60405180910390fd5b60008a116109a0576040517f08c379a0000000000000000000000000000000000000000000000000000000008152600401610997906135ae565b60405180910390fd5b8a8a116109e2576040517f08c379a00000000000000000000000000000000000000000000000000000000081526004016109d9906134ce565b60405180910390fd5b6000610a0d7f0000000000000000000000000000000000000000000000000000000000000000611915565b90508073ffffffffffffffffffffffffffffffffffffffff1663c170fc928e8e8e8e8e8e8e8e8e8e8e6040518c63ffffffff1660e01b8152600401610a5c9b9a99989796959493929190613669565b600060405180830381600087803b158015610a7657600080fd5b505af1158015610a8a573d6000803e3d6000fd5b505050508073ffffffffffffffffffffffffffffffffffffffff16632f2ff15d8273ffffffffffffffffffffffffffffffffffffffff1663a217fddf6040518163ffffffff1660e01b815260040160206040518083038186803b158015610af057600080fd5b505afa158015610b04573d6000803e3d6000fd5b505050506040513d601f19601f82011682018060405250810190610b289190612b5d565b610b30610847565b6040518363ffffffff1660e01b8152600401610b4d929190613327565b600060405180830381600087803b158015610b6757600080fd5b505af1158015610b7b573d6000803e3d6000fd5b505050506001610b8b60026119ea565b610b9591906137af565b9150610bad828260026119ff9092919063ffffffff16565b50610c068260056000610bbe610847565b73ffffffffffffffffffffffffffffffffffffffff1673ffffffffffffffffffffffffffffffffffffffff168152602001908152602001600020611a3490919063ffffffff16565b50509b9a5050505050505050505050565b60008173ffffffffffffffffffffffffffffffffffffffff16600860009054906101000a900473ffffffffffffffffffffffffffffffffffffffff1673ffffffffffffffffffffffffffffffffffffffff16149050919050565b600080610c7d846110ec565b90508073ffffffffffffffffffffffffffffffffffffffff166318160ddd6040518163ffffffff1660e01b815260040160206040518083038186803b158015610cc557600080fd5b505afa158015610cd9573d6000803e3d6000fd5b505050506040513d601f19601f82011682018060405250810190610cfd9190612c14565b8173ffffffffffffffffffffffffffffffffffffffff16637501f7416040518163ffffffff1660e01b815260040160206040518083038186803b158015610d4357600080fd5b505afa158015610d57573d6000803e3d6000fd5b505050506040513d601f19601f82011682018060405250810190610d7b9190612c14565b11610dbb576040517f08c379a0000000000000000000000000000000000000000000000000000000008152600401610db29061352e565b60405180910390fd5b8073ffffffffffffffffffffffffffffffffffffffff16630b97bc866040518163ffffffff1660e01b815260040160206040518083038186803b158015610e0157600080fd5b505afa158015610e15573d6000803e3d6000fd5b505050506040513d601f19601f82011682018060405250810190610e399190612c14565b4210158015610ec557508073ffffffffffffffffffffffffffffffffffffffff1663c24a0f8b6040518163ffffffff1660e01b815260040160206040518083038186803b158015610e8957600080fd5b505afa158015610e9d573d6000803e3d6000fd5b505050506040513d601f19601f82011682018060405250810190610ec19190612c14565b4211155b610f04576040517f08c379a0000000000000000000000000000000000000000000000000000000008152600401610efb9061358e565b60405180910390fd5b610f1584610f10610847565b6112dc565b610f54576040517f08c379a0000000000000000000000000000000000000000000000000000000008152600401610f4b9061362e565b60405180910390fd5b6001600660008681526020019081526020016000206000610f73610847565b73ffffffffffffffffffffffffffffffffffffffff1673ffffffffffffffffffffffffffffffffffffffff16815260200190815260200160002060006101000a81548160ff021916908360ff1602179055508073ffffffffffffffffffffffffffffffffffffffff1663507411a36001610feb610847565b866040518463ffffffff1660e01b815260040161100a93929190613395565b600060405180830381600087803b15801561102457600080fd5b505af1158015611038573d6000803e3d6000fd5b505050506110466001611a4e565b8073ffffffffffffffffffffffffffffffffffffffff166318160ddd6040518163ffffffff1660e01b815260040160206040518083038186803b15801561108c57600080fd5b505afa1580156110a0573d6000803e3d6000fd5b505050506040513d601f19601f820116820180604052508101906110c49190612c14565b91505092915050565b6000806000838152602001908152602001600020600101549050919050565b600080611103836002611a6490919063ffffffff16565b91505080915050919050565b611118826110cd565b61112181611a90565b61112b8383611aa4565b505050565b600060095460006007541461115457600754600a5461114f9190613805565b611157565b60005b6111619190613872565b905090565b61116e610847565b73ffffffffffffffffffffffffffffffffffffffff168173ffffffffffffffffffffffffffffffffffffffff16146111db576040517f08c379a00000000000000000000000000000000000000000000000000000000081526004016111d29061360e565b60405180910390fd5b6111e58282611b84565b5050565b600860009054906101000a900473ffffffffffffffffffffffffffffffffffffffff1681565b6000600f905090565b600a5481565b60008161122961120f565b4261123491906137af565b11611274576040517f08c379a000000000000000000000000000000000000000000000000000000000815260040161126b906135ce565b60405180910390fd5b8142108061129357506112856117a2565b824261129191906138cc565b105b9050919050565b60006112a660026119ea565b905090565b6112d47f0000000000000000000000000000000000000000000000000000000000000000611c65565b600781905550565b600060016006600085815260200190815260200160002060008473ffffffffffffffffffffffffffffffffffffffff1673ffffffffffffffffffffffffffffffffffffffff16815260200190815260200160002060009054906101000a900460ff1660ff161415905092915050565b600080600084815260200190815260200160002060000160008373ffffffffffffffffffffffffffffffffffffffff1673ffffffffffffffffffffffffffffffffffffffff16815260200190815260200160002060009054906101000a900460ff16905092915050565b6000801b6113c281611a90565b81600a81905550817f7a570aff860f1dbe00d36164ca3379f53f6362009fba0ce8d78254e95cead99560405160405180910390a25050565b60075481565b6000801b81565b606060006001848461141991906138cc565b61142391906137af565b905060008167ffffffffffffffff811115611467577f4e487b7100000000000000000000000000000000000000000000000000000000600052604160045260246000fd5b6040519080825280602002602001820160405280156114955781602001602082028036833780820191505090505b5090506000808690505b85811161155d576114f781600560008b73ffffffffffffffffffffffffffffffffffffffff1673ffffffffffffffffffffffffffffffffffffffff168152602001908152602001600020611d7390919063ffffffff16565b838381518110611530577f4e487b7100000000000000000000000000000000000000000000000000000000600052603260045260246000fd5b602002602001018181525050818061154790613a17565b925050808061155590613a17565b91505061149f565b508193505050509392505050565b6000801b61157881611a90565b816009819055507f32a3e518123805f5c20349e18a4c636d97f0fec98369af309dd61fe90ed037b2826040516115ae919061364e565b60405180910390a15050565b6115c3826110cd565b6115cc81611a90565b6115d68383611b84565b505050565b60006115e76001611d8d565b905090565b6000801b6115f981611a90565b600073ffffffffffffffffffffffffffffffffffffffff168273ffffffffffffffffffffffffffffffffffffffff161415611669576040517f08c379a00000000000000000000000000000000000000000000000000000000081526004016116609061356e565b60405180910390fd5b6000479050600081116116b1576040517f08c379a00000000000000000000000000000000000000000000000000000000081526004016116a8906135ee565b60405180910390fd5b8273ffffffffffffffffffffffffffffffffffffffff166108fc829081150290604051600060405180830381858888f193505050501580156116f7573d6000803e3d6000fd5b50611700610847565b73ffffffffffffffffffffffffffffffffffffffff167f7e8bfbce8498a152a0bedcf83edec38ffb0a13b19a197cb7c2686fc6371013ab82604051611745919061364e565b60405180910390a2505050565b600061179b600560008473ffffffffffffffffffffffffffffffffffffffff1673ffffffffffffffffffffffffffffffffffffffff168152602001908152602001600020611d9b565b9050919050565b600060b4905090565b7f000000000000000000000000000000000000000000000000000000000000000081565b7f000000000000000000000000000000000000000000000000000000000000000081565b60066020528160005260406000206020528060005260406000206000915091509054906101000a900460ff1681565b6000801b61182f81611a90565b81600860006101000a81548173ffffffffffffffffffffffffffffffffffffffff021916908373ffffffffffffffffffffffffffffffffffffffff1602179055507fbd95025ed42064979834dfebc62ec9d5892e915976f55b415979d34f349ac4ab8260405161189f91906132b4565b60405180910390a15050565b60007f01ffc9a7000000000000000000000000000000000000000000000000000000007bffffffffffffffffffffffffffffffffffffffffffffffffffffffff1916827bffffffffffffffffffffffffffffffffffffffffffffffffffffffff1916149050919050565b60006040517f3d602d80600a3d3981f3363d3d373d3d3d363d7300000000000000000000000081528260601b60148201527f5af43d82803e903d91602b57fd5bf3000000000000000000000000000000000060288201526037816000f0915050600073ffffffffffffffffffffffffffffffffffffffff168173ffffffffffffffffffffffffffffffffffffffff1614156119e5576040517f08c379a00000000000000000000000000000000000000000000000000000000081526004016119dc9061350e565b60405180910390fd5b919050565b60006119f882600001611db0565b9050919050565b6000611a2b846000018460001b8473ffffffffffffffffffffffffffffffffffffffff1660001b611dc5565b90509392505050565b6000611a46836000018360001b611e00565b905092915050565b6001816000016000828254019250508190555050565b600080600080611a778660000186611e70565b915091508160001c8160001c9350935050509250929050565b611aa181611a9c610847565b611eb0565b50565b611aae828261134b565b611b8057600160008084815260200190815260200160002060000160008373ffffffffffffffffffffffffffffffffffffffff1673ffffffffffffffffffffffffffffffffffffffff16815260200190815260200160002060006101000a81548160ff021916908315150217905550611b25610847565b73ffffffffffffffffffffffffffffffffffffffff168173ffffffffffffffffffffffffffffffffffffffff16837f2f8788117e7eff1d82e926ec794901d17c78024a50270940304540a733656f0d60405160405180910390a45b5050565b611b8e828261134b565b15611c6157600080600084815260200190815260200160002060000160008373ffffffffffffffffffffffffffffffffffffffff1673ffffffffffffffffffffffffffffffffffffffff16815260200190815260200160002060006101000a81548160ff021916908315150217905550611c06610847565b73ffffffffffffffffffffffffffffffffffffffff168173ffffffffffffffffffffffffffffffffffffffff16837ff6391f5c32d9c69d2a47ea670b442974b53935d1edc7fd64eb21e047a839171b60405160405180910390a45b5050565b600080600167ffffffffffffffff811115611ca9577f4e487b7100000000000000000000000000000000000000000000000000000000600052604160045260246000fd5b604051908082528060200260200182016040528015611cd75781602001602082028036833780820191505090505b5090508281600081518110611d15577f4e487b7100000000000000000000000000000000000000000000000000000000600052603260045260246000fd5b602002602001018181525050611d2a81611f4d565b600081518110611d63577f4e487b7100000000000000000000000000000000000000000000000000000000600052603260045260246000fd5b6020026020010151915050919050565b6000611d8283600001836120b5565b60001c905092915050565b600081600001549050919050565b6000611da982600001612106565b9050919050565b6000611dbe82600001612117565b9050919050565b60008184600201600085815260200190815260200160002081905550611df7838560000161212c90919063ffffffff16565b90509392505050565b6000611e0c8383612143565b611e65578260000182908060018154018082558091505060019003906000526020600020016000909190919091505582600001805490508360010160008481526020019081526020016000208190555060019050611e6a565b600090505b92915050565b6000806000611e8b848660000161216690919063ffffffff16565b9050808560020160008381526020019081526020016000205492509250509250929050565b611eba828261134b565b611f4957611edf8173ffffffffffffffffffffffffffffffffffffffff16601461217d565b611eed8360001c602061217d565b604051602001611efe92919061327a565b6040516020818303038152906040526040517f08c379a0000000000000000000000000000000000000000000000000000000008152600401611f4091906133cc565b60405180910390fd5b5050565b60606000606136033590506000602060408360ff16611f6c9190613836565b611f769190613777565b90506060604051905081815281604283013603602083013760208101604052600081805190602001209050600081604051602001611fb49190613254565b604051602081830303815290604052805190602001209050606060405190506041815260418036036020830137602081016040526000611ffd828461247790919063ffffffff16565b905061200881610c17565b612047576040517f08c379a000000000000000000000000000000000000000000000000000000000815260040161203e906134ae565b60405180910390fd5b6000606236033590506120598161121e565b612098576040517f08c379a000000000000000000000000000000000000000000000000000000000815260040161208f9061344e565b60405180910390fd5b6120a68a8960ff168961249e565b98505050505050505050919050565b60008260000182815481106120f3577f4e487b7100000000000000000000000000000000000000000000000000000000600052603260045260246000fd5b9060005260206000200154905092915050565b600081600001805490509050919050565b600061212582600001612106565b9050919050565b600061213b8360000183611e00565b905092915050565b600080836001016000848152602001908152602001600020541415905092915050565b600061217583600001836120b5565b905092915050565b6060600060028360026121909190613872565b61219a91906137af565b67ffffffffffffffff8111156121d9577f4e487b7100000000000000000000000000000000000000000000000000000000600052604160045260246000fd5b6040519080825280601f01601f19166020018201604052801561220b5781602001600182028036833780820191505090505b5090507f300000000000000000000000000000000000000000000000000000000000000081600081518110612269577f4e487b7100000000000000000000000000000000000000000000000000000000600052603260045260246000fd5b60200101907effffffffffffffffffffffffffffffffffffffffffffffffffffffffffffff1916908160001a9053507f7800000000000000000000000000000000000000000000000000000000000000816001815181106122f3577f4e487b7100000000000000000000000000000000000000000000000000000000600052603260045260246000fd5b60200101907effffffffffffffffffffffffffffffffffffffffffffffffffffffffffffff1916908160001a905350600060018460026123339190613872565b61233d91906137af565b90505b6001811115612429577f3031323334353637383961626364656600000000000000000000000000000000600f8616601081106123a5577f4e487b7100000000000000000000000000000000000000000000000000000000600052603260045260246000fd5b1a60f81b8282815181106123e2577f4e487b7100000000000000000000000000000000000000000000000000000000600052603260045260246000fd5b60200101907effffffffffffffffffffffffffffffffffffffffffffffffffffffffffffff1916908160001a905350600485901c945080612422906139ed565b9050612340565b506000841461246d576040517f08c379a00000000000000000000000000000000000000000000000000000000081526004016124649061340e565b60405180910390fd5b8091505092915050565b60008060006124868585612544565b9150915061249381612596565b819250505092915050565b6060806000806000806042870136035995508951865260208a51026020870101604052600094505b8951851015612534576020850260208b0101519150600093505b8884101561252957816040850282013514156125115760206040850282010135602086026020880101526001830192505b895183141561251e578894505b6001840193506124e0565b6001850194506124c6565b5084955050505050509392505050565b6000806041835114156125865760008060006020860151925060408601519150606086015160001a905061257a878285856128e7565b9450945050505061258f565b60006002915091505b9250929050565b600060048111156125d0577f4e487b7100000000000000000000000000000000000000000000000000000000600052602160045260246000fd5b816004811115612609577f4e487b7100000000000000000000000000000000000000000000000000000000600052602160045260246000fd5b1415612614576128e4565b6001600481111561264e577f4e487b7100000000000000000000000000000000000000000000000000000000600052602160045260246000fd5b816004811115612687577f4e487b7100000000000000000000000000000000000000000000000000000000600052602160045260246000fd5b14156126c8576040517f08c379a00000000000000000000000000000000000000000000000000000000081526004016126bf906133ee565b60405180910390fd5b60026004811115612702577f4e487b7100000000000000000000000000000000000000000000000000000000600052602160045260246000fd5b81600481111561273b577f4e487b7100000000000000000000000000000000000000000000000000000000600052602160045260246000fd5b141561277c576040517f08c379a00000000000000000000000000000000000000000000000000000000081526004016127739061342e565b60405180910390fd5b600360048111156127b6577f4e487b7100000000000000000000000000000000000000000000000000000000600052602160045260246000fd5b8160048111156127ef577f4e487b7100000000000000000000000000000000000000000000000000000000600052602160045260246000fd5b1415612830576040517f08c379a0000000000000000000000000000000000000000000000000000000008152600401612827906134ee565b60405180910390fd5b600480811115612869577f4e487b7100000000000000000000000000000000000000000000000000000000600052602160045260246000fd5b8160048111156128a2577f4e487b7100000000000000000000000000000000000000000000000000000000600052602160045260246000fd5b14156128e3576040517f08c379a00000000000000000000000000000000000000000000000000000000081526004016128da9061354e565b60405180910390fd5b5b50565b6000807f7fffffffffffffffffffffffffffffff5d576e7357a4501ddfe92f46681b20a08360001c11156129225760006003915091506129eb565b601b8560ff161415801561293a5750601c8560ff1614155b1561294c5760006004915091506129eb565b6000600187878787604051600081526020016040526040516129719493929190613350565b6020604051602081039080840390855afa158015612993573d6000803e3d6000fd5b505050602060405103519050600073ffffffffffffffffffffffffffffffffffffffff168173ffffffffffffffffffffffffffffffffffffffff1614156129e2576000600192509250506129eb565b80600092509250505b94509492505050565b600081359050612a0381613f69565b92915050565b600081359050612a1881613f80565b92915050565b600081519050612a2d81613f80565b92915050565b600081359050612a4281613f97565b92915050565b60008083601f840112612a5a57600080fd5b8235905067ffffffffffffffff811115612a7357600080fd5b602083019150836001820283011115612a8b57600080fd5b9250929050565b600081359050612aa181613fae565b92915050565b600081519050612ab681613fae565b92915050565b600060208284031215612ace57600080fd5b6000612adc848285016129f4565b91505092915050565b600080600060608486031215612afa57600080fd5b6000612b08868287016129f4565b9350506020612b1986828701612a92565b9250506040612b2a86828701612a92565b9150509250925092565b600060208284031215612b4657600080fd5b6000612b5484828501612a09565b91505092915050565b600060208284031215612b6f57600080fd5b6000612b7d84828501612a1e565b91505092915050565b60008060408385031215612b9957600080fd5b6000612ba785828601612a09565b9250506020612bb8858286016129f4565b9150509250929050565b600060208284031215612bd457600080fd5b6000612be284828501612a33565b91505092915050565b600060208284031215612bfd57600080fd5b6000612c0b84828501612a92565b91505092915050565b600060208284031215612c2657600080fd5b6000612c3484828501612aa7565b91505092915050565b60008060408385031215612c5057600080fd5b6000612c5e85828601612a92565b9250506020612c6f858286016129f4565b9150509250929050565b60008060408385031215612c8c57600080fd5b6000612c9a85828601612a92565b9250506020612cab85828601612a09565b9150509250929050565b600080600080600080600080600080600060e08c8e031215612cd657600080fd5b6000612ce48e828f01612a92565b9b50506020612cf58e828f01612a92565b9a50506040612d068e828f01612a92565b99505060608c013567ffffffffffffffff811115612d2357600080fd5b612d2f8e828f01612a48565b985098505060808c013567ffffffffffffffff811115612d4e57600080fd5b612d5a8e828f01612a48565b965096505060a08c013567ffffffffffffffff811115612d7957600080fd5b612d858e828f01612a48565b945094505060c08c013567ffffffffffffffff811115612da457600080fd5b612db08e828f01612a48565b92509250509295989b509295989b9093969950565b6000612dd18383613227565b60208301905092915050565b612de681613900565b82525050565b6000612df782613727565b612e01818561374a565b9350612e0c83613717565b8060005b83811015612e3d578151612e248882612dc5565b9750612e2f8361373d565b925050600181019050612e10565b5085935050505092915050565b612e5381613912565b82525050565b612e628161391e565b82525050565b612e79612e748261391e565b613a60565b82525050565b612e8881613999565b82525050565b6000612e9a838561375b565b9350612ea78385846139ab565b612eb083613ac8565b840190509392505050565b6000612ec682613732565b612ed0818561375b565b9350612ee08185602086016139ba565b612ee981613ac8565b840191505092915050565b6000612eff82613732565b612f09818561376c565b9350612f198185602086016139ba565b80840191505092915050565b6000612f3260188361375b565b9150612f3d82613ad9565b602082019050919050565b6000612f5560208361375b565b9150612f6082613b02565b602082019050919050565b6000612f78601f8361375b565b9150612f8382613b2b565b602082019050919050565b6000612f9b601c8361376c565b9150612fa682613b54565b601c82019050919050565b6000612fbe60198361375b565b9150612fc982613b7d565b602082019050919050565b6000612fe160248361375b565b9150612fec82613ba6565b604082019050919050565b6000613004600d8361375b565b915061300f82613bf5565b602082019050919050565b600061302760158361375b565b915061303282613c1e565b602082019050919050565b600061304a60288361375b565b915061305582613c47565b604082019050919050565b600061306d60228361375b565b915061307882613c96565b604082019050919050565b600061309060168361375b565b915061309b82613ce5565b602082019050919050565b60006130b360108361375b565b91506130be82613d0e565b602082019050919050565b60006130d660228361375b565b91506130e182613d37565b604082019050919050565b60006130f9601f8361375b565b915061310482613d86565b602082019050919050565b600061311c60138361375b565b915061312782613daf565b602082019050919050565b600061313f60228361375b565b915061314a82613dd8565b604082019050919050565b6000613162602a8361375b565b915061316d82613e27565b604082019050919050565b600061318560178361376c565b915061319082613e76565b601782019050919050565b60006131a860148361375b565b91506131b382613e9f565b602082019050919050565b60006131cb60118361376c565b91506131d682613ec8565b601182019050919050565b60006131ee602f8361375b565b91506131f982613ef1565b604082019050919050565b6000613211600e8361375b565b915061321c82613f40565b602082019050919050565b61323081613982565b82525050565b61323f81613982565b82525050565b61324e8161398c565b82525050565b600061325f82612f8e565b915061326b8284612e68565b60208201915081905092915050565b600061328582613178565b91506132918285612ef4565b915061329c826131be565b91506132a88284612ef4565b91508190509392505050565b60006020820190506132c96000830184612ddd565b92915050565b600060208201905081810360008301526132e98184612dec565b905092915050565b60006020820190506133066000830184612e4a565b92915050565b60006020820190506133216000830184612e59565b92915050565b600060408201905061333c6000830185612e59565b6133496020830184612ddd565b9392505050565b60006080820190506133656000830187612e59565b6133726020830186613245565b61337f6040830185612e59565b61338c6060830184612e59565b95945050505050565b60006060820190506133aa6000830186612e7f565b6133b76020830185612ddd565b6133c46040830184612e59565b949350505050565b600060208201905081810360008301526133e68184612ebb565b905092915050565b6000602082019050818103600083015261340781612f25565b9050919050565b6000602082019050818103600083015261342781612f48565b9050919050565b6000602082019050818103600083015261344781612f6b565b9050919050565b6000602082019050818103600083015261346781612fb1565b9050919050565b6000602082019050818103600083015261348781612fd4565b9050919050565b600060208201905081810360008301526134a781612ff7565b9050919050565b600060208201905081810360008301526134c78161301a565b9050919050565b600060208201905081810360008301526134e78161303d565b9050919050565b6000602082019050818103600083015261350781613060565b9050919050565b6000602082019050818103600083015261352781613083565b9050919050565b60006020820190508181036000830152613547816130a6565b9050919050565b60006020820190508181036000830152613567816130c9565b9050919050565b60006020820190508181036000830152613587816130ec565b9050919050565b600060208201905081810360008301526135a78161310f565b9050919050565b600060208201905081810360008301526135c781613132565b9050919050565b600060208201905081810360008301526135e781613155565b9050919050565b600060208201905081810360008301526136078161319b565b9050919050565b60006020820190508181036000830152613627816131e1565b9050919050565b6000602082019050818103600083015261364781613204565b9050919050565b60006020820190506136636000830184613236565b92915050565b600060e08201905061367e600083018e613236565b61368b602083018d613236565b613698604083018c613236565b81810360608301526136ab818a8c612e8e565b905081810360808301526136c081888a612e8e565b905081810360a08301526136d5818688612e8e565b905081810360c08301526136ea818486612e8e565b90509c9b505050505050505050505050565b60006020820190506137116000830184613245565b92915050565b6000819050602082019050919050565b600081519050919050565b600081519050919050565b6000602082019050919050565b600082825260208201905092915050565b600082825260208201905092915050565b600081905092915050565b600061378282613954565b915061378d83613954565b92508261ffff038211156137a4576137a3613a6a565b5b828201905092915050565b60006137ba82613982565b91506137c583613982565b9250827fffffffffffffffffffffffffffffffffffffffffffffffffffffffffffffffff038211156137fa576137f9613a6a565b5b828201905092915050565b600061381082613982565b915061381b83613982565b92508261382b5761382a613a99565b5b828204905092915050565b600061384182613954565b915061384c83613954565b92508161ffff048311821515161561386757613866613a6a565b5b828202905092915050565b600061387d82613982565b915061388883613982565b9250817fffffffffffffffffffffffffffffffffffffffffffffffffffffffffffffffff04831182151516156138c1576138c0613a6a565b5b828202905092915050565b60006138d782613982565b91506138e283613982565b9250828210156138f5576138f4613a6a565b5b828203905092915050565b600061390b82613962565b9050919050565b60008115159050919050565b6000819050919050565b60007fffffffff0000000000000000000000000000000000000000000000000000000082169050919050565b600061ffff82169050919050565b600073ffffffffffffffffffffffffffffffffffffffff82169050919050565b6000819050919050565b600060ff82169050919050565b60006139a482613982565b9050919050565b82818337600083830152505050565b60005b838110156139d85780820151818401526020810190506139bd565b838111156139e7576000848401525b50505050565b60006139f882613982565b91506000821415613a0c57613a0b613a6a565b5b600182039050919050565b6000613a2282613982565b91507fffffffffffffffffffffffffffffffffffffffffffffffffffffffffffffffff821415613a5557613a54613a6a565b5b600182019050919050565b6000819050919050565b7f4e487b7100000000000000000000000000000000000000000000000000000000600052601160045260246000fd5b7f4e487b7100000000000000000000000000000000000000000000000000000000600052601260045260246000fd5b6000601f19601f8301169050919050565b7f45434453413a20696e76616c6964207369676e61747572650000000000000000600082015250565b7f537472696e67733a20686578206c656e67746820696e73756666696369656e74600082015250565b7f45434453413a20696e76616c6964207369676e6174757265206c656e67746800600082015250565b7f19457468657265756d205369676e6564204d6573736167653a0a333200000000600082015250565b7f446174612074696d657374616d7020697320696e76616c696400000000000000600082015250565b7f7374617274446174655f206d7573742062652067726561746572207468616e2060008201527f7a65726f00000000000000000000000000000000000000000000000000000000602082015250565b7f696e636f72726563742066656500000000000000000000000000000000000000600082015250565b7f5369676e6572206e6f7420617574686f72697a65640000000000000000000000600082015250565b7f656e64446174655f206d7573742062652067726561746572207468616e20737460008201527f617274446174655f000000000000000000000000000000000000000000000000602082015250565b7f45434453413a20696e76616c6964207369676e6174757265202773272076616c60008201527f7565000000000000000000000000000000000000000000000000000000000000602082015250565b7f455243313136373a20637265617465206661696c656400000000000000000000600082015250565b7f6d6178206d696e74207265616368656400000000000000000000000000000000600082015250565b7f45434453413a20696e76616c6964207369676e6174757265202776272076616c60008201527f7565000000000000000000000000000000000000000000000000000000000000602082015250565b7f63616e6e6f7420776974686472617720746f207a65726f206164647265737300600082015250565b7f6f757473696465206d696e742077696e646f7700000000000000000000000000600082015250565b7f656e64446174655f206d7573742062652067726561746572207468616e207a6560008201527f726f000000000000000000000000000000000000000000000000000000000000602082015250565b7f446174612077697468206675747572652074696d657374616d7073206973206e60008201527f6f7420616c6c6f77656400000000000000000000000000000000000000000000602082015250565b7f416363657373436f6e74726f6c3a206163636f756e7420000000000000000000600082015250565b7f6e6f20657468657220746f207769746864726177000000000000000000000000600082015250565b7f206973206d697373696e6720726f6c6520000000000000000000000000000000600082015250565b7f416363657373436f6e74726f6c3a2063616e206f6e6c792072656e6f756e636560008201527f20726f6c657320666f722073656c660000000000000000000000000000000000602082015250565b7f616c7265616479206d696e746564000000000000000000000000000000000000600082015250565b613f7281613900565b8114613f7d57600080fd5b50565b613f898161391e565b8114613f9457600080fd5b50565b613fa081613928565b8114613fab57600080fd5b50565b613fb781613982565b8114613fc257600080fd5b5056fea2646970667358221220de40da2d7b7e68ada6c8e88a63073c9f74c066e0ba7f292e36903c1b3aacb43564736f6c63430008040033",
  "linkReferences": {},
  "deployedLinkReferences": {}
}