{
  "_format": "hh-sol-artifact-1",
  "contractName": "SarauMaker",
  "sourceName": "contracts/SarauMaker.sol",
  "abi": [
    {
      "inputs": [
        {
          "internalType": "address",
          "name": "nftImplementation_",
          "type": "address"
        },
        {
          "internalType": "bytes32",
          "name": "currency_",
          "type": "bytes32"
        }
      ],
      "stateMutability": "nonpayable",
      "type": "constructor"
    },
    {
      "anonymous": false,
      "inputs": [
        {
          "indexed": true,
          "internalType": "address",
          "name": "sender",
          "type": "address"
        },
        {
          "indexed": false,
          "internalType": "uint256",
          "name": "amount",
          "type": "uint256"
        }
      ],
      "name": "EtherFlushed",
      "type": "event"
    },
    {
      "anonymous": false,
      "inputs": [
        {
          "indexed": true,
          "internalType": "address",
          "name": "sender",
          "type": "address"
        },
        {
          "indexed": true,
          "internalType": "uint256",
          "name": "amount",
          "type": "uint256"
        }
      ],
      "name": "ReceivedEther",
      "type": "event"
    },
    {
      "anonymous": false,
      "inputs": [
        {
          "indexed": true,
          "internalType": "bytes32",
          "name": "role",
          "type": "bytes32"
        },
        {
          "indexed": true,
          "internalType": "bytes32",
          "name": "previousAdminRole",
          "type": "bytes32"
        },
        {
          "indexed": true,
          "internalType": "bytes32",
          "name": "newAdminRole",
          "type": "bytes32"
        }
      ],
      "name": "RoleAdminChanged",
      "type": "event"
    },
    {
      "anonymous": false,
      "inputs": [
        {
          "indexed": true,
          "internalType": "bytes32",
          "name": "role",
          "type": "bytes32"
        },
        {
          "indexed": true,
          "internalType": "address",
          "name": "account",
          "type": "address"
        },
        {
          "indexed": true,
          "internalType": "address",
          "name": "sender",
          "type": "address"
        }
      ],
      "name": "RoleGranted",
      "type": "event"
    },
    {
      "anonymous": false,
      "inputs": [
        {
          "indexed": true,
          "internalType": "bytes32",
          "name": "role",
          "type": "bytes32"
        },
        {
          "indexed": true,
          "internalType": "address",
          "name": "account",
          "type": "address"
        },
        {
          "indexed": true,
          "internalType": "address",
          "name": "sender",
          "type": "address"
        }
      ],
      "name": "RoleRevoked",
      "type": "event"
    },
    {
      "anonymous": false,
      "inputs": [
        {
          "indexed": true,
          "internalType": "address",
          "name": "nft",
          "type": "address"
        },
        {
          "indexed": true,
          "internalType": "uint256",
          "name": "id",
          "type": "uint256"
        }
      ],
      "name": "SarauCreated",
      "type": "event"
    },
    {
      "inputs": [],
      "name": "DEFAULT_ADMIN_ROLE",
      "outputs": [
        {
          "internalType": "bytes32",
          "name": "",
          "type": "bytes32"
        }
      ],
      "stateMutability": "view",
      "type": "function"
    },
    {
      "inputs": [
        {
          "internalType": "uint256",
          "name": "maxMint_",
          "type": "uint256"
        },
        {
          "internalType": "uint256",
          "name": "startDate_",
          "type": "uint256"
        },
        {
          "internalType": "uint256",
          "name": "endDate_",
          "type": "uint256"
        },
        {
          "internalType": "string",
          "name": "homepage_",
          "type": "string"
        },
        {
          "internalType": "string",
          "name": "name",
          "type": "string"
        },
        {
          "internalType": "string",
          "name": "symbol",
          "type": "string"
        },
        {
          "internalType": "string",
          "name": "uri_",
          "type": "string"
        }
      ],
      "name": "createSarau",
      "outputs": [
        {
          "internalType": "uint256",
          "name": "index",
          "type": "uint256"
        }
      ],
      "stateMutability": "payable",
      "type": "function"
    },
    {
      "inputs": [],
      "name": "creationEtherFee",
      "outputs": [
        {
          "internalType": "uint256",
          "name": "",
          "type": "uint256"
        }
      ],
      "stateMutability": "view",
      "type": "function"
    },
    {
      "inputs": [],
      "name": "creationUSDFee",
      "outputs": [
        {
          "internalType": "uint256",
          "name": "",
          "type": "uint256"
        }
      ],
      "stateMutability": "view",
      "type": "function"
    },
    {
      "inputs": [],
      "name": "currency",
      "outputs": [
        {
          "internalType": "bytes32",
          "name": "",
          "type": "bytes32"
        }
      ],
      "stateMutability": "view",
      "type": "function"
    },
    {
      "inputs": [],
      "name": "currentIndex",
      "outputs": [
        {
          "internalType": "uint256",
          "name": "",
          "type": "uint256"
        }
      ],
      "stateMutability": "view",
      "type": "function"
    },
    {
      "inputs": [],
      "name": "etherPrice",
      "outputs": [
        {
          "internalType": "uint256",
          "name": "",
          "type": "uint256"
        }
      ],
      "stateMutability": "view",
      "type": "function"
    },
    {
      "inputs": [
        {
          "internalType": "address",
          "name": "_to",
          "type": "address"
        }
      ],
      "name": "flushETH",
      "outputs": [],
      "stateMutability": "nonpayable",
      "type": "function"
    },
    {
      "inputs": [],
      "name": "getMaxBlockTimestampDelay",
      "outputs": [
        {
          "internalType": "uint256",
          "name": "",
          "type": "uint256"
        }
      ],
      "stateMutability": "view",
      "type": "function"
    },
    {
      "inputs": [],
      "name": "getMaxDataTimestampDelay",
      "outputs": [
        {
          "internalType": "uint256",
          "name": "",
          "type": "uint256"
        }
      ],
      "stateMutability": "view",
      "type": "function"
    },
    {
      "inputs": [
        {
          "internalType": "bytes32",
          "name": "role",
          "type": "bytes32"
        }
      ],
      "name": "getRoleAdmin",
      "outputs": [
        {
          "internalType": "bytes32",
          "name": "",
          "type": "bytes32"
        }
      ],
      "stateMutability": "view",
      "type": "function"
    },
    {
      "inputs": [
        {
          "internalType": "uint256",
          "name": "index_",
          "type": "uint256"
        }
      ],
      "name": "getSarau",
      "outputs": [
        {
          "internalType": "address",
          "name": "",
          "type": "address"
        }
      ],
      "stateMutability": "view",
      "type": "function"
    },
    {
      "inputs": [
        {
          "internalType": "bytes32",
          "name": "role",
          "type": "bytes32"
        },
        {
          "internalType": "address",
          "name": "account",
          "type": "address"
        }
      ],
      "name": "grantRole",
      "outputs": [],
      "stateMutability": "nonpayable",
      "type": "function"
    },
    {
      "inputs": [
        {
          "internalType": "bytes32",
          "name": "role",
          "type": "bytes32"
        },
        {
          "internalType": "address",
          "name": "account",
          "type": "address"
        }
      ],
      "name": "hasRole",
      "outputs": [
        {
          "internalType": "bool",
          "name": "",
          "type": "bool"
        }
      ],
      "stateMutability": "view",
      "type": "function"
    },
    {
      "inputs": [
        {
          "internalType": "address",
          "name": "_receivedSigner",
          "type": "address"
        }
      ],
      "name": "isSignerAuthorized",
      "outputs": [
        {
          "internalType": "bool",
          "name": "",
          "type": "bool"
        }
      ],
      "stateMutability": "view",
      "type": "function"
    },
    {
      "inputs": [
        {
          "internalType": "uint256",
          "name": "_receivedTimestamp",
          "type": "uint256"
        }
      ],
      "name": "isTimestampValid",
      "outputs": [
        {
          "internalType": "bool",
          "name": "",
          "type": "bool"
        }
      ],
      "stateMutability": "view",
      "type": "function"
    },
    {
      "inputs": [
        {
          "internalType": "uint256",
          "name": "index_",
          "type": "uint256"
        },
        {
          "internalType": "bytes32",
          "name": "code_",
          "type": "bytes32"
        }
      ],
      "name": "mint",
      "outputs": [
        {
          "internalType": "uint256",
          "name": "",
          "type": "uint256"
        }
      ],
      "stateMutability": "nonpayable",
      "type": "function"
    },
    {
      "inputs": [],
      "name": "nftImplementation",
      "outputs": [
        {
          "internalType": "address",
          "name": "",
          "type": "address"
        }
      ],
      "stateMutability": "view",
      "type": "function"
    },
    {
      "inputs": [],
      "name": "redstoneSigner",
      "outputs": [
        {
          "internalType": "address",
          "name": "",
          "type": "address"
        }
      ],
      "stateMutability": "view",
      "type": "function"
    },
    {
      "inputs": [
        {
          "internalType": "bytes32",
          "name": "role",
          "type": "bytes32"
        },
        {
          "internalType": "address",
          "name": "account",
          "type": "address"
        }
      ],
      "name": "renounceRole",
      "outputs": [],
      "stateMutability": "nonpayable",
      "type": "function"
    },
    {
      "inputs": [
        {
          "internalType": "bytes32",
          "name": "role",
          "type": "bytes32"
        },
        {
          "internalType": "address",
          "name": "account",
          "type": "address"
        }
      ],
      "name": "revokeRole",
      "outputs": [],
      "stateMutability": "nonpayable",
      "type": "function"
    },
    {
      "inputs": [
        {
          "internalType": "uint256",
          "name": "",
          "type": "uint256"
        }
      ],
      "name": "saraus",
      "outputs": [
        {
          "internalType": "address",
          "name": "",
          "type": "address"
        }
      ],
      "stateMutability": "view",
      "type": "function"
    },
    {
      "inputs": [
        {
          "internalType": "uint256",
          "name": "creationUSDFee_",
          "type": "uint256"
        }
      ],
      "name": "setCreationUSDFee",
      "outputs": [],
      "stateMutability": "nonpayable",
      "type": "function"
    },
    {
      "inputs": [
        {
          "internalType": "address",
          "name": "redstoneSigner_",
          "type": "address"
        }
      ],
      "name": "setRedstoneSigner",
      "outputs": [],
      "stateMutability": "nonpayable",
      "type": "function"
    },
    {
      "inputs": [
        {
          "internalType": "bytes4",
          "name": "interfaceId",
          "type": "bytes4"
        }
      ],
      "name": "supportsInterface",
      "outputs": [
        {
          "internalType": "bool",
          "name": "",
          "type": "bool"
        }
      ],
      "stateMutability": "view",
      "type": "function"
    },
    {
      "inputs": [],
      "name": "updateEtherPrice",
      "outputs": [],
      "stateMutability": "nonpayable",
      "type": "function"
    },
    {
      "stateMutability": "payable",
      "type": "receive"
    }
  ],
  "bytecode": "0x60c06040523480156200001157600080fd5b506040516200346938038062003469833981810160405281019062000037919062000233565b8173ffffffffffffffffffffffffffffffffffffffff1660808173ffffffffffffffffffffffffffffffffffffffff1660601b815250508060a081815250506200009a6000801b6200008e620000a260201b60201c565b620000aa60201b60201c565b5050620002e6565b600033905090565b620000bc82826200019b60201b60201c565b6200019757600160008084815260200190815260200160002060000160008373ffffffffffffffffffffffffffffffffffffffff1673ffffffffffffffffffffffffffffffffffffffff16815260200190815260200160002060006101000a81548160ff0219169083151502179055506200013c620000a260201b60201c565b73ffffffffffffffffffffffffffffffffffffffff168173ffffffffffffffffffffffffffffffffffffffff16837f2f8788117e7eff1d82e926ec794901d17c78024a50270940304540a733656f0d60405160405180910390a45b5050565b600080600084815260200190815260200160002060000160008373ffffffffffffffffffffffffffffffffffffffff1673ffffffffffffffffffffffffffffffffffffffff16815260200190815260200160002060009054906101000a900460ff16905092915050565b6000815190506200021681620002b2565b92915050565b6000815190506200022d81620002cc565b92915050565b600080604083850312156200024757600080fd5b6000620002578582860162000205565b92505060206200026a858286016200021c565b9150509250929050565b6000620002818262000292565b9050919050565b6000819050919050565b600073ffffffffffffffffffffffffffffffffffffffff82169050919050565b620002bd8162000274565b8114620002c957600080fd5b50565b620002d78162000288565b8114620002e357600080fd5b50565b60805160601c60a05161314c6200031d60003960008181610d390152610f8701526000818161083c0152610fb4015261314c6000f3fe6080604052600436106101855760003560e01c806370e37325116100d1578063a217fddf1161008a578063e5a6b10f11610064578063e5a6b10f146105fe578063f31a210a14610629578063f61ac58b14610654578063f84f459c1461067f576101d0565b8063a217fddf14610581578063d547741f146105ac578063dc426881146105d5576101d0565b806370e373251461045f578063750582051461049c578063867b3d4b146104d957806391d14854146104f0578063971836e81461052d5780639e30795514610556576101d0565b806326987b601161013e57806336568abe1161011857806336568abe146103b557806342ba9bb3146103de5780635118af5a146104095780635335b6af14610434576101d0565b806326987b60146103365780632f2ff15d1461036157806330a7b1f51461038a576101d0565b806301ffc9a7146101d5578063071054bd1461021257806311c89b101461024257806314ebbef51461027f5780631801fbe5146102bc578063248a9ca3146102f9576101d0565b366101d057343373ffffffffffffffffffffffffffffffffffffffff167fa419615bc8fda4c87663805ee2a3597a6d71c1d476911d9892f340d965bc7bf160405160405180910390a3005b600080fd5b3480156101e157600080fd5b506101fc60048036038101906101f7919061200f565b6106a8565b60405161020991906125e3565b60405180910390f35b61022c600480360381019061022791906120c6565b610722565b6040516102399190612880565b60405180910390f35b34801561024e57600080fd5b5061026960048036038101906102649190611f81565b610a16565b60405161027691906125e3565b60405180910390f35b34801561028b57600080fd5b506102a660048036038101906102a19190612038565b610a70565b6040516102b391906125c8565b60405180910390f35b3480156102c857600080fd5b506102e360048036038101906102de919061208a565b610aad565b6040516102f09190612880565b60405180910390f35b34801561030557600080fd5b50610320600480360381019061031b9190611faa565b610b4a565b60405161032d91906125fe565b60405180910390f35b34801561034257600080fd5b5061034b610b69565b6040516103589190612880565b60405180910390f35b34801561036d57600080fd5b5061038860048036038101906103839190611fd3565b610b6f565b005b34801561039657600080fd5b5061039f610b90565b6040516103ac9190612880565b60405180910390f35b3480156103c157600080fd5b506103dc60048036038101906103d79190611fd3565b610bc7565b005b3480156103ea57600080fd5b506103f3610c4a565b60405161040091906125c8565b60405180910390f35b34801561041557600080fd5b5061041e610c70565b60405161042b9190612880565b60405180910390f35b34801561044057600080fd5b50610449610c79565b6040516104569190612880565b60405180910390f35b34801561046b57600080fd5b5061048660048036038101906104819190612038565b610c7f565b60405161049391906125c8565b60405180910390f35b3480156104a857600080fd5b506104c360048036038101906104be9190612038565b610cb2565b6040516104d091906125e3565b60405180910390f35b3480156104e557600080fd5b506104ee610d2e565b005b3480156104fc57600080fd5b5061051760048036038101906105129190611fd3565b610d6f565b60405161052491906125e3565b60405180910390f35b34801561053957600080fd5b50610554600480360381019061054f9190612038565b610dd9565b005b34801561056257600080fd5b5061056b610df1565b6040516105789190612880565b60405180910390f35b34801561058d57600080fd5b50610596610df7565b6040516105a391906125fe565b60405180910390f35b3480156105b857600080fd5b506105d360048036038101906105ce9190611fd3565b610dfe565b005b3480156105e157600080fd5b506105fc60048036038101906105f79190611f81565b610e1f565b005b34801561060a57600080fd5b50610613610f85565b60405161062091906125fe565b60405180910390f35b34801561063557600080fd5b5061063e610fa9565b60405161064b9190612880565b60405180910390f35b34801561066057600080fd5b50610669610fb2565b60405161067691906125c8565b60405180910390f35b34801561068b57600080fd5b506106a660048036038101906106a19190611f81565b610fd6565b005b60007f7965db0b000000000000000000000000000000000000000000000000000000007bffffffffffffffffffffffffffffffffffffffffffffffffffffffff1916827bffffffffffffffffffffffffffffffffffffffffffffffffffffffff1916148061071b575061071a82611028565b5b9050919050565b600061072c610b90565b341461076d576040517f08c379a000000000000000000000000000000000000000000000000000000000815260040161076490612720565b60405180910390fd5b60008b116107b0576040517f08c379a00000000000000000000000000000000000000000000000000000000081526004016107a790612700565b60405180910390fd5b60008a116107f3576040517f08c379a00000000000000000000000000000000000000000000000000000000081526004016107ea90612800565b60405180910390fd5b8a8a11610835576040517f08c379a000000000000000000000000000000000000000000000000000000000815260040161082c90612760565b60405180910390fd5b60006108607f0000000000000000000000000000000000000000000000000000000000000000611092565b90508073ffffffffffffffffffffffffffffffffffffffff1663c170fc928e8e8e8e8e8e8e8e8e8e8e6040518c63ffffffff1660e01b81526004016108af9b9a9998979695949392919061289b565b600060405180830381600087803b1580156108c957600080fd5b505af11580156108dd573d6000803e3d6000fd5b505050508073ffffffffffffffffffffffffffffffffffffffff1663f2fde38b610905611167565b6040518263ffffffff1660e01b815260040161092191906125c8565b600060405180830381600087803b15801561093b57600080fd5b505af115801561094f573d6000803e3d6000fd5b505050506001549150806003600084815260200190815260200160002060006101000a81548173ffffffffffffffffffffffffffffffffffffffff021916908373ffffffffffffffffffffffffffffffffffffffff160217905550818173ffffffffffffffffffffffffffffffffffffffff167fac100e67e29f770c65d8049cdf0b746851e89c395ca9d80fcbaaebc0d38cf65e60405160405180910390a360016000815480929190610a0190612be3565b9190505550509b9a5050505050505050505050565b60008173ffffffffffffffffffffffffffffffffffffffff16600560009054906101000a900473ffffffffffffffffffffffffffffffffffffffff1673ffffffffffffffffffffffffffffffffffffffff16149050919050565b60006003600083815260200190815260200160002060009054906101000a900473ffffffffffffffffffffffffffffffffffffffff169050919050565b6000610ab883610a70565b73ffffffffffffffffffffffffffffffffffffffff1663adf2cead836040518263ffffffff1660e01b8152600401610af091906125fe565b602060405180830381600087803b158015610b0a57600080fd5b505af1158015610b1e573d6000803e3d6000fd5b505050506040513d601f19601f82011682018060405250810190610b429190612061565b905092915050565b6000806000838152602001908152602001600020600101549050919050565b60015481565b610b7882610b4a565b610b818161116f565b610b8b8383611183565b505050565b60008060045414610bbf576004546305f5e100600254610bb09190612a50565b610bba91906129e3565b610bc2565b60005b905090565b610bcf611167565b73ffffffffffffffffffffffffffffffffffffffff168173ffffffffffffffffffffffffffffffffffffffff1614610c3c576040517f08c379a0000000000000000000000000000000000000000000000000000000008152600401610c3390612860565b60405180910390fd5b610c468282611263565b5050565b600560009054906101000a900473ffffffffffffffffffffffffffffffffffffffff1681565b6000600f905090565b60025481565b60036020528060005260406000206000915054906101000a900473ffffffffffffffffffffffffffffffffffffffff1681565b600081610cbd610c70565b42610cc8919061298d565b11610d08576040517f08c379a0000000000000000000000000000000000000000000000000000000008152600401610cff90612820565b60405180910390fd5b81421080610d275750610d19610fa9565b8242610d259190612aaa565b105b9050919050565b6402540be400610d5d7f0000000000000000000000000000000000000000000000000000000000000000611344565b610d679190612a50565b600481905550565b600080600084815260200190815260200160002060000160008373ffffffffffffffffffffffffffffffffffffffff1673ffffffffffffffffffffffffffffffffffffffff16815260200190815260200160002060009054906101000a900460ff16905092915050565b6000801b610de68161116f565b816002819055505050565b60045481565b6000801b81565b610e0782610b4a565b610e108161116f565b610e1a8383611263565b505050565b6000801b610e2c8161116f565b600073ffffffffffffffffffffffffffffffffffffffff168273ffffffffffffffffffffffffffffffffffffffff161415610e9c576040517f08c379a0000000000000000000000000000000000000000000000000000000008152600401610e93906127e0565b60405180910390fd5b600047905060008111610ee4576040517f08c379a0000000000000000000000000000000000000000000000000000000008152600401610edb90612840565b60405180910390fd5b8273ffffffffffffffffffffffffffffffffffffffff166108fc829081150290604051600060405180830381858888f19350505050158015610f2a573d6000803e3d6000fd5b50610f33611167565b73ffffffffffffffffffffffffffffffffffffffff167f7e8bfbce8498a152a0bedcf83edec38ffb0a13b19a197cb7c2686fc6371013ab82604051610f789190612880565b60405180910390a2505050565b7f000000000000000000000000000000000000000000000000000000000000000081565b600060b4905090565b7f000000000000000000000000000000000000000000000000000000000000000081565b6000801b610fe38161116f565b81600560006101000a81548173ffffffffffffffffffffffffffffffffffffffff021916908373ffffffffffffffffffffffffffffffffffffffff1602179055505050565b60007f01ffc9a7000000000000000000000000000000000000000000000000000000007bffffffffffffffffffffffffffffffffffffffffffffffffffffffff1916827bffffffffffffffffffffffffffffffffffffffffffffffffffffffff1916149050919050565b60006040517f3d602d80600a3d3981f3363d3d373d3d3d363d7300000000000000000000000081528260601b60148201527f5af43d82803e903d91602b57fd5bf3000000000000000000000000000000000060288201526037816000f0915050600073ffffffffffffffffffffffffffffffffffffffff168173ffffffffffffffffffffffffffffffffffffffff161415611162576040517f08c379a0000000000000000000000000000000000000000000000000000000008152600401611159906127a0565b60405180910390fd5b919050565b600033905090565b6111808161117b611167565b611452565b50565b61118d8282610d6f565b61125f57600160008084815260200190815260200160002060000160008373ffffffffffffffffffffffffffffffffffffffff1673ffffffffffffffffffffffffffffffffffffffff16815260200190815260200160002060006101000a81548160ff021916908315150217905550611204611167565b73ffffffffffffffffffffffffffffffffffffffff168173ffffffffffffffffffffffffffffffffffffffff16837f2f8788117e7eff1d82e926ec794901d17c78024a50270940304540a733656f0d60405160405180910390a45b5050565b61126d8282610d6f565b1561134057600080600084815260200190815260200160002060000160008373ffffffffffffffffffffffffffffffffffffffff1673ffffffffffffffffffffffffffffffffffffffff16815260200190815260200160002060006101000a81548160ff0219169083151502179055506112e5611167565b73ffffffffffffffffffffffffffffffffffffffff168173ffffffffffffffffffffffffffffffffffffffff16837ff6391f5c32d9c69d2a47ea670b442974b53935d1edc7fd64eb21e047a839171b60405160405180910390a45b5050565b600080600167ffffffffffffffff811115611388577f4e487b7100000000000000000000000000000000000000000000000000000000600052604160045260246000fd5b6040519080825280602002602001820160405280156113b65781602001602082028036833780820191505090505b50905082816000815181106113f4577f4e487b7100000000000000000000000000000000000000000000000000000000600052603260045260246000fd5b602002602001018181525050611409816114ef565b600081518110611442577f4e487b7100000000000000000000000000000000000000000000000000000000600052603260045260246000fd5b6020026020010151915050919050565b61145c8282610d6f565b6114eb576114818173ffffffffffffffffffffffffffffffffffffffff166014611657565b61148f8360001c6020611657565b6040516020016114a092919061258e565b6040516020818303038152906040526040517f08c379a00000000000000000000000000000000000000000000000000000000081526004016114e2919061265e565b60405180910390fd5b5050565b60606000606136033590506000602060408360ff1661150e9190612a14565b6115189190612955565b905060606040519050818152816042830136036020830137602081016040526000818051906020012090506000816040516020016115569190612568565b60405160208183030381529060405280519060200120905060606040519050604181526041803603602083013760208101604052600061159f828461195190919063ffffffff16565b90506115aa81610a16565b6115e9576040517f08c379a00000000000000000000000000000000000000000000000000000000081526004016115e090612740565b60405180910390fd5b6000606236033590506115fb81610cb2565b61163a576040517f08c379a0000000000000000000000000000000000000000000000000000000008152600401611631906126e0565b60405180910390fd5b6116488a8960ff1689611978565b98505050505050505050919050565b60606000600283600261166a9190612a50565b611674919061298d565b67ffffffffffffffff8111156116b3577f4e487b7100000000000000000000000000000000000000000000000000000000600052604160045260246000fd5b6040519080825280601f01601f1916602001820160405280156116e55781602001600182028036833780820191505090505b5090507f300000000000000000000000000000000000000000000000000000000000000081600081518110611743577f4e487b7100000000000000000000000000000000000000000000000000000000600052603260045260246000fd5b60200101907effffffffffffffffffffffffffffffffffffffffffffffffffffffffffffff1916908160001a9053507f7800000000000000000000000000000000000000000000000000000000000000816001815181106117cd577f4e487b7100000000000000000000000000000000000000000000000000000000600052603260045260246000fd5b60200101907effffffffffffffffffffffffffffffffffffffffffffffffffffffffffffff1916908160001a9053506000600184600261180d9190612a50565b611817919061298d565b90505b6001811115611903577f3031323334353637383961626364656600000000000000000000000000000000600f86166010811061187f577f4e487b7100000000000000000000000000000000000000000000000000000000600052603260045260246000fd5b1a60f81b8282815181106118bc577f4e487b7100000000000000000000000000000000000000000000000000000000600052603260045260246000fd5b60200101907effffffffffffffffffffffffffffffffffffffffffffffffffffffffffffff1916908160001a905350600485901c9450806118fc90612bb9565b905061181a565b5060008414611947576040517f08c379a000000000000000000000000000000000000000000000000000000000815260040161193e906126a0565b60405180910390fd5b8091505092915050565b60008060006119608585611a1e565b9150915061196d81611a70565b819250505092915050565b6060806000806000806042870136035995508951865260208a51026020870101604052600094505b8951851015611a0e576020850260208b0101519150600093505b88841015611a0357816040850282013514156119eb5760206040850282010135602086026020880101526001830192505b89518314156119f8578894505b6001840193506119ba565b6001850194506119a0565b5084955050505050509392505050565b600080604183511415611a605760008060006020860151925060408601519150606086015160001a9050611a5487828585611dc1565b94509450505050611a69565b60006002915091505b9250929050565b60006004811115611aaa577f4e487b7100000000000000000000000000000000000000000000000000000000600052602160045260246000fd5b816004811115611ae3577f4e487b7100000000000000000000000000000000000000000000000000000000600052602160045260246000fd5b1415611aee57611dbe565b60016004811115611b28577f4e487b7100000000000000000000000000000000000000000000000000000000600052602160045260246000fd5b816004811115611b61577f4e487b7100000000000000000000000000000000000000000000000000000000600052602160045260246000fd5b1415611ba2576040517f08c379a0000000000000000000000000000000000000000000000000000000008152600401611b9990612680565b60405180910390fd5b60026004811115611bdc577f4e487b7100000000000000000000000000000000000000000000000000000000600052602160045260246000fd5b816004811115611c15577f4e487b7100000000000000000000000000000000000000000000000000000000600052602160045260246000fd5b1415611c56576040517f08c379a0000000000000000000000000000000000000000000000000000000008152600401611c4d906126c0565b60405180910390fd5b60036004811115611c90577f4e487b7100000000000000000000000000000000000000000000000000000000600052602160045260246000fd5b816004811115611cc9577f4e487b7100000000000000000000000000000000000000000000000000000000600052602160045260246000fd5b1415611d0a576040517f08c379a0000000000000000000000000000000000000000000000000000000008152600401611d0190612780565b60405180910390fd5b600480811115611d43577f4e487b7100000000000000000000000000000000000000000000000000000000600052602160045260246000fd5b816004811115611d7c577f4e487b7100000000000000000000000000000000000000000000000000000000600052602160045260246000fd5b1415611dbd576040517f08c379a0000000000000000000000000000000000000000000000000000000008152600401611db4906127c0565b60405180910390fd5b5b50565b6000807f7fffffffffffffffffffffffffffffff5d576e7357a4501ddfe92f46681b20a08360001c1115611dfc576000600391509150611ec5565b601b8560ff1614158015611e145750601c8560ff1614155b15611e26576000600491509150611ec5565b600060018787878760405160008152602001604052604051611e4b9493929190612619565b6020604051602081039080840390855afa158015611e6d573d6000803e3d6000fd5b505050602060405103519050600073ffffffffffffffffffffffffffffffffffffffff168173ffffffffffffffffffffffffffffffffffffffff161415611ebc57600060019250925050611ec5565b80600092509250505b94509492505050565b600081359050611edd816130ba565b92915050565b600081359050611ef2816130d1565b92915050565b600081359050611f07816130e8565b92915050565b60008083601f840112611f1f57600080fd5b8235905067ffffffffffffffff811115611f3857600080fd5b602083019150836001820283011115611f5057600080fd5b9250929050565b600081359050611f66816130ff565b92915050565b600081519050611f7b816130ff565b92915050565b600060208284031215611f9357600080fd5b6000611fa184828501611ece565b91505092915050565b600060208284031215611fbc57600080fd5b6000611fca84828501611ee3565b91505092915050565b60008060408385031215611fe657600080fd5b6000611ff485828601611ee3565b925050602061200585828601611ece565b9150509250929050565b60006020828403121561202157600080fd5b600061202f84828501611ef8565b91505092915050565b60006020828403121561204a57600080fd5b600061205884828501611f57565b91505092915050565b60006020828403121561207357600080fd5b600061208184828501611f6c565b91505092915050565b6000806040838503121561209d57600080fd5b60006120ab85828601611f57565b92505060206120bc85828601611ee3565b9150509250929050565b600080600080600080600080600080600060e08c8e0312156120e757600080fd5b60006120f58e828f01611f57565b9b505060206121068e828f01611f57565b9a505060406121178e828f01611f57565b99505060608c013567ffffffffffffffff81111561213457600080fd5b6121408e828f01611f0d565b985098505060808c013567ffffffffffffffff81111561215f57600080fd5b61216b8e828f01611f0d565b965096505060a08c013567ffffffffffffffff81111561218a57600080fd5b6121968e828f01611f0d565b945094505060c08c013567ffffffffffffffff8111156121b557600080fd5b6121c18e828f01611f0d565b92509250509295989b509295989b9093969950565b6121df81612ade565b82525050565b6121ee81612af0565b82525050565b6121fd81612afc565b82525050565b61221461220f82612afc565b612c2c565b82525050565b60006122268385612939565b9350612233838584612b77565b61223c83612c94565b840190509392505050565b60006122528261292e565b61225c8185612939565b935061226c818560208601612b86565b61227581612c94565b840191505092915050565b600061228b8261292e565b612295818561294a565b93506122a5818560208601612b86565b80840191505092915050565b60006122be601883612939565b91506122c982612ca5565b602082019050919050565b60006122e1602083612939565b91506122ec82612cce565b602082019050919050565b6000612304601f83612939565b915061230f82612cf7565b602082019050919050565b6000612327601c8361294a565b915061233282612d20565b601c82019050919050565b600061234a601983612939565b915061235582612d49565b602082019050919050565b600061236d602483612939565b915061237882612d72565b604082019050919050565b6000612390600d83612939565b915061239b82612dc1565b602082019050919050565b60006123b3601583612939565b91506123be82612dea565b602082019050919050565b60006123d6602883612939565b91506123e182612e13565b604082019050919050565b60006123f9602283612939565b915061240482612e62565b604082019050919050565b600061241c601683612939565b915061242782612eb1565b602082019050919050565b600061243f602283612939565b915061244a82612eda565b604082019050919050565b6000612462601f83612939565b915061246d82612f29565b602082019050919050565b6000612485602283612939565b915061249082612f52565b604082019050919050565b60006124a8602a83612939565b91506124b382612fa1565b604082019050919050565b60006124cb60178361294a565b91506124d682612ff0565b601782019050919050565b60006124ee601483612939565b91506124f982613019565b602082019050919050565b600061251160118361294a565b915061251c82613042565b601182019050919050565b6000612534602f83612939565b915061253f8261306b565b604082019050919050565b61255381612b60565b82525050565b61256281612b6a565b82525050565b60006125738261231a565b915061257f8284612203565b60208201915081905092915050565b6000612599826124be565b91506125a58285612280565b91506125b082612504565b91506125bc8284612280565b91508190509392505050565b60006020820190506125dd60008301846121d6565b92915050565b60006020820190506125f860008301846121e5565b92915050565b600060208201905061261360008301846121f4565b92915050565b600060808201905061262e60008301876121f4565b61263b6020830186612559565b61264860408301856121f4565b61265560608301846121f4565b95945050505050565b600060208201905081810360008301526126788184612247565b905092915050565b60006020820190508181036000830152612699816122b1565b9050919050565b600060208201905081810360008301526126b9816122d4565b9050919050565b600060208201905081810360008301526126d9816122f7565b9050919050565b600060208201905081810360008301526126f98161233d565b9050919050565b6000602082019050818103600083015261271981612360565b9050919050565b6000602082019050818103600083015261273981612383565b9050919050565b60006020820190508181036000830152612759816123a6565b9050919050565b60006020820190508181036000830152612779816123c9565b9050919050565b60006020820190508181036000830152612799816123ec565b9050919050565b600060208201905081810360008301526127b98161240f565b9050919050565b600060208201905081810360008301526127d981612432565b9050919050565b600060208201905081810360008301526127f981612455565b9050919050565b6000602082019050818103600083015261281981612478565b9050919050565b600060208201905081810360008301526128398161249b565b9050919050565b60006020820190508181036000830152612859816124e1565b9050919050565b6000602082019050818103600083015261287981612527565b9050919050565b6000602082019050612895600083018461254a565b92915050565b600060e0820190506128b0600083018e61254a565b6128bd602083018d61254a565b6128ca604083018c61254a565b81810360608301526128dd818a8c61221a565b905081810360808301526128f281888a61221a565b905081810360a083015261290781868861221a565b905081810360c083015261291c81848661221a565b90509c9b505050505050505050505050565b600081519050919050565b600082825260208201905092915050565b600081905092915050565b600061296082612b32565b915061296b83612b32565b92508261ffff0382111561298257612981612c36565b5b828201905092915050565b600061299882612b60565b91506129a383612b60565b9250827fffffffffffffffffffffffffffffffffffffffffffffffffffffffffffffffff038211156129d8576129d7612c36565b5b828201905092915050565b60006129ee82612b60565b91506129f983612b60565b925082612a0957612a08612c65565b5b828204905092915050565b6000612a1f82612b32565b9150612a2a83612b32565b92508161ffff0483118215151615612a4557612a44612c36565b5b828202905092915050565b6000612a5b82612b60565b9150612a6683612b60565b9250817fffffffffffffffffffffffffffffffffffffffffffffffffffffffffffffffff0483118215151615612a9f57612a9e612c36565b5b828202905092915050565b6000612ab582612b60565b9150612ac083612b60565b925082821015612ad357612ad2612c36565b5b828203905092915050565b6000612ae982612b40565b9050919050565b60008115159050919050565b6000819050919050565b60007fffffffff0000000000000000000000000000000000000000000000000000000082169050919050565b600061ffff82169050919050565b600073ffffffffffffffffffffffffffffffffffffffff82169050919050565b6000819050919050565b600060ff82169050919050565b82818337600083830152505050565b60005b83811015612ba4578082015181840152602081019050612b89565b83811115612bb3576000848401525b50505050565b6000612bc482612b60565b91506000821415612bd857612bd7612c36565b5b600182039050919050565b6000612bee82612b60565b91507fffffffffffffffffffffffffffffffffffffffffffffffffffffffffffffffff821415612c2157612c20612c36565b5b600182019050919050565b6000819050919050565b7f4e487b7100000000000000000000000000000000000000000000000000000000600052601160045260246000fd5b7f4e487b7100000000000000000000000000000000000000000000000000000000600052601260045260246000fd5b6000601f19601f8301169050919050565b7f45434453413a20696e76616c6964207369676e61747572650000000000000000600082015250565b7f537472696e67733a20686578206c656e67746820696e73756666696369656e74600082015250565b7f45434453413a20696e76616c6964207369676e6174757265206c656e67746800600082015250565b7f19457468657265756d205369676e6564204d6573736167653a0a333200000000600082015250565b7f446174612074696d657374616d7020697320696e76616c696400000000000000600082015250565b7f7374617274446174655f206d7573742062652067726561746572207468616e2060008201527f7a65726f00000000000000000000000000000000000000000000000000000000602082015250565b7f696e636f72726563742066656500000000000000000000000000000000000000600082015250565b7f5369676e6572206e6f7420617574686f72697a65640000000000000000000000600082015250565b7f656e64446174655f206d7573742062652067726561746572207468616e20737460008201527f617274446174655f000000000000000000000000000000000000000000000000602082015250565b7f45434453413a20696e76616c6964207369676e6174757265202773272076616c60008201527f7565000000000000000000000000000000000000000000000000000000000000602082015250565b7f455243313136373a20637265617465206661696c656400000000000000000000600082015250565b7f45434453413a20696e76616c6964207369676e6174757265202776272076616c60008201527f7565000000000000000000000000000000000000000000000000000000000000602082015250565b7f63616e6e6f7420776974686472617720746f207a65726f206164647265737300600082015250565b7f656e64446174655f206d7573742062652067726561746572207468616e207a6560008201527f726f000000000000000000000000000000000000000000000000000000000000602082015250565b7f446174612077697468206675747572652074696d657374616d7073206973206e60008201527f6f7420616c6c6f77656400000000000000000000000000000000000000000000602082015250565b7f416363657373436f6e74726f6c3a206163636f756e7420000000000000000000600082015250565b7f6e6f20657468657220746f207769746864726177000000000000000000000000600082015250565b7f206973206d697373696e6720726f6c6520000000000000000000000000000000600082015250565b7f416363657373436f6e74726f6c3a2063616e206f6e6c792072656e6f756e636560008201527f20726f6c657320666f722073656c660000000000000000000000000000000000602082015250565b6130c381612ade565b81146130ce57600080fd5b50565b6130da81612afc565b81146130e557600080fd5b50565b6130f181612b06565b81146130fc57600080fd5b50565b61310881612b60565b811461311357600080fd5b5056fea26469706673582212202779fa307d9ef8e4abb6c9566fa9f8404e30c3ceab239a8ed7c7af71f9c4aa5564736f6c63430008040033",
  "linkReferences": {},
  "deployedLinkReferences": {}
}