{
  "_format": "hh-sol-artifact-1",
  "contractName": "SarauNFT",
  "sourceName": "contracts/SarauNFT.sol",
  "abi": [
    {
      "inputs": [],
      "name": "ApprovalCallerNotOwnerNorApproved",
      "type": "error"
    },
    {
      "inputs": [],
      "name": "ApprovalQueryForNonexistentToken",
      "type": "error"
    },
    {
      "inputs": [],
      "name": "ApproveToCaller",
      "type": "error"
    },
    {
      "inputs": [],
      "name": "BalanceQueryForZeroAddress",
      "type": "error"
    },
    {
      "inputs": [],
      "name": "MintERC2309QuantityExceedsLimit",
      "type": "error"
    },
    {
      "inputs": [],
      "name": "MintToZeroAddress",
      "type": "error"
    },
    {
      "inputs": [],
      "name": "MintZeroQuantity",
      "type": "error"
    },
    {
      "inputs": [],
      "name": "OwnerQueryForNonexistentToken",
      "type": "error"
    },
    {
      "inputs": [],
      "name": "OwnershipNotInitializedForExtraData",
      "type": "error"
    },
    {
      "inputs": [],
      "name": "TransferCallerNotOwnerNorApproved",
      "type": "error"
    },
    {
      "inputs": [],
      "name": "TransferFromIncorrectOwner",
      "type": "error"
    },
    {
      "inputs": [],
      "name": "TransferToNonERC721ReceiverImplementer",
      "type": "error"
    },
    {
      "inputs": [],
      "name": "TransferToZeroAddress",
      "type": "error"
    },
    {
      "inputs": [],
      "name": "URIQueryForNonexistentToken",
      "type": "error"
    },
    {
      "anonymous": false,
      "inputs": [
        {
          "indexed": true,
          "internalType": "address",
          "name": "owner",
          "type": "address"
        },
        {
          "indexed": true,
          "internalType": "address",
          "name": "approved",
          "type": "address"
        },
        {
          "indexed": true,
          "internalType": "uint256",
          "name": "tokenId",
          "type": "uint256"
        }
      ],
      "name": "Approval",
      "type": "event"
    },
    {
      "anonymous": false,
      "inputs": [
        {
          "indexed": true,
          "internalType": "address",
          "name": "owner",
          "type": "address"
        },
        {
          "indexed": true,
          "internalType": "address",
          "name": "operator",
          "type": "address"
        },
        {
          "indexed": false,
          "internalType": "bool",
          "name": "approved",
          "type": "bool"
        }
      ],
      "name": "ApprovalForAll",
      "type": "event"
    },
    {
      "anonymous": false,
      "inputs": [
        {
          "indexed": true,
          "internalType": "uint256",
          "name": "fromTokenId",
          "type": "uint256"
        },
        {
          "indexed": false,
          "internalType": "uint256",
          "name": "toTokenId",
          "type": "uint256"
        },
        {
          "indexed": true,
          "internalType": "address",
          "name": "from",
          "type": "address"
        },
        {
          "indexed": true,
          "internalType": "address",
          "name": "to",
          "type": "address"
        }
      ],
      "name": "ConsecutiveTransfer",
      "type": "event"
    },
    {
      "anonymous": false,
      "inputs": [
        {
          "indexed": false,
          "internalType": "uint8",
          "name": "version",
          "type": "uint8"
        }
      ],
      "name": "Initialized",
      "type": "event"
    },
    {
      "anonymous": false,
      "inputs": [
        {
          "indexed": true,
          "internalType": "bytes32",
          "name": "role",
          "type": "bytes32"
        },
        {
          "indexed": true,
          "internalType": "bytes32",
          "name": "previousAdminRole",
          "type": "bytes32"
        },
        {
          "indexed": true,
          "internalType": "bytes32",
          "name": "newAdminRole",
          "type": "bytes32"
        }
      ],
      "name": "RoleAdminChanged",
      "type": "event"
    },
    {
      "anonymous": false,
      "inputs": [
        {
          "indexed": true,
          "internalType": "bytes32",
          "name": "role",
          "type": "bytes32"
        },
        {
          "indexed": true,
          "internalType": "address",
          "name": "account",
          "type": "address"
        },
        {
          "indexed": true,
          "internalType": "address",
          "name": "sender",
          "type": "address"
        }
      ],
      "name": "RoleGranted",
      "type": "event"
    },
    {
      "anonymous": false,
      "inputs": [
        {
          "indexed": true,
          "internalType": "bytes32",
          "name": "role",
          "type": "bytes32"
        },
        {
          "indexed": true,
          "internalType": "address",
          "name": "account",
          "type": "address"
        },
        {
          "indexed": true,
          "internalType": "address",
          "name": "sender",
          "type": "address"
        }
      ],
      "name": "RoleRevoked",
      "type": "event"
    },
    {
      "anonymous": false,
      "inputs": [
        {
          "indexed": true,
          "internalType": "address",
          "name": "from",
          "type": "address"
        },
        {
          "indexed": true,
          "internalType": "address",
          "name": "to",
          "type": "address"
        },
        {
          "indexed": true,
          "internalType": "uint256",
          "name": "tokenId",
          "type": "uint256"
        }
      ],
      "name": "Transfer",
      "type": "event"
    },
    {
      "inputs": [],
      "name": "DEFAULT_ADMIN_ROLE",
      "outputs": [
        {
          "internalType": "bytes32",
          "name": "",
          "type": "bytes32"
        }
      ],
      "stateMutability": "view",
      "type": "function"
    },
    {
      "inputs": [],
      "name": "MINTER_ROLE",
      "outputs": [
        {
          "internalType": "bytes32",
          "name": "",
          "type": "bytes32"
        }
      ],
      "stateMutability": "view",
      "type": "function"
    },
    {
      "inputs": [
        {
          "internalType": "address",
          "name": "to",
          "type": "address"
        },
        {
          "internalType": "uint256",
          "name": "tokenId",
          "type": "uint256"
        }
      ],
      "name": "approve",
      "outputs": [],
      "stateMutability": "nonpayable",
      "type": "function"
    },
    {
      "inputs": [
        {
          "internalType": "address",
          "name": "owner",
          "type": "address"
        }
      ],
      "name": "balanceOf",
      "outputs": [
        {
          "internalType": "uint256",
          "name": "",
          "type": "uint256"
        }
      ],
      "stateMutability": "view",
      "type": "function"
    },
    {
      "inputs": [],
      "name": "endDate",
      "outputs": [
        {
          "internalType": "uint256",
          "name": "",
          "type": "uint256"
        }
      ],
      "stateMutability": "view",
      "type": "function"
    },
    {
      "inputs": [
        {
          "internalType": "uint256",
          "name": "tokenId",
          "type": "uint256"
        }
      ],
      "name": "getApproved",
      "outputs": [
        {
          "internalType": "address",
          "name": "",
          "type": "address"
        }
      ],
      "stateMutability": "view",
      "type": "function"
    },
    {
      "inputs": [
        {
          "internalType": "bytes32",
          "name": "role",
          "type": "bytes32"
        }
      ],
      "name": "getRoleAdmin",
      "outputs": [
        {
          "internalType": "bytes32",
          "name": "",
          "type": "bytes32"
        }
      ],
      "stateMutability": "view",
      "type": "function"
    },
    {
      "inputs": [
        {
          "internalType": "bytes32",
          "name": "role",
          "type": "bytes32"
        },
        {
          "internalType": "address",
          "name": "account",
          "type": "address"
        }
      ],
      "name": "grantRole",
      "outputs": [],
      "stateMutability": "nonpayable",
      "type": "function"
    },
    {
      "inputs": [
        {
          "internalType": "bytes32",
          "name": "role",
          "type": "bytes32"
        },
        {
          "internalType": "address",
          "name": "account",
          "type": "address"
        }
      ],
      "name": "hasRole",
      "outputs": [
        {
          "internalType": "bool",
          "name": "",
          "type": "bool"
        }
      ],
      "stateMutability": "view",
      "type": "function"
    },
    {
      "inputs": [],
      "name": "homepage",
      "outputs": [
        {
          "internalType": "string",
          "name": "",
          "type": "string"
        }
      ],
      "stateMutability": "view",
      "type": "function"
    },
    {
      "inputs": [
        {
          "internalType": "uint256",
          "name": "maxMint_",
          "type": "uint256"
        },
        {
          "internalType": "uint256",
          "name": "startDate_",
          "type": "uint256"
        },
        {
          "internalType": "uint256",
          "name": "endDate_",
          "type": "uint256"
        },
        {
          "internalType": "string",
          "name": "homepage_",
          "type": "string"
        },
        {
          "internalType": "string",
          "name": "name_",
          "type": "string"
        },
        {
          "internalType": "string",
          "name": "symbol_",
          "type": "string"
        },
        {
          "internalType": "string",
          "name": "tokenURI_",
          "type": "string"
        }
      ],
      "name": "initialize",
      "outputs": [],
      "stateMutability": "nonpayable",
      "type": "function"
    },
    {
      "inputs": [
        {
          "internalType": "address",
          "name": "owner",
          "type": "address"
        },
        {
          "internalType": "address",
          "name": "operator",
          "type": "address"
        }
      ],
      "name": "isApprovedForAll",
      "outputs": [
        {
          "internalType": "bool",
          "name": "",
          "type": "bool"
        }
      ],
      "stateMutability": "view",
      "type": "function"
    },
    {
      "inputs": [],
      "name": "maxMint",
      "outputs": [
        {
          "internalType": "uint256",
          "name": "",
          "type": "uint256"
        }
      ],
      "stateMutability": "view",
      "type": "function"
    },
    {
      "inputs": [
        {
          "internalType": "uint256",
          "name": "amount",
          "type": "uint256"
        },
        {
          "internalType": "address",
          "name": "_to",
          "type": "address"
        },
        {
          "internalType": "bytes32",
          "name": "code_",
          "type": "bytes32"
        }
      ],
      "name": "mintTo",
      "outputs": [],
      "stateMutability": "nonpayable",
      "type": "function"
    },
    {
      "inputs": [],
      "name": "name",
      "outputs": [
        {
          "internalType": "string",
          "name": "",
          "type": "string"
        }
      ],
      "stateMutability": "view",
      "type": "function"
    },
    {
      "inputs": [
        {
          "internalType": "uint256",
          "name": "tokenId",
          "type": "uint256"
        }
      ],
      "name": "ownerOf",
      "outputs": [
        {
          "internalType": "address",
          "name": "",
          "type": "address"
        }
      ],
      "stateMutability": "view",
      "type": "function"
    },
    {
      "inputs": [
        {
          "internalType": "bytes32",
          "name": "role",
          "type": "bytes32"
        },
        {
          "internalType": "address",
          "name": "account",
          "type": "address"
        }
      ],
      "name": "renounceRole",
      "outputs": [],
      "stateMutability": "nonpayable",
      "type": "function"
    },
    {
      "inputs": [
        {
          "internalType": "bytes32",
          "name": "role",
          "type": "bytes32"
        },
        {
          "internalType": "address",
          "name": "account",
          "type": "address"
        }
      ],
      "name": "revokeRole",
      "outputs": [],
      "stateMutability": "nonpayable",
      "type": "function"
    },
    {
      "inputs": [
        {
          "internalType": "address",
          "name": "from",
          "type": "address"
        },
        {
          "internalType": "address",
          "name": "to",
          "type": "address"
        },
        {
          "internalType": "uint256",
          "name": "tokenId",
          "type": "uint256"
        }
      ],
      "name": "safeTransferFrom",
      "outputs": [],
      "stateMutability": "nonpayable",
      "type": "function"
    },
    {
      "inputs": [
        {
          "internalType": "address",
          "name": "from",
          "type": "address"
        },
        {
          "internalType": "address",
          "name": "to",
          "type": "address"
        },
        {
          "internalType": "uint256",
          "name": "tokenId",
          "type": "uint256"
        },
        {
          "internalType": "bytes",
          "name": "_data",
          "type": "bytes"
        }
      ],
      "name": "safeTransferFrom",
      "outputs": [],
      "stateMutability": "nonpayable",
      "type": "function"
    },
    {
      "inputs": [
        {
          "internalType": "address",
          "name": "operator",
          "type": "address"
        },
        {
          "internalType": "bool",
          "name": "approved",
          "type": "bool"
        }
      ],
      "name": "setApprovalForAll",
      "outputs": [],
      "stateMutability": "nonpayable",
      "type": "function"
    },
    {
      "inputs": [
        {
          "internalType": "bytes32",
          "name": "code_",
          "type": "bytes32"
        }
      ],
      "name": "setCode",
      "outputs": [],
      "stateMutability": "nonpayable",
      "type": "function"
    },
    {
      "inputs": [],
      "name": "startDate",
      "outputs": [
        {
          "internalType": "uint256",
          "name": "",
          "type": "uint256"
        }
      ],
      "stateMutability": "view",
      "type": "function"
    },
    {
      "inputs": [
        {
          "internalType": "bytes4",
          "name": "interfaceId",
          "type": "bytes4"
        }
      ],
      "name": "supportsInterface",
      "outputs": [
        {
          "internalType": "bool",
          "name": "",
          "type": "bool"
        }
      ],
      "stateMutability": "view",
      "type": "function"
    },
    {
      "inputs": [],
      "name": "symbol",
      "outputs": [
        {
          "internalType": "string",
          "name": "",
          "type": "string"
        }
      ],
      "stateMutability": "view",
      "type": "function"
    },
    {
      "inputs": [
        {
          "internalType": "uint256",
          "name": "tokenId",
          "type": "uint256"
        }
      ],
      "name": "tokenURI",
      "outputs": [
        {
          "internalType": "string",
          "name": "",
          "type": "string"
        }
      ],
      "stateMutability": "view",
      "type": "function"
    },
    {
      "inputs": [],
      "name": "totalSupply",
      "outputs": [
        {
          "internalType": "uint256",
          "name": "",
          "type": "uint256"
        }
      ],
      "stateMutability": "view",
      "type": "function"
    },
    {
      "inputs": [
        {
          "internalType": "address",
          "name": "from",
          "type": "address"
        },
        {
          "internalType": "address",
          "name": "to",
          "type": "address"
        },
        {
          "internalType": "uint256",
          "name": "tokenId",
          "type": "uint256"
        }
      ],
      "name": "transferFrom",
      "outputs": [],
      "stateMutability": "nonpayable",
      "type": "function"
    }
  ],
  "bytecode": "0x608060405234801561001057600080fd5b50613646806100206000396000f3fe608060405234801561001057600080fd5b50600436106101c45760003560e01c806370a08231116100f9578063b9ef767f11610097578063c87b56dd11610071578063c87b56dd146104f1578063d539139314610521578063d547741f1461053f578063e985e9c51461055b576101c4565b8063b9ef767f1461049b578063c170fc92146104b7578063c24a0f8b146104d3576101c4565b806395d89b41116100d357806395d89b4114610427578063a217fddf14610445578063a22cb46514610463578063b88d4fde1461047f576101c4565b806370a08231146103a95780637501f741146103d957806391d14854146103f7576101c4565b8063248a9ca31161016657806342842e0e1161014057806342842e0e14610323578063507411a31461033f5780636352211e1461035b578063686c4d3c1461038b576101c4565b8063248a9ca3146102bb5780632f2ff15d146102eb57806336568abe14610307576101c4565b8063095ea7b3116101a2578063095ea7b3146102475780630b97bc861461026357806318160ddd1461028157806323b872dd1461029f576101c4565b806301ffc9a7146101c957806306fdde03146101f9578063081812fc14610217575b600080fd5b6101e360048036038101906101de9190612a09565b61058b565b6040516101f09190612ead565b60405180910390f35b610201610605565b60405161020e9190612efe565b60405180910390f35b610231600480360381019061022c9190612a5b565b6106a0565b60405161023e9190612e46565b60405180910390f35b610261600480360381019061025c9190612968565b610728565b005b61026b610875565b6040516102789190613000565b60405180910390f35b61028961087b565b6040516102969190613000565b60405180910390f35b6102b960048036038101906102b49190612862565b6108a4565b005b6102d560048036038101906102d091906129a4565b610bff565b6040516102e29190612ec8565b60405180910390f35b610305600480360381019061030091906129cd565b610c1f565b005b610321600480360381019061031c91906129cd565b610c40565b005b61033d60048036038101906103389190612862565b610cc3565b005b61035960048036038101906103549190612a84565b610ce3565b005b61037560048036038101906103709190612a5b565b610d61565b6040516103829190612e46565b60405180910390f35b610393610d73565b6040516103a09190612efe565b60405180910390f35b6103c360048036038101906103be91906127fd565b610e01565b6040516103d09190613000565b60405180910390f35b6103e1610ec3565b6040516103ee9190613000565b60405180910390f35b610411600480360381019061040c91906129cd565b610ec9565b60405161041e9190612ead565b60405180910390f35b61042f610f34565b60405161043c9190612efe565b60405180910390f35b61044d610fcf565b60405161045a9190612ec8565b60405180910390f35b61047d6004803603810190610478919061292c565b610fd6565b005b610499600480360381019061049491906128b1565b611157565b005b6104b560048036038101906104b091906129a4565b6111ca565b005b6104d160048036038101906104cc9190612ad3565b6111e2565b005b6104db611558565b6040516104e89190613000565b60405180910390f35b61050b60048036038101906105069190612a5b565b61155e565b6040516105189190612efe565b60405180910390f35b6105296115f2565b6040516105369190612ec8565b60405180910390f35b610559600480360381019061055491906129cd565b611616565b005b61057560048036038101906105709190612826565b611637565b6040516105829190612ead565b60405180910390f35b60007fda8def73000000000000000000000000000000000000000000000000000000007bffffffffffffffffffffffffffffffffffffffffffffffffffffffff1916827bffffffffffffffffffffffffffffffffffffffffffffffffffffffff191614806105fe57506105fd826116d4565b5b9050919050565b606061060f61174e565b600201805461061d9061326d565b80601f01602080910402602001604051908101604052809291908181526020018280546106499061326d565b80156106965780601f1061066b57610100808354040283529160200191610696565b820191906000526020600020905b81548152906001019060200180831161067957829003601f168201915b5050505050905090565b60006106ab8261177b565b6106e1576040517fcf4700e400000000000000000000000000000000000000000000000000000000815260040160405180910390fd5b6106e961174e565b600601600083815260200190815260200160002060000160009054906101000a900473ffffffffffffffffffffffffffffffffffffffff169050919050565b600061073382610d61565b90508073ffffffffffffffffffffffffffffffffffffffff166107546117ec565b73ffffffffffffffffffffffffffffffffffffffff16146107b7576107808161077b6117ec565b611637565b6107b6576040517fcfb3b94200000000000000000000000000000000000000000000000000000000815260040160405180910390fd5b5b826107c061174e565b600601600084815260200190815260200160002060000160006101000a81548173ffffffffffffffffffffffffffffffffffffffff021916908373ffffffffffffffffffffffffffffffffffffffff160217905550818373ffffffffffffffffffffffffffffffffffffffff168273ffffffffffffffffffffffffffffffffffffffff167f8c5be1e5ebec7d5bd14f71427d1e84f3dd0314c0f7b2291e5b200ac8c7c3b92560405160405180910390a4505050565b60985481565b60006108856117f4565b61088d61174e565b6001015461089961174e565b600001540303905090565b60006108af826117f9565b90508373ffffffffffffffffffffffffffffffffffffffff168173ffffffffffffffffffffffffffffffffffffffff1614610916576040517fa114810000000000000000000000000000000000000000000000000000000000815260040160405180910390fd5b600080610922846118e2565b9150915061093881876109336117ec565b611912565b6109845761094d866109486117ec565b611637565b610983576040517f59c896be00000000000000000000000000000000000000000000000000000000815260040160405180910390fd5b5b600073ffffffffffffffffffffffffffffffffffffffff168573ffffffffffffffffffffffffffffffffffffffff1614156109eb576040517fea553b3400000000000000000000000000000000000000000000000000000000815260040160405180910390fd5b6109f88686866001611956565b8015610a0357600082555b610a0b61174e565b60050160008773ffffffffffffffffffffffffffffffffffffffff1673ffffffffffffffffffffffffffffffffffffffff168152602001908152602001600020600081546001900391905081905550610a6261174e565b60050160008673ffffffffffffffffffffffffffffffffffffffff1673ffffffffffffffffffffffffffffffffffffffff1681526020019081526020016000206000815460010191905081905550610ae385610abf88888761195c565b7c020000000000000000000000000000000000000000000000000000000017611984565b610aeb61174e565b60040160008681526020019081526020016000208190555060007c020000000000000000000000000000000000000000000000000000000084161415610b8f5760006001850190506000610b3d61174e565b6004016000838152602001908152602001600020541415610b8d57610b6061174e565b600001548114610b8c5783610b7361174e565b6004016000838152602001908152602001600020819055505b5b505b838573ffffffffffffffffffffffffffffffffffffffff168773ffffffffffffffffffffffffffffffffffffffff167fddf252ad1be2c89b69c2b068fc378daa952ba7f163c4a11628f55a4df523b3ef60405160405180910390a4610bf786868660016119af565b505050505050565b600060656000838152602001908152602001600020600101549050919050565b610c2882610bff565b610c31816119b5565b610c3b83836119c9565b505050565b610c48611aaa565b73ffffffffffffffffffffffffffffffffffffffff168173ffffffffffffffffffffffffffffffffffffffff1614610cb5576040517f08c379a0000000000000000000000000000000000000000000000000000000008152600401610cac90612fe0565b60405180910390fd5b610cbf8282611ab2565b5050565b610cde83838360405180602001604052806000815250611157565b505050565b7f9f2df0fed2c77648de5860a4cc508cd0818c85b8b8a1ab4ceeef8d981c8956a6610d0d816119b5565b81609b5414610d51576040517f08c379a0000000000000000000000000000000000000000000000000000000008152600401610d4890612f80565b60405180910390fd5b610d5b8385611b94565b50505050565b6000610d6c826117f9565b9050919050565b609a8054610d809061326d565b80601f0160208091040260200160405190810160405280929190818152602001828054610dac9061326d565b8015610df95780601f10610dce57610100808354040283529160200191610df9565b820191906000526020600020905b815481529060010190602001808311610ddc57829003601f168201915b505050505081565b60008073ffffffffffffffffffffffffffffffffffffffff168273ffffffffffffffffffffffffffffffffffffffff161415610e69576040517f8f4eb60400000000000000000000000000000000000000000000000000000000815260040160405180910390fd5b67ffffffffffffffff610e7a61174e565b60050160008473ffffffffffffffffffffffffffffffffffffffff1673ffffffffffffffffffffffffffffffffffffffff16815260200190815260200160002054169050919050565b60975481565b60006065600084815260200190815260200160002060000160008373ffffffffffffffffffffffffffffffffffffffff1673ffffffffffffffffffffffffffffffffffffffff16815260200190815260200160002060009054906101000a900460ff16905092915050565b6060610f3e61174e565b6003018054610f4c9061326d565b80601f0160208091040260200160405190810160405280929190818152602001828054610f789061326d565b8015610fc55780601f10610f9a57610100808354040283529160200191610fc5565b820191906000526020600020905b815481529060010190602001808311610fa857829003601f168201915b5050505050905090565b6000801b81565b610fde6117ec565b73ffffffffffffffffffffffffffffffffffffffff168273ffffffffffffffffffffffffffffffffffffffff161415611043576040517fb06307db00000000000000000000000000000000000000000000000000000000815260040160405180910390fd5b8061104c61174e565b60070160006110596117ec565b73ffffffffffffffffffffffffffffffffffffffff1673ffffffffffffffffffffffffffffffffffffffff16815260200190815260200160002060008473ffffffffffffffffffffffffffffffffffffffff1673ffffffffffffffffffffffffffffffffffffffff16815260200190815260200160002060006101000a81548160ff0219169083151502179055508173ffffffffffffffffffffffffffffffffffffffff166111066117ec565b73ffffffffffffffffffffffffffffffffffffffff167f17307eab39ab6107e8899845ad3d59bd9653f200f220920489ca2b5937696c318360405161114b9190612ead565b60405180910390a35050565b6111628484846108a4565b60008373ffffffffffffffffffffffffffffffffffffffff163b146111c45761118d84848484611bb2565b6111c3576040517fd1a57ed600000000000000000000000000000000000000000000000000000000815260040160405180910390fd5b5b50505050565b6000801b6111d7816119b5565b81609b819055505050565b6111ea611d12565b60000160019054906101000a900460ff1661121e57611207611d12565b60000160009054906101000a900460ff1615611227565b611226611d3f565b5b611266576040517f08c379a000000000000000000000000000000000000000000000000000000000815260040161125d90612fa0565b60405180910390fd5b6000611270611d12565b60000160019054906101000a900460ff1615905080156112d3576001611294611d12565b60000160016101000a81548160ff02191690831515021790555060016112b8611d12565b60000160006101000a81548160ff0219169083151502179055505b60008060019054906101000a900460ff161590508080156113045750600160008054906101000a900460ff1660ff16105b80611331575061131330611d56565b1580156113305750600160008054906101000a900460ff1660ff16145b5b611370576040517f08c379a000000000000000000000000000000000000000000000000000000000815260040161136790612f60565b60405180910390fd5b60016000806101000a81548160ff021916908360ff16021790555080156113ad576001600060016101000a81548160ff0219169083151502179055505b8c6097819055508b6098819055508a6099819055508989609a91906113d39291906125a4565b508383609c91906113e59291906125a4565b5061147888888080601f016020809104026020016040519081016040528093929190818152602001838380828437600081840152601f19601f8201169050808301925050505050505087878080601f016020809104026020016040519081016040528093929190818152602001838380828437600081840152601f19601f82011690508083019250505050505050611d79565b611480611ddf565b6114946000801b61148f611aaa565b6119c9565b6114c57f9f2df0fed2c77648de5860a4cc508cd0818c85b8b8a1ab4ceeef8d981c8956a66114c0611aaa565b6119c9565b801561151e5760008060016101000a81548160ff0219169083151502179055507f7f26b83ff96e1f2b6a682f133852f6798a09c465da95921460cefb384740249860016040516115159190612ee3565b60405180910390a15b50801561154a57600061152f611d12565b60000160016101000a81548160ff0219169083151502179055505b505050505050505050505050565b60995481565b6060609c805461156d9061326d565b80601f01602080910402602001604051908101604052809291908181526020018280546115999061326d565b80156115e65780601f106115bb576101008083540402835291602001916115e6565b820191906000526020600020905b8154815290600101906020018083116115c957829003601f168201915b50505050509050919050565b7f9f2df0fed2c77648de5860a4cc508cd0818c85b8b8a1ab4ceeef8d981c8956a681565b61161f82610bff565b611628816119b5565b6116328383611ab2565b505050565b600061164161174e565b60070160008473ffffffffffffffffffffffffffffffffffffffff1673ffffffffffffffffffffffffffffffffffffffff16815260200190815260200160002060008373ffffffffffffffffffffffffffffffffffffffff1673ffffffffffffffffffffffffffffffffffffffff16815260200190815260200160002060009054906101000a900460ff16905092915050565b60007f7965db0b000000000000000000000000000000000000000000000000000000007bffffffffffffffffffffffffffffffffffffffffffffffffffffffff1916827bffffffffffffffffffffffffffffffffffffffffffffffffffffffff19161480611747575061174682611e30565b5b9050919050565b6000807f2569078dfb4b0305704d3008e7403993ae9601b85f7ae5e742de3de8f8011c4090508091505090565b6000816117866117f4565b1115801561179e575061179761174e565b6000015482105b80156117e5575060007c01000000000000000000000000000000000000000000000000000000006117cd61174e565b60040160008581526020019081526020016000205416145b9050919050565b600033905090565b600090565b600080829050806118086117f4565b116118ab5761181561174e565b600001548110156118aa57600061182a61174e565b600401600083815260200190815260200160002054905060007c0100000000000000000000000000000000000000000000000000000000821614156118a8575b600081141561189e5761187b61174e565b60040160008360019003935083815260200190815260200160002054905061186a565b80925050506118dd565b505b5b6040517fdf2d9b4200000000000000000000000000000000000000000000000000000000815260040160405180910390fd5b919050565b60008060006118ef61174e565b600601600085815260200190815260200160002090508092508254915050915091565b600073ffffffffffffffffffffffffffffffffffffffff8316925073ffffffffffffffffffffffffffffffffffffffff821691508382148383141790509392505050565b50505050565b60008060e883901c905060e8611973868684611e9a565b62ffffff16901b9150509392505050565b600073ffffffffffffffffffffffffffffffffffffffff83169250814260a01b178317905092915050565b50505050565b6119c6816119c1611aaa565b611ea3565b50565b6119d38282610ec9565b611aa65760016065600084815260200190815260200160002060000160008373ffffffffffffffffffffffffffffffffffffffff1673ffffffffffffffffffffffffffffffffffffffff16815260200190815260200160002060006101000a81548160ff021916908315150217905550611a4b611aaa565b73ffffffffffffffffffffffffffffffffffffffff168173ffffffffffffffffffffffffffffffffffffffff16837f2f8788117e7eff1d82e926ec794901d17c78024a50270940304540a733656f0d60405160405180910390a45b5050565b600033905090565b611abc8282610ec9565b15611b905760006065600084815260200190815260200160002060000160008373ffffffffffffffffffffffffffffffffffffffff1673ffffffffffffffffffffffffffffffffffffffff16815260200190815260200160002060006101000a81548160ff021916908315150217905550611b35611aaa565b73ffffffffffffffffffffffffffffffffffffffff168173ffffffffffffffffffffffffffffffffffffffff16837ff6391f5c32d9c69d2a47ea670b442974b53935d1edc7fd64eb21e047a839171b60405160405180910390a45b5050565b611bae828260405180602001604052806000815250611f28565b5050565b60008373ffffffffffffffffffffffffffffffffffffffff1663150b7a02611bd86117ec565b8786866040518563ffffffff1660e01b8152600401611bfa9493929190612e61565b602060405180830381600087803b158015611c1457600080fd5b505af1925050508015611c4557506040513d601f19601f82011682018060405250810190611c429190612a32565b60015b611cbf573d8060008114611c75576040519150601f19603f3d011682016040523d82523d6000602084013e611c7a565b606091505b50600081511415611cb7576040517fd1a57ed600000000000000000000000000000000000000000000000000000000815260040160405180910390fd5b805181602001fd5b63150b7a0260e01b7bffffffffffffffffffffffffffffffffffffffffffffffffffffffff1916817bffffffffffffffffffffffffffffffffffffffffffffffffffffffff191614915050949350505050565b6000807fee151c8401928dc223602bb187aff91b9a56c7cae5476ef1b3287b085a16c85f90508091505090565b6000803090506000813b9050600081149250505090565b6000808273ffffffffffffffffffffffffffffffffffffffff163b119050919050565b611d81611d12565b60000160019054906101000a900460ff16611dd1576040517f08c379a0000000000000000000000000000000000000000000000000000000008152600401611dc890612f40565b60405180910390fd5b611ddb8282611fd8565b5050565b600060019054906101000a900460ff16611e2e576040517f08c379a0000000000000000000000000000000000000000000000000000000008152600401611e2590612fc0565b60405180910390fd5b565b60007f01ffc9a7000000000000000000000000000000000000000000000000000000007bffffffffffffffffffffffffffffffffffffffffffffffffffffffff1916827bffffffffffffffffffffffffffffffffffffffffffffffffffffffff1916149050919050565b60009392505050565b611ead8282610ec9565b611f2457611eba8161208b565b611ec88360001c60206120b8565b604051602001611ed9929190612e0c565b6040516020818303038152906040526040517f08c379a0000000000000000000000000000000000000000000000000000000008152600401611f1b9190612efe565b60405180910390fd5b5050565b611f3283836123b2565b60008373ffffffffffffffffffffffffffffffffffffffff163b14611fd3576000611f5b61174e565b600001549050600083820390505b611f7c6000868380600101945086611bb2565b611fb2576040517fd1a57ed600000000000000000000000000000000000000000000000000000000815260040160405180910390fd5b818110611f695781611fc261174e565b6000015414611fd057600080fd5b50505b505050565b611fe0611d12565b60000160019054906101000a900460ff16612030576040517f08c379a000000000000000000000000000000000000000000000000000000000815260040161202790612f40565b60405180910390fd5b8161203961174e565b600201908051906020019061204f92919061262a565b508061205961174e565b600301908051906020019061206f92919061262a565b506120786117f4565b61208061174e565b600001819055505050565b60606120b18273ffffffffffffffffffffffffffffffffffffffff16601460ff166120b8565b9050919050565b6060600060028360026120cb919061310a565b6120d591906130b4565b67ffffffffffffffff811115612114577f4e487b7100000000000000000000000000000000000000000000000000000000600052604160045260246000fd5b6040519080825280601f01601f1916602001820160405280156121465781602001600182028036833780820191505090505b5090507f3000000000000000000000000000000000000000000000000000000000000000816000815181106121a4577f4e487b7100000000000000000000000000000000000000000000000000000000600052603260045260246000fd5b60200101907effffffffffffffffffffffffffffffffffffffffffffffffffffffffffffff1916908160001a9053507f78000000000000000000000000000000000000000000000000000000000000008160018151811061222e577f4e487b7100000000000000000000000000000000000000000000000000000000600052603260045260246000fd5b60200101907effffffffffffffffffffffffffffffffffffffffffffffffffffffffffffff1916908160001a9053506000600184600261226e919061310a565b61227891906130b4565b90505b6001811115612364577f3031323334353637383961626364656600000000000000000000000000000000600f8616601081106122e0577f4e487b7100000000000000000000000000000000000000000000000000000000600052603260045260246000fd5b1a60f81b82828151811061231d577f4e487b7100000000000000000000000000000000000000000000000000000000600052603260045260246000fd5b60200101907effffffffffffffffffffffffffffffffffffffffffffffffffffffffffffff1916908160001a905350600485901c94508061235d90613243565b905061227b565b50600084146123a8576040517f08c379a000000000000000000000000000000000000000000000000000000000815260040161239f90612f20565b60405180910390fd5b8091505092915050565b60006123bc61174e565b60000154905060008214156123fd576040517fb562e8dd00000000000000000000000000000000000000000000000000000000815260040160405180910390fd5b61240a6000848385611956565b600160406001901b17820261241d61174e565b60050160008573ffffffffffffffffffffffffffffffffffffffff1673ffffffffffffffffffffffffffffffffffffffff1681526020019081526020016000206000828254019250508190555061248a8361247b600086600061195c565b61248485612594565b17611984565b61249261174e565b600401600083815260200190815260200160002081905550600080838301905073ffffffffffffffffffffffffffffffffffffffff85169150828260007fddf252ad1be2c89b69c2b068fc378daa952ba7f163c4a11628f55a4df523b3ef600080a4600183015b81811461253457808360007fddf252ad1be2c89b69c2b068fc378daa952ba7f163c4a11628f55a4df523b3ef600080a46001810190506124f9565b506000821415612570576040517f2e07630000000000000000000000000000000000000000000000000000000000815260040160405180910390fd5b8061257961174e565b60000181905550505061258f60008483856119af565b505050565b60006001821460e11b9050919050565b8280546125b09061326d565b90600052602060002090601f0160209004810192826125d25760008555612619565b82601f106125eb57803560ff1916838001178555612619565b82800160010185558215612619579182015b828111156126185782358255916020019190600101906125fd565b5b50905061262691906126b0565b5090565b8280546126369061326d565b90600052602060002090601f016020900481019282612658576000855561269f565b82601f1061267157805160ff191683800117855561269f565b8280016001018555821561269f579182015b8281111561269e578251825591602001919060010190612683565b5b5090506126ac91906126b0565b5090565b5b808211156126c95760008160009055506001016126b1565b5090565b60006126e06126db84613040565b61301b565b9050828152602081018484840111156126f857600080fd5b612703848285613201565b509392505050565b60008135905061271a8161359d565b92915050565b60008135905061272f816135b4565b92915050565b600081359050612744816135cb565b92915050565b600081359050612759816135e2565b92915050565b60008151905061276e816135e2565b92915050565b600082601f83011261278557600080fd5b81356127958482602086016126cd565b91505092915050565b60008083601f8401126127b057600080fd5b8235905067ffffffffffffffff8111156127c957600080fd5b6020830191508360018202830111156127e157600080fd5b9250929050565b6000813590506127f7816135f9565b92915050565b60006020828403121561280f57600080fd5b600061281d8482850161270b565b91505092915050565b6000806040838503121561283957600080fd5b60006128478582860161270b565b92505060206128588582860161270b565b9150509250929050565b60008060006060848603121561287757600080fd5b60006128858682870161270b565b93505060206128968682870161270b565b92505060406128a7868287016127e8565b9150509250925092565b600080600080608085870312156128c757600080fd5b60006128d58782880161270b565b94505060206128e68782880161270b565b93505060406128f7878288016127e8565b925050606085013567ffffffffffffffff81111561291457600080fd5b61292087828801612774565b91505092959194509250565b6000806040838503121561293f57600080fd5b600061294d8582860161270b565b925050602061295e85828601612720565b9150509250929050565b6000806040838503121561297b57600080fd5b60006129898582860161270b565b925050602061299a858286016127e8565b9150509250929050565b6000602082840312156129b657600080fd5b60006129c484828501612735565b91505092915050565b600080604083850312156129e057600080fd5b60006129ee85828601612735565b92505060206129ff8582860161270b565b9150509250929050565b600060208284031215612a1b57600080fd5b6000612a298482850161274a565b91505092915050565b600060208284031215612a4457600080fd5b6000612a528482850161275f565b91505092915050565b600060208284031215612a6d57600080fd5b6000612a7b848285016127e8565b91505092915050565b600080600060608486031215612a9957600080fd5b6000612aa7868287016127e8565b9350506020612ab88682870161270b565b9250506040612ac986828701612735565b9150509250925092565b600080600080600080600080600080600060e08c8e031215612af457600080fd5b6000612b028e828f016127e8565b9b50506020612b138e828f016127e8565b9a50506040612b248e828f016127e8565b99505060608c013567ffffffffffffffff811115612b4157600080fd5b612b4d8e828f0161279e565b985098505060808c013567ffffffffffffffff811115612b6c57600080fd5b612b788e828f0161279e565b965096505060a08c013567ffffffffffffffff811115612b9757600080fd5b612ba38e828f0161279e565b945094505060c08c013567ffffffffffffffff811115612bc257600080fd5b612bce8e828f0161279e565b92509250509295989b509295989b9093969950565b612bec81613164565b82525050565b612bfb81613176565b82525050565b612c0a81613182565b82525050565b6000612c1b82613071565b612c258185613087565b9350612c35818560208601613210565b612c3e8161335d565b840191505092915050565b612c52816131ef565b82525050565b6000612c638261307c565b612c6d8185613098565b9350612c7d818560208601613210565b612c868161335d565b840191505092915050565b6000612c9c8261307c565b612ca681856130a9565b9350612cb6818560208601613210565b80840191505092915050565b6000612ccf602083613098565b9150612cda8261336e565b602082019050919050565b6000612cf2603483613098565b9150612cfd82613397565b604082019050919050565b6000612d15602e83613098565b9150612d20826133e6565b604082019050919050565b6000612d38601183613098565b9150612d4382613435565b602082019050919050565b6000612d5b603783613098565b9150612d668261345e565b604082019050919050565b6000612d7e602b83613098565b9150612d89826134ad565b604082019050919050565b6000612da16017836130a9565b9150612dac826134fc565b601782019050919050565b6000612dc46011836130a9565b9150612dcf82613525565b601182019050919050565b6000612de7602f83613098565b9150612df28261354e565b604082019050919050565b612e06816131d8565b82525050565b6000612e1782612d94565b9150612e238285612c91565b9150612e2e82612db7565b9150612e3a8284612c91565b91508190509392505050565b6000602082019050612e5b6000830184612be3565b92915050565b6000608082019050612e766000830187612be3565b612e836020830186612be3565b612e906040830185612dfd565b8181036060830152612ea28184612c10565b905095945050505050565b6000602082019050612ec26000830184612bf2565b92915050565b6000602082019050612edd6000830184612c01565b92915050565b6000602082019050612ef86000830184612c49565b92915050565b60006020820190508181036000830152612f188184612c58565b905092915050565b60006020820190508181036000830152612f3981612cc2565b9050919050565b60006020820190508181036000830152612f5981612ce5565b9050919050565b60006020820190508181036000830152612f7981612d08565b9050919050565b60006020820190508181036000830152612f9981612d2b565b9050919050565b60006020820190508181036000830152612fb981612d4e565b9050919050565b60006020820190508181036000830152612fd981612d71565b9050919050565b60006020820190508181036000830152612ff981612dda565b9050919050565b60006020820190506130156000830184612dfd565b92915050565b6000613025613036565b9050613031828261329f565b919050565b6000604051905090565b600067ffffffffffffffff82111561305b5761305a61332e565b5b6130648261335d565b9050602081019050919050565b600081519050919050565b600081519050919050565b600082825260208201905092915050565b600082825260208201905092915050565b600081905092915050565b60006130bf826131d8565b91506130ca836131d8565b9250827fffffffffffffffffffffffffffffffffffffffffffffffffffffffffffffffff038211156130ff576130fe6132d0565b5b828201905092915050565b6000613115826131d8565b9150613120836131d8565b9250817fffffffffffffffffffffffffffffffffffffffffffffffffffffffffffffffff0483118215151615613159576131586132d0565b5b828202905092915050565b600061316f826131b8565b9050919050565b60008115159050919050565b6000819050919050565b60007fffffffff0000000000000000000000000000000000000000000000000000000082169050919050565b600073ffffffffffffffffffffffffffffffffffffffff82169050919050565b6000819050919050565b600060ff82169050919050565b60006131fa826131e2565b9050919050565b82818337600083830152505050565b60005b8381101561322e578082015181840152602081019050613213565b8381111561323d576000848401525b50505050565b600061324e826131d8565b91506000821415613262576132616132d0565b5b600182039050919050565b6000600282049050600182168061328557607f821691505b60208210811415613299576132986132ff565b5b50919050565b6132a88261335d565b810181811067ffffffffffffffff821117156132c7576132c661332e565b5b80604052505050565b7f4e487b7100000000000000000000000000000000000000000000000000000000600052601160045260246000fd5b7f4e487b7100000000000000000000000000000000000000000000000000000000600052602260045260246000fd5b7f4e487b7100000000000000000000000000000000000000000000000000000000600052604160045260246000fd5b6000601f19601f8301169050919050565b7f537472696e67733a20686578206c656e67746820696e73756666696369656e74600082015250565b7f455243373231415f5f496e697469616c697a61626c653a20636f6e747261637460008201527f206973206e6f7420696e697469616c697a696e67000000000000000000000000602082015250565b7f496e697469616c697a61626c653a20636f6e747261637420697320616c72656160008201527f647920696e697469616c697a6564000000000000000000000000000000000000602082015250565b7f696e76616c6964206d696e7420636f6465000000000000000000000000000000600082015250565b7f455243373231415f5f496e697469616c697a61626c653a20636f6e747261637460008201527f20697320616c726561647920696e697469616c697a6564000000000000000000602082015250565b7f496e697469616c697a61626c653a20636f6e7472616374206973206e6f74206960008201527f6e697469616c697a696e67000000000000000000000000000000000000000000602082015250565b7f416363657373436f6e74726f6c3a206163636f756e7420000000000000000000600082015250565b7f206973206d697373696e6720726f6c6520000000000000000000000000000000600082015250565b7f416363657373436f6e74726f6c3a2063616e206f6e6c792072656e6f756e636560008201527f20726f6c657320666f722073656c660000000000000000000000000000000000602082015250565b6135a681613164565b81146135b157600080fd5b50565b6135bd81613176565b81146135c857600080fd5b50565b6135d481613182565b81146135df57600080fd5b50565b6135eb8161318c565b81146135f657600080fd5b50565b613602816131d8565b811461360d57600080fd5b5056fea2646970667358221220744a3a6b171ac2498028168e401968be9ac3b14d26575d85edfc4c7f69b6c20864736f6c63430008040033",
  "linkReferences": {},
  "deployedLinkReferences": {}
}