{
  "_format": "hh-sol-artifact-1",
  "contractName": "SarauMaker",
  "sourceName": "contracts/SarauMaker.sol",
  "abi": [
    {
      "inputs": [
        {
          "internalType": "address",
          "name": "nftImplementation_",
          "type": "address"
        },
        {
          "internalType": "bytes32",
          "name": "currency_",
          "type": "bytes32"
        },
        {
          "internalType": "uint256",
          "name": "redstoneDecimals_",
          "type": "uint256"
        }
      ],
      "stateMutability": "nonpayable",
      "type": "constructor"
    },
    {
      "anonymous": false,
      "inputs": [
        {
          "indexed": true,
          "internalType": "uint256",
          "name": "fee",
          "type": "uint256"
        }
      ],
      "name": "CreationUSDFeeChanged",
      "type": "event"
    },
    {
      "anonymous": false,
      "inputs": [
        {
          "indexed": true,
          "internalType": "address",
          "name": "sender",
          "type": "address"
        },
        {
          "indexed": false,
          "internalType": "uint256",
          "name": "amount",
          "type": "uint256"
        }
      ],
      "name": "EtherFlushed",
      "type": "event"
    },
    {
      "anonymous": false,
      "inputs": [
        {
          "indexed": true,
          "internalType": "address",
          "name": "sender",
          "type": "address"
        },
        {
          "indexed": true,
          "internalType": "uint256",
          "name": "amount",
          "type": "uint256"
        }
      ],
      "name": "ReceivedEther",
      "type": "event"
    },
    {
      "anonymous": false,
      "inputs": [
        {
          "indexed": false,
          "internalType": "uint256",
          "name": "decimals",
          "type": "uint256"
        }
      ],
      "name": "RedstoneDecimalsChanged",
      "type": "event"
    },
    {
      "anonymous": false,
      "inputs": [
        {
          "indexed": false,
          "internalType": "address",
          "name": "signer",
          "type": "address"
        }
      ],
      "name": "RedstoneSignerChanged",
      "type": "event"
    },
    {
      "anonymous": false,
      "inputs": [
        {
          "indexed": true,
          "internalType": "bytes32",
          "name": "role",
          "type": "bytes32"
        },
        {
          "indexed": true,
          "internalType": "bytes32",
          "name": "previousAdminRole",
          "type": "bytes32"
        },
        {
          "indexed": true,
          "internalType": "bytes32",
          "name": "newAdminRole",
          "type": "bytes32"
        }
      ],
      "name": "RoleAdminChanged",
      "type": "event"
    },
    {
      "anonymous": false,
      "inputs": [
        {
          "indexed": true,
          "internalType": "bytes32",
          "name": "role",
          "type": "bytes32"
        },
        {
          "indexed": true,
          "internalType": "address",
          "name": "account",
          "type": "address"
        },
        {
          "indexed": true,
          "internalType": "address",
          "name": "sender",
          "type": "address"
        }
      ],
      "name": "RoleGranted",
      "type": "event"
    },
    {
      "anonymous": false,
      "inputs": [
        {
          "indexed": true,
          "internalType": "bytes32",
          "name": "role",
          "type": "bytes32"
        },
        {
          "indexed": true,
          "internalType": "address",
          "name": "account",
          "type": "address"
        },
        {
          "indexed": true,
          "internalType": "address",
          "name": "sender",
          "type": "address"
        }
      ],
      "name": "RoleRevoked",
      "type": "event"
    },
    {
      "anonymous": false,
      "inputs": [
        {
          "indexed": true,
          "internalType": "address",
          "name": "nft",
          "type": "address"
        },
        {
          "indexed": true,
          "internalType": "uint256",
          "name": "id",
          "type": "uint256"
        }
      ],
      "name": "SarauCreated",
      "type": "event"
    },
    {
      "inputs": [],
      "name": "DEFAULT_ADMIN_ROLE",
      "outputs": [
        {
          "internalType": "bytes32",
          "name": "",
          "type": "bytes32"
        }
      ],
      "stateMutability": "view",
      "type": "function"
    },
    {
      "inputs": [
        {
          "internalType": "uint256",
          "name": "maxMint_",
          "type": "uint256"
        },
        {
          "internalType": "uint256",
          "name": "startDate_",
          "type": "uint256"
        },
        {
          "internalType": "uint256",
          "name": "endDate_",
          "type": "uint256"
        },
        {
          "internalType": "string",
          "name": "homepage_",
          "type": "string"
        },
        {
          "internalType": "string",
          "name": "name",
          "type": "string"
        },
        {
          "internalType": "string",
          "name": "symbol",
          "type": "string"
        },
        {
          "internalType": "string",
          "name": "uri_",
          "type": "string"
        }
      ],
      "name": "createSarau",
      "outputs": [
        {
          "internalType": "uint256",
          "name": "index",
          "type": "uint256"
        }
      ],
      "stateMutability": "payable",
      "type": "function"
    },
    {
      "inputs": [],
      "name": "creationEtherFee",
      "outputs": [
        {
          "internalType": "uint256",
          "name": "",
          "type": "uint256"
        }
      ],
      "stateMutability": "view",
      "type": "function"
    },
    {
      "inputs": [],
      "name": "creationUSDFee",
      "outputs": [
        {
          "internalType": "uint256",
          "name": "",
          "type": "uint256"
        }
      ],
      "stateMutability": "view",
      "type": "function"
    },
    {
      "inputs": [],
      "name": "currency",
      "outputs": [
        {
          "internalType": "bytes32",
          "name": "",
          "type": "bytes32"
        }
      ],
      "stateMutability": "view",
      "type": "function"
    },
    {
      "inputs": [],
      "name": "currentIndex",
      "outputs": [
        {
          "internalType": "uint256",
          "name": "",
          "type": "uint256"
        }
      ],
      "stateMutability": "view",
      "type": "function"
    },
    {
      "inputs": [],
      "name": "etherPrice",
      "outputs": [
        {
          "internalType": "uint256",
          "name": "",
          "type": "uint256"
        }
      ],
      "stateMutability": "view",
      "type": "function"
    },
    {
      "inputs": [
        {
          "internalType": "address",
          "name": "_to",
          "type": "address"
        }
      ],
      "name": "flushETH",
      "outputs": [],
      "stateMutability": "nonpayable",
      "type": "function"
    },
    {
      "inputs": [],
      "name": "getMaxBlockTimestampDelay",
      "outputs": [
        {
          "internalType": "uint256",
          "name": "",
          "type": "uint256"
        }
      ],
      "stateMutability": "view",
      "type": "function"
    },
    {
      "inputs": [],
      "name": "getMaxDataTimestampDelay",
      "outputs": [
        {
          "internalType": "uint256",
          "name": "",
          "type": "uint256"
        }
      ],
      "stateMutability": "view",
      "type": "function"
    },
    {
      "inputs": [
        {
          "internalType": "bytes32",
          "name": "role",
          "type": "bytes32"
        }
      ],
      "name": "getRoleAdmin",
      "outputs": [
        {
          "internalType": "bytes32",
          "name": "",
          "type": "bytes32"
        }
      ],
      "stateMutability": "view",
      "type": "function"
    },
    {
      "inputs": [
        {
          "internalType": "uint256",
          "name": "index_",
          "type": "uint256"
        }
      ],
      "name": "getSarau",
      "outputs": [
        {
          "internalType": "address",
          "name": "",
          "type": "address"
        }
      ],
      "stateMutability": "view",
      "type": "function"
    },
    {
      "inputs": [
        {
          "internalType": "bytes32",
          "name": "role",
          "type": "bytes32"
        },
        {
          "internalType": "address",
          "name": "account",
          "type": "address"
        }
      ],
      "name": "grantRole",
      "outputs": [],
      "stateMutability": "nonpayable",
      "type": "function"
    },
    {
      "inputs": [
        {
          "internalType": "bytes32",
          "name": "role",
          "type": "bytes32"
        },
        {
          "internalType": "address",
          "name": "account",
          "type": "address"
        }
      ],
      "name": "hasRole",
      "outputs": [
        {
          "internalType": "bool",
          "name": "",
          "type": "bool"
        }
      ],
      "stateMutability": "view",
      "type": "function"
    },
    {
      "inputs": [
        {
          "internalType": "address",
          "name": "_receivedSigner",
          "type": "address"
        }
      ],
      "name": "isSignerAuthorized",
      "outputs": [
        {
          "internalType": "bool",
          "name": "",
          "type": "bool"
        }
      ],
      "stateMutability": "view",
      "type": "function"
    },
    {
      "inputs": [
        {
          "internalType": "uint256",
          "name": "_receivedTimestamp",
          "type": "uint256"
        }
      ],
      "name": "isTimestampValid",
      "outputs": [
        {
          "internalType": "bool",
          "name": "",
          "type": "bool"
        }
      ],
      "stateMutability": "view",
      "type": "function"
    },
    {
      "inputs": [
        {
          "internalType": "uint256",
          "name": "index_",
          "type": "uint256"
        },
        {
          "internalType": "bytes32",
          "name": "code_",
          "type": "bytes32"
        }
      ],
      "name": "mint",
      "outputs": [
        {
          "internalType": "uint256",
          "name": "",
          "type": "uint256"
        }
      ],
      "stateMutability": "nonpayable",
      "type": "function"
    },
    {
      "inputs": [],
      "name": "nftImplementation",
      "outputs": [
        {
          "internalType": "address",
          "name": "",
          "type": "address"
        }
      ],
      "stateMutability": "view",
      "type": "function"
    },
    {
      "inputs": [],
      "name": "redstoneDecimals",
      "outputs": [
        {
          "internalType": "uint256",
          "name": "",
          "type": "uint256"
        }
      ],
      "stateMutability": "view",
      "type": "function"
    },
    {
      "inputs": [],
      "name": "redstoneSigner",
      "outputs": [
        {
          "internalType": "address",
          "name": "",
          "type": "address"
        }
      ],
      "stateMutability": "view",
      "type": "function"
    },
    {
      "inputs": [
        {
          "internalType": "bytes32",
          "name": "role",
          "type": "bytes32"
        },
        {
          "internalType": "address",
          "name": "account",
          "type": "address"
        }
      ],
      "name": "renounceRole",
      "outputs": [],
      "stateMutability": "nonpayable",
      "type": "function"
    },
    {
      "inputs": [
        {
          "internalType": "bytes32",
          "name": "role",
          "type": "bytes32"
        },
        {
          "internalType": "address",
          "name": "account",
          "type": "address"
        }
      ],
      "name": "revokeRole",
      "outputs": [],
      "stateMutability": "nonpayable",
      "type": "function"
    },
    {
      "inputs": [
        {
          "internalType": "uint256",
          "name": "",
          "type": "uint256"
        }
      ],
      "name": "saraus",
      "outputs": [
        {
          "internalType": "address",
          "name": "",
          "type": "address"
        }
      ],
      "stateMutability": "view",
      "type": "function"
    },
    {
      "inputs": [
        {
          "internalType": "uint256",
          "name": "creationUSDFee_",
          "type": "uint256"
        }
      ],
      "name": "setCreationUSDFee",
      "outputs": [],
      "stateMutability": "nonpayable",
      "type": "function"
    },
    {
      "inputs": [
        {
          "internalType": "uint256",
          "name": "redstoneDecimals_",
          "type": "uint256"
        }
      ],
      "name": "setRedstoneDecimals",
      "outputs": [],
      "stateMutability": "nonpayable",
      "type": "function"
    },
    {
      "inputs": [
        {
          "internalType": "address",
          "name": "redstoneSigner_",
          "type": "address"
        }
      ],
      "name": "setRedstoneSigner",
      "outputs": [],
      "stateMutability": "nonpayable",
      "type": "function"
    },
    {
      "inputs": [
        {
          "internalType": "bytes4",
          "name": "interfaceId",
          "type": "bytes4"
        }
      ],
      "name": "supportsInterface",
      "outputs": [
        {
          "internalType": "bool",
          "name": "",
          "type": "bool"
        }
      ],
      "stateMutability": "view",
      "type": "function"
    },
    {
      "inputs": [],
      "name": "updateEtherPrice",
      "outputs": [],
      "stateMutability": "nonpayable",
      "type": "function"
    },
    {
      "stateMutability": "payable",
      "type": "receive"
    }
  ],
  "bytecode": "0x60c06040523480156200001157600080fd5b50604051620035f3380380620035f3833981810160405281019062000037919062000252565b8273ffffffffffffffffffffffffffffffffffffffff1660808173ffffffffffffffffffffffffffffffffffffffff1660601b815250508160a0818152505080600681905550620000a16000801b62000095620000aa60201b60201c565b620000b260201b60201c565b5050506200033e565b600033905090565b620000c48282620001a360201b60201c565b6200019f57600160008084815260200190815260200160002060000160008373ffffffffffffffffffffffffffffffffffffffff1673ffffffffffffffffffffffffffffffffffffffff16815260200190815260200160002060006101000a81548160ff02191690831515021790555062000144620000aa60201b60201c565b73ffffffffffffffffffffffffffffffffffffffff168173ffffffffffffffffffffffffffffffffffffffff16837f2f8788117e7eff1d82e926ec794901d17c78024a50270940304540a733656f0d60405160405180910390a45b5050565b600080600084815260200190815260200160002060000160008373ffffffffffffffffffffffffffffffffffffffff1673ffffffffffffffffffffffffffffffffffffffff16815260200190815260200160002060009054906101000a900460ff16905092915050565b6000815190506200021e81620002f0565b92915050565b60008151905062000235816200030a565b92915050565b6000815190506200024c8162000324565b92915050565b6000806000606084860312156200026857600080fd5b600062000278868287016200020d565b93505060206200028b8682870162000224565b92505060406200029e868287016200023b565b9150509250925092565b6000620002b582620002c6565b9050919050565b6000819050919050565b600073ffffffffffffffffffffffffffffffffffffffff82169050919050565b6000819050919050565b620002fb81620002a8565b81146200030757600080fd5b50565b6200031581620002bc565b81146200032157600080fd5b50565b6200032f81620002e6565b81146200033b57600080fd5b50565b60805160601c60a05161327e6200037560003960008181610dc201526110820152600081816108cc01526110af015261327e6000f3fe6080604052600436106101bb5760003560e01c806370e37325116100ec578063c5d5ac001161008a578063e5a6b10f11610064578063e5a6b10f14610688578063f31a210a146106b3578063f61ac58b146106de578063f84f459c1461070957610206565b8063c5d5ac001461060d578063d547741f14610636578063dc4268811461065f57610206565b806391d14854116100c657806391d1485414610551578063971836e81461058e5780639e307955146105b7578063a217fddf146105e257610206565b806370e37325146104c057806375058205146104fd578063867b3d4b1461053a57610206565b806326987b601161015957806336568abe1161013357806336568abe1461041657806342ba9bb31461043f5780635118af5a1461046a5780635335b6af1461049557610206565b806326987b60146103975780632f2ff15d146103c257806330a7b1f5146103eb57610206565b806311c89b101161019557806311c89b10146102a357806314ebbef5146102e05780631801fbe51461031d578063248a9ca31461035a57610206565b806301ffc9a71461020b57806305503f5d14610248578063071054bd1461027357610206565b3661020657343373ffffffffffffffffffffffffffffffffffffffff167fa419615bc8fda4c87663805ee2a3597a6d71c1d476911d9892f340d965bc7bf160405160405180910390a3005b600080fd5b34801561021757600080fd5b50610232600480360381019061022d9190612141565b610732565b60405161023f9190612715565b60405180910390f35b34801561025457600080fd5b5061025d6107ac565b60405161026a91906129b2565b60405180910390f35b61028d600480360381019061028891906121f8565b6107b2565b60405161029a91906129b2565b60405180910390f35b3480156102af57600080fd5b506102ca60048036038101906102c591906120b3565b610aa6565b6040516102d79190612715565b60405180910390f35b3480156102ec57600080fd5b506103076004803603810190610302919061216a565b610b00565b60405161031491906126fa565b60405180910390f35b34801561032957600080fd5b50610344600480360381019061033f91906121bc565b610b3d565b60405161035191906129b2565b60405180910390f35b34801561036657600080fd5b50610381600480360381019061037c91906120dc565b610bda565b60405161038e9190612730565b60405180910390f35b3480156103a357600080fd5b506103ac610bf9565b6040516103b991906129b2565b60405180910390f35b3480156103ce57600080fd5b506103e960048036038101906103e49190612105565b610bff565b005b3480156103f757600080fd5b50610400610c20565b60405161040d91906129b2565b60405180910390f35b34801561042257600080fd5b5061043d60048036038101906104389190612105565b610c56565b005b34801561044b57600080fd5b50610454610cd9565b60405161046191906126fa565b60405180910390f35b34801561047657600080fd5b5061047f610cff565b60405161048c91906129b2565b60405180910390f35b3480156104a157600080fd5b506104aa610d08565b6040516104b791906129b2565b60405180910390f35b3480156104cc57600080fd5b506104e760048036038101906104e2919061216a565b610d0e565b6040516104f491906126fa565b60405180910390f35b34801561050957600080fd5b50610524600480360381019061051f919061216a565b610d41565b6040516105319190612715565b60405180910390f35b34801561054657600080fd5b5061054f610dbd565b005b34801561055d57600080fd5b5061057860048036038101906105739190612105565b610dee565b6040516105859190612715565b60405180910390f35b34801561059a57600080fd5b506105b560048036038101906105b0919061216a565b610e58565b005b3480156105c357600080fd5b506105cc610e9d565b6040516105d991906129b2565b60405180910390f35b3480156105ee57600080fd5b506105f7610ea3565b6040516106049190612730565b60405180910390f35b34801561061957600080fd5b50610634600480360381019061062f919061216a565b610eaa565b005b34801561064257600080fd5b5061065d60048036038101906106589190612105565b610ef9565b005b34801561066b57600080fd5b50610686600480360381019061068191906120b3565b610f1a565b005b34801561069457600080fd5b5061069d611080565b6040516106aa9190612730565b60405180910390f35b3480156106bf57600080fd5b506106c86110a4565b6040516106d591906129b2565b60405180910390f35b3480156106ea57600080fd5b506106f36110ad565b60405161070091906126fa565b60405180910390f35b34801561071557600080fd5b50610730600480360381019061072b91906120b3565b6110d1565b005b60007f7965db0b000000000000000000000000000000000000000000000000000000007bffffffffffffffffffffffffffffffffffffffffffffffffffffffff1916827bffffffffffffffffffffffffffffffffffffffffffffffffffffffff191614806107a557506107a48261115a565b5b9050919050565b60065481565b60006107bc610c20565b34146107fd576040517f08c379a00000000000000000000000000000000000000000000000000000000081526004016107f490612852565b60405180910390fd5b60008b11610840576040517f08c379a000000000000000000000000000000000000000000000000000000000815260040161083790612832565b60405180910390fd5b60008a11610883576040517f08c379a000000000000000000000000000000000000000000000000000000000815260040161087a90612932565b60405180910390fd5b8a8a116108c5576040517f08c379a00000000000000000000000000000000000000000000000000000000081526004016108bc90612892565b60405180910390fd5b60006108f07f00000000000000000000000000000000000000000000000000000000000000006111c4565b90508073ffffffffffffffffffffffffffffffffffffffff1663c170fc928e8e8e8e8e8e8e8e8e8e8e6040518c63ffffffff1660e01b815260040161093f9b9a999897969594939291906129cd565b600060405180830381600087803b15801561095957600080fd5b505af115801561096d573d6000803e3d6000fd5b505050508073ffffffffffffffffffffffffffffffffffffffff1663f2fde38b610995611299565b6040518263ffffffff1660e01b81526004016109b191906126fa565b600060405180830381600087803b1580156109cb57600080fd5b505af11580156109df573d6000803e3d6000fd5b505050506001549150806003600084815260200190815260200160002060006101000a81548173ffffffffffffffffffffffffffffffffffffffff021916908373ffffffffffffffffffffffffffffffffffffffff160217905550818173ffffffffffffffffffffffffffffffffffffffff167fac100e67e29f770c65d8049cdf0b746851e89c395ca9d80fcbaaebc0d38cf65e60405160405180910390a360016000815480929190610a9190612d15565b9190505550509b9a5050505050505050505050565b60008173ffffffffffffffffffffffffffffffffffffffff16600560009054906101000a900473ffffffffffffffffffffffffffffffffffffffff1673ffffffffffffffffffffffffffffffffffffffff16149050919050565b60006003600083815260200190815260200160002060009054906101000a900473ffffffffffffffffffffffffffffffffffffffff169050919050565b6000610b4883610b00565b73ffffffffffffffffffffffffffffffffffffffff1663adf2cead836040518263ffffffff1660e01b8152600401610b809190612730565b602060405180830381600087803b158015610b9a57600080fd5b505af1158015610bae573d6000803e3d6000fd5b505050506040513d601f19601f82011682018060405250810190610bd29190612193565b905092915050565b6000806000838152602001908152602001600020600101549050919050565b60015481565b610c0882610bda565b610c11816112a1565b610c1b83836112b5565b505050565b6000600654600060045414610c4457600454600254610c3f9190612b15565b610c47565b60005b610c519190612b82565b905090565b610c5e611299565b73ffffffffffffffffffffffffffffffffffffffff168173ffffffffffffffffffffffffffffffffffffffff1614610ccb576040517f08c379a0000000000000000000000000000000000000000000000000000000008152600401610cc290612992565b60405180910390fd5b610cd58282611395565b5050565b600560009054906101000a900473ffffffffffffffffffffffffffffffffffffffff1681565b6000600f905090565b60025481565b60036020528060005260406000206000915054906101000a900473ffffffffffffffffffffffffffffffffffffffff1681565b600081610d4c610cff565b42610d579190612abf565b11610d97576040517f08c379a0000000000000000000000000000000000000000000000000000000008152600401610d8e90612952565b60405180910390fd5b81421080610db65750610da86110a4565b8242610db49190612bdc565b105b9050919050565b610de67f0000000000000000000000000000000000000000000000000000000000000000611476565b600481905550565b600080600084815260200190815260200160002060000160008373ffffffffffffffffffffffffffffffffffffffff1673ffffffffffffffffffffffffffffffffffffffff16815260200190815260200160002060009054906101000a900460ff16905092915050565b6000801b610e65816112a1565b81600281905550817f7a570aff860f1dbe00d36164ca3379f53f6362009fba0ce8d78254e95cead99560405160405180910390a25050565b60045481565b6000801b81565b6000801b610eb7816112a1565b816006819055507f32a3e518123805f5c20349e18a4c636d97f0fec98369af309dd61fe90ed037b282604051610eed91906129b2565b60405180910390a15050565b610f0282610bda565b610f0b816112a1565b610f158383611395565b505050565b6000801b610f27816112a1565b600073ffffffffffffffffffffffffffffffffffffffff168273ffffffffffffffffffffffffffffffffffffffff161415610f97576040517f08c379a0000000000000000000000000000000000000000000000000000000008152600401610f8e90612912565b60405180910390fd5b600047905060008111610fdf576040517f08c379a0000000000000000000000000000000000000000000000000000000008152600401610fd690612972565b60405180910390fd5b8273ffffffffffffffffffffffffffffffffffffffff166108fc829081150290604051600060405180830381858888f19350505050158015611025573d6000803e3d6000fd5b5061102e611299565b73ffffffffffffffffffffffffffffffffffffffff167f7e8bfbce8498a152a0bedcf83edec38ffb0a13b19a197cb7c2686fc6371013ab8260405161107391906129b2565b60405180910390a2505050565b7f000000000000000000000000000000000000000000000000000000000000000081565b600060b4905090565b7f000000000000000000000000000000000000000000000000000000000000000081565b6000801b6110de816112a1565b81600560006101000a81548173ffffffffffffffffffffffffffffffffffffffff021916908373ffffffffffffffffffffffffffffffffffffffff1602179055507fbd95025ed42064979834dfebc62ec9d5892e915976f55b415979d34f349ac4ab8260405161114e91906126fa565b60405180910390a15050565b60007f01ffc9a7000000000000000000000000000000000000000000000000000000007bffffffffffffffffffffffffffffffffffffffffffffffffffffffff1916827bffffffffffffffffffffffffffffffffffffffffffffffffffffffff1916149050919050565b60006040517f3d602d80600a3d3981f3363d3d373d3d3d363d7300000000000000000000000081528260601b60148201527f5af43d82803e903d91602b57fd5bf3000000000000000000000000000000000060288201526037816000f0915050600073ffffffffffffffffffffffffffffffffffffffff168173ffffffffffffffffffffffffffffffffffffffff161415611294576040517f08c379a000000000000000000000000000000000000000000000000000000000815260040161128b906128d2565b60405180910390fd5b919050565b600033905090565b6112b2816112ad611299565b611584565b50565b6112bf8282610dee565b61139157600160008084815260200190815260200160002060000160008373ffffffffffffffffffffffffffffffffffffffff1673ffffffffffffffffffffffffffffffffffffffff16815260200190815260200160002060006101000a81548160ff021916908315150217905550611336611299565b73ffffffffffffffffffffffffffffffffffffffff168173ffffffffffffffffffffffffffffffffffffffff16837f2f8788117e7eff1d82e926ec794901d17c78024a50270940304540a733656f0d60405160405180910390a45b5050565b61139f8282610dee565b1561147257600080600084815260200190815260200160002060000160008373ffffffffffffffffffffffffffffffffffffffff1673ffffffffffffffffffffffffffffffffffffffff16815260200190815260200160002060006101000a81548160ff021916908315150217905550611417611299565b73ffffffffffffffffffffffffffffffffffffffff168173ffffffffffffffffffffffffffffffffffffffff16837ff6391f5c32d9c69d2a47ea670b442974b53935d1edc7fd64eb21e047a839171b60405160405180910390a45b5050565b600080600167ffffffffffffffff8111156114ba577f4e487b7100000000000000000000000000000000000000000000000000000000600052604160045260246000fd5b6040519080825280602002602001820160405280156114e85781602001602082028036833780820191505090505b5090508281600081518110611526577f4e487b7100000000000000000000000000000000000000000000000000000000600052603260045260246000fd5b60200260200101818152505061153b81611621565b600081518110611574577f4e487b7100000000000000000000000000000000000000000000000000000000600052603260045260246000fd5b6020026020010151915050919050565b61158e8282610dee565b61161d576115b38173ffffffffffffffffffffffffffffffffffffffff166014611789565b6115c18360001c6020611789565b6040516020016115d29291906126c0565b6040516020818303038152906040526040517f08c379a00000000000000000000000000000000000000000000000000000000081526004016116149190612790565b60405180910390fd5b5050565b60606000606136033590506000602060408360ff166116409190612b46565b61164a9190612a87565b90506060604051905081815281604283013603602083013760208101604052600081805190602001209050600081604051602001611688919061269a565b6040516020818303038152906040528051906020012090506060604051905060418152604180360360208301376020810160405260006116d18284611a8390919063ffffffff16565b90506116dc81610aa6565b61171b576040517f08c379a000000000000000000000000000000000000000000000000000000000815260040161171290612872565b60405180910390fd5b60006062360335905061172d81610d41565b61176c576040517f08c379a000000000000000000000000000000000000000000000000000000000815260040161176390612812565b60405180910390fd5b61177a8a8960ff1689611aaa565b98505050505050505050919050565b60606000600283600261179c9190612b82565b6117a69190612abf565b67ffffffffffffffff8111156117e5577f4e487b7100000000000000000000000000000000000000000000000000000000600052604160045260246000fd5b6040519080825280601f01601f1916602001820160405280156118175781602001600182028036833780820191505090505b5090507f300000000000000000000000000000000000000000000000000000000000000081600081518110611875577f4e487b7100000000000000000000000000000000000000000000000000000000600052603260045260246000fd5b60200101907effffffffffffffffffffffffffffffffffffffffffffffffffffffffffffff1916908160001a9053507f7800000000000000000000000000000000000000000000000000000000000000816001815181106118ff577f4e487b7100000000000000000000000000000000000000000000000000000000600052603260045260246000fd5b60200101907effffffffffffffffffffffffffffffffffffffffffffffffffffffffffffff1916908160001a9053506000600184600261193f9190612b82565b6119499190612abf565b90505b6001811115611a35577f3031323334353637383961626364656600000000000000000000000000000000600f8616601081106119b1577f4e487b7100000000000000000000000000000000000000000000000000000000600052603260045260246000fd5b1a60f81b8282815181106119ee577f4e487b7100000000000000000000000000000000000000000000000000000000600052603260045260246000fd5b60200101907effffffffffffffffffffffffffffffffffffffffffffffffffffffffffffff1916908160001a905350600485901c945080611a2e90612ceb565b905061194c565b5060008414611a79576040517f08c379a0000000000000000000000000000000000000000000000000000000008152600401611a70906127d2565b60405180910390fd5b8091505092915050565b6000806000611a928585611b50565b91509150611a9f81611ba2565b819250505092915050565b6060806000806000806042870136035995508951865260208a51026020870101604052600094505b8951851015611b40576020850260208b0101519150600093505b88841015611b355781604085028201351415611b1d5760206040850282010135602086026020880101526001830192505b8951831415611b2a578894505b600184019350611aec565b600185019450611ad2565b5084955050505050509392505050565b600080604183511415611b925760008060006020860151925060408601519150606086015160001a9050611b8687828585611ef3565b94509450505050611b9b565b60006002915091505b9250929050565b60006004811115611bdc577f4e487b7100000000000000000000000000000000000000000000000000000000600052602160045260246000fd5b816004811115611c15577f4e487b7100000000000000000000000000000000000000000000000000000000600052602160045260246000fd5b1415611c2057611ef0565b60016004811115611c5a577f4e487b7100000000000000000000000000000000000000000000000000000000600052602160045260246000fd5b816004811115611c93577f4e487b7100000000000000000000000000000000000000000000000000000000600052602160045260246000fd5b1415611cd4576040517f08c379a0000000000000000000000000000000000000000000000000000000008152600401611ccb906127b2565b60405180910390fd5b60026004811115611d0e577f4e487b7100000000000000000000000000000000000000000000000000000000600052602160045260246000fd5b816004811115611d47577f4e487b7100000000000000000000000000000000000000000000000000000000600052602160045260246000fd5b1415611d88576040517f08c379a0000000000000000000000000000000000000000000000000000000008152600401611d7f906127f2565b60405180910390fd5b60036004811115611dc2577f4e487b7100000000000000000000000000000000000000000000000000000000600052602160045260246000fd5b816004811115611dfb577f4e487b7100000000000000000000000000000000000000000000000000000000600052602160045260246000fd5b1415611e3c576040517f08c379a0000000000000000000000000000000000000000000000000000000008152600401611e33906128b2565b60405180910390fd5b600480811115611e75577f4e487b7100000000000000000000000000000000000000000000000000000000600052602160045260246000fd5b816004811115611eae577f4e487b7100000000000000000000000000000000000000000000000000000000600052602160045260246000fd5b1415611eef576040517f08c379a0000000000000000000000000000000000000000000000000000000008152600401611ee6906128f2565b60405180910390fd5b5b50565b6000807f7fffffffffffffffffffffffffffffff5d576e7357a4501ddfe92f46681b20a08360001c1115611f2e576000600391509150611ff7565b601b8560ff1614158015611f465750601c8560ff1614155b15611f58576000600491509150611ff7565b600060018787878760405160008152602001604052604051611f7d949392919061274b565b6020604051602081039080840390855afa158015611f9f573d6000803e3d6000fd5b505050602060405103519050600073ffffffffffffffffffffffffffffffffffffffff168173ffffffffffffffffffffffffffffffffffffffff161415611fee57600060019250925050611ff7565b80600092509250505b94509492505050565b60008135905061200f816131ec565b92915050565b60008135905061202481613203565b92915050565b6000813590506120398161321a565b92915050565b60008083601f84011261205157600080fd5b8235905067ffffffffffffffff81111561206a57600080fd5b60208301915083600182028301111561208257600080fd5b9250929050565b60008135905061209881613231565b92915050565b6000815190506120ad81613231565b92915050565b6000602082840312156120c557600080fd5b60006120d384828501612000565b91505092915050565b6000602082840312156120ee57600080fd5b60006120fc84828501612015565b91505092915050565b6000806040838503121561211857600080fd5b600061212685828601612015565b925050602061213785828601612000565b9150509250929050565b60006020828403121561215357600080fd5b60006121618482850161202a565b91505092915050565b60006020828403121561217c57600080fd5b600061218a84828501612089565b91505092915050565b6000602082840312156121a557600080fd5b60006121b38482850161209e565b91505092915050565b600080604083850312156121cf57600080fd5b60006121dd85828601612089565b92505060206121ee85828601612015565b9150509250929050565b600080600080600080600080600080600060e08c8e03121561221957600080fd5b60006122278e828f01612089565b9b505060206122388e828f01612089565b9a505060406122498e828f01612089565b99505060608c013567ffffffffffffffff81111561226657600080fd5b6122728e828f0161203f565b985098505060808c013567ffffffffffffffff81111561229157600080fd5b61229d8e828f0161203f565b965096505060a08c013567ffffffffffffffff8111156122bc57600080fd5b6122c88e828f0161203f565b945094505060c08c013567ffffffffffffffff8111156122e757600080fd5b6122f38e828f0161203f565b92509250509295989b509295989b9093969950565b61231181612c10565b82525050565b61232081612c22565b82525050565b61232f81612c2e565b82525050565b61234661234182612c2e565b612d5e565b82525050565b60006123588385612a6b565b9350612365838584612ca9565b61236e83612dc6565b840190509392505050565b600061238482612a60565b61238e8185612a6b565b935061239e818560208601612cb8565b6123a781612dc6565b840191505092915050565b60006123bd82612a60565b6123c78185612a7c565b93506123d7818560208601612cb8565b80840191505092915050565b60006123f0601883612a6b565b91506123fb82612dd7565b602082019050919050565b6000612413602083612a6b565b915061241e82612e00565b602082019050919050565b6000612436601f83612a6b565b915061244182612e29565b602082019050919050565b6000612459601c83612a7c565b915061246482612e52565b601c82019050919050565b600061247c601983612a6b565b915061248782612e7b565b602082019050919050565b600061249f602483612a6b565b91506124aa82612ea4565b604082019050919050565b60006124c2600d83612a6b565b91506124cd82612ef3565b602082019050919050565b60006124e5601583612a6b565b91506124f082612f1c565b602082019050919050565b6000612508602883612a6b565b915061251382612f45565b604082019050919050565b600061252b602283612a6b565b915061253682612f94565b604082019050919050565b600061254e601683612a6b565b915061255982612fe3565b602082019050919050565b6000612571602283612a6b565b915061257c8261300c565b604082019050919050565b6000612594601f83612a6b565b915061259f8261305b565b602082019050919050565b60006125b7602283612a6b565b91506125c282613084565b604082019050919050565b60006125da602a83612a6b565b91506125e5826130d3565b604082019050919050565b60006125fd601783612a7c565b915061260882613122565b601782019050919050565b6000612620601483612a6b565b915061262b8261314b565b602082019050919050565b6000612643601183612a7c565b915061264e82613174565b601182019050919050565b6000612666602f83612a6b565b91506126718261319d565b604082019050919050565b61268581612c92565b82525050565b61269481612c9c565b82525050565b60006126a58261244c565b91506126b18284612335565b60208201915081905092915050565b60006126cb826125f0565b91506126d782856123b2565b91506126e282612636565b91506126ee82846123b2565b91508190509392505050565b600060208201905061270f6000830184612308565b92915050565b600060208201905061272a6000830184612317565b92915050565b60006020820190506127456000830184612326565b92915050565b60006080820190506127606000830187612326565b61276d602083018661268b565b61277a6040830185612326565b6127876060830184612326565b95945050505050565b600060208201905081810360008301526127aa8184612379565b905092915050565b600060208201905081810360008301526127cb816123e3565b9050919050565b600060208201905081810360008301526127eb81612406565b9050919050565b6000602082019050818103600083015261280b81612429565b9050919050565b6000602082019050818103600083015261282b8161246f565b9050919050565b6000602082019050818103600083015261284b81612492565b9050919050565b6000602082019050818103600083015261286b816124b5565b9050919050565b6000602082019050818103600083015261288b816124d8565b9050919050565b600060208201905081810360008301526128ab816124fb565b9050919050565b600060208201905081810360008301526128cb8161251e565b9050919050565b600060208201905081810360008301526128eb81612541565b9050919050565b6000602082019050818103600083015261290b81612564565b9050919050565b6000602082019050818103600083015261292b81612587565b9050919050565b6000602082019050818103600083015261294b816125aa565b9050919050565b6000602082019050818103600083015261296b816125cd565b9050919050565b6000602082019050818103600083015261298b81612613565b9050919050565b600060208201905081810360008301526129ab81612659565b9050919050565b60006020820190506129c7600083018461267c565b92915050565b600060e0820190506129e2600083018e61267c565b6129ef602083018d61267c565b6129fc604083018c61267c565b8181036060830152612a0f818a8c61234c565b90508181036080830152612a2481888a61234c565b905081810360a0830152612a3981868861234c565b905081810360c0830152612a4e81848661234c565b90509c9b505050505050505050505050565b600081519050919050565b600082825260208201905092915050565b600081905092915050565b6000612a9282612c64565b9150612a9d83612c64565b92508261ffff03821115612ab457612ab3612d68565b5b828201905092915050565b6000612aca82612c92565b9150612ad583612c92565b9250827fffffffffffffffffffffffffffffffffffffffffffffffffffffffffffffffff03821115612b0a57612b09612d68565b5b828201905092915050565b6000612b2082612c92565b9150612b2b83612c92565b925082612b3b57612b3a612d97565b5b828204905092915050565b6000612b5182612c64565b9150612b5c83612c64565b92508161ffff0483118215151615612b7757612b76612d68565b5b828202905092915050565b6000612b8d82612c92565b9150612b9883612c92565b9250817fffffffffffffffffffffffffffffffffffffffffffffffffffffffffffffffff0483118215151615612bd157612bd0612d68565b5b828202905092915050565b6000612be782612c92565b9150612bf283612c92565b925082821015612c0557612c04612d68565b5b828203905092915050565b6000612c1b82612c72565b9050919050565b60008115159050919050565b6000819050919050565b60007fffffffff0000000000000000000000000000000000000000000000000000000082169050919050565b600061ffff82169050919050565b600073ffffffffffffffffffffffffffffffffffffffff82169050919050565b6000819050919050565b600060ff82169050919050565b82818337600083830152505050565b60005b83811015612cd6578082015181840152602081019050612cbb565b83811115612ce5576000848401525b50505050565b6000612cf682612c92565b91506000821415612d0a57612d09612d68565b5b600182039050919050565b6000612d2082612c92565b91507fffffffffffffffffffffffffffffffffffffffffffffffffffffffffffffffff821415612d5357612d52612d68565b5b600182019050919050565b6000819050919050565b7f4e487b7100000000000000000000000000000000000000000000000000000000600052601160045260246000fd5b7f4e487b7100000000000000000000000000000000000000000000000000000000600052601260045260246000fd5b6000601f19601f8301169050919050565b7f45434453413a20696e76616c6964207369676e61747572650000000000000000600082015250565b7f537472696e67733a20686578206c656e67746820696e73756666696369656e74600082015250565b7f45434453413a20696e76616c6964207369676e6174757265206c656e67746800600082015250565b7f19457468657265756d205369676e6564204d6573736167653a0a333200000000600082015250565b7f446174612074696d657374616d7020697320696e76616c696400000000000000600082015250565b7f7374617274446174655f206d7573742062652067726561746572207468616e2060008201527f7a65726f00000000000000000000000000000000000000000000000000000000602082015250565b7f696e636f72726563742066656500000000000000000000000000000000000000600082015250565b7f5369676e6572206e6f7420617574686f72697a65640000000000000000000000600082015250565b7f656e64446174655f206d7573742062652067726561746572207468616e20737460008201527f617274446174655f000000000000000000000000000000000000000000000000602082015250565b7f45434453413a20696e76616c6964207369676e6174757265202773272076616c60008201527f7565000000000000000000000000000000000000000000000000000000000000602082015250565b7f455243313136373a20637265617465206661696c656400000000000000000000600082015250565b7f45434453413a20696e76616c6964207369676e6174757265202776272076616c60008201527f7565000000000000000000000000000000000000000000000000000000000000602082015250565b7f63616e6e6f7420776974686472617720746f207a65726f206164647265737300600082015250565b7f656e64446174655f206d7573742062652067726561746572207468616e207a6560008201527f726f000000000000000000000000000000000000000000000000000000000000602082015250565b7f446174612077697468206675747572652074696d657374616d7073206973206e60008201527f6f7420616c6c6f77656400000000000000000000000000000000000000000000602082015250565b7f416363657373436f6e74726f6c3a206163636f756e7420000000000000000000600082015250565b7f6e6f20657468657220746f207769746864726177000000000000000000000000600082015250565b7f206973206d697373696e6720726f6c6520000000000000000000000000000000600082015250565b7f416363657373436f6e74726f6c3a2063616e206f6e6c792072656e6f756e636560008201527f20726f6c657320666f722073656c660000000000000000000000000000000000602082015250565b6131f581612c10565b811461320057600080fd5b50565b61320c81612c2e565b811461321757600080fd5b50565b61322381612c38565b811461322e57600080fd5b50565b61323a81612c92565b811461324557600080fd5b5056fea264697066735822122076b34b39f4fb356d7804f028ab8f20837f54da8373626c86d3b6e57d519a91c064736f6c63430008040033",
  "linkReferences": {},
  "deployedLinkReferences": {}
}