{
  "_format": "hh-sol-artifact-1",
  "contractName": "SarauMaker",
  "sourceName": "contracts/SarauMaker.sol",
  "abi": [
    {
      "inputs": [
        {
          "internalType": "address",
          "name": "nftImplementation_",
          "type": "address"
        },
        {
          "internalType": "bytes32",
          "name": "currency_",
          "type": "bytes32"
        }
      ],
      "stateMutability": "nonpayable",
      "type": "constructor"
    },
    {
      "anonymous": false,
      "inputs": [
        {
          "indexed": true,
          "internalType": "address",
          "name": "sender",
          "type": "address"
        },
        {
          "indexed": false,
          "internalType": "uint256",
          "name": "amount",
          "type": "uint256"
        }
      ],
      "name": "EtherFlushed",
      "type": "event"
    },
    {
      "anonymous": false,
      "inputs": [
        {
          "indexed": true,
          "internalType": "address",
          "name": "sender",
          "type": "address"
        },
        {
          "indexed": true,
          "internalType": "uint256",
          "name": "amount",
          "type": "uint256"
        }
      ],
      "name": "ReceivedEther",
      "type": "event"
    },
    {
      "anonymous": false,
      "inputs": [
        {
          "indexed": true,
          "internalType": "bytes32",
          "name": "role",
          "type": "bytes32"
        },
        {
          "indexed": true,
          "internalType": "bytes32",
          "name": "previousAdminRole",
          "type": "bytes32"
        },
        {
          "indexed": true,
          "internalType": "bytes32",
          "name": "newAdminRole",
          "type": "bytes32"
        }
      ],
      "name": "RoleAdminChanged",
      "type": "event"
    },
    {
      "anonymous": false,
      "inputs": [
        {
          "indexed": true,
          "internalType": "bytes32",
          "name": "role",
          "type": "bytes32"
        },
        {
          "indexed": true,
          "internalType": "address",
          "name": "account",
          "type": "address"
        },
        {
          "indexed": true,
          "internalType": "address",
          "name": "sender",
          "type": "address"
        }
      ],
      "name": "RoleGranted",
      "type": "event"
    },
    {
      "anonymous": false,
      "inputs": [
        {
          "indexed": true,
          "internalType": "bytes32",
          "name": "role",
          "type": "bytes32"
        },
        {
          "indexed": true,
          "internalType": "address",
          "name": "account",
          "type": "address"
        },
        {
          "indexed": true,
          "internalType": "address",
          "name": "sender",
          "type": "address"
        }
      ],
      "name": "RoleRevoked",
      "type": "event"
    },
    {
      "anonymous": false,
      "inputs": [
        {
          "indexed": true,
          "internalType": "address",
          "name": "nft",
          "type": "address"
        },
        {
          "indexed": true,
          "internalType": "uint256",
          "name": "id",
          "type": "uint256"
        }
      ],
      "name": "SarauCreated",
      "type": "event"
    },
    {
      "inputs": [],
      "name": "DEFAULT_ADMIN_ROLE",
      "outputs": [
        {
          "internalType": "bytes32",
          "name": "",
          "type": "bytes32"
        }
      ],
      "stateMutability": "view",
      "type": "function"
    },
    {
      "inputs": [
        {
          "internalType": "uint256",
          "name": "maxMint_",
          "type": "uint256"
        },
        {
          "internalType": "uint256",
          "name": "startDate_",
          "type": "uint256"
        },
        {
          "internalType": "uint256",
          "name": "endDate_",
          "type": "uint256"
        },
        {
          "internalType": "string",
          "name": "homepage_",
          "type": "string"
        },
        {
          "internalType": "string",
          "name": "name",
          "type": "string"
        },
        {
          "internalType": "string",
          "name": "symbol",
          "type": "string"
        },
        {
          "internalType": "string",
          "name": "uri_",
          "type": "string"
        }
      ],
      "name": "createSarau",
      "outputs": [
        {
          "internalType": "uint256",
          "name": "index",
          "type": "uint256"
        }
      ],
      "stateMutability": "payable",
      "type": "function"
    },
    {
      "inputs": [],
      "name": "creationEtherFee",
      "outputs": [
        {
          "internalType": "uint256",
          "name": "",
          "type": "uint256"
        }
      ],
      "stateMutability": "view",
      "type": "function"
    },
    {
      "inputs": [],
      "name": "creationUSDFee",
      "outputs": [
        {
          "internalType": "uint256",
          "name": "",
          "type": "uint256"
        }
      ],
      "stateMutability": "view",
      "type": "function"
    },
    {
      "inputs": [],
      "name": "currency",
      "outputs": [
        {
          "internalType": "bytes32",
          "name": "",
          "type": "bytes32"
        }
      ],
      "stateMutability": "view",
      "type": "function"
    },
    {
      "inputs": [],
      "name": "currentIndex",
      "outputs": [
        {
          "internalType": "uint256",
          "name": "",
          "type": "uint256"
        }
      ],
      "stateMutability": "view",
      "type": "function"
    },
    {
      "inputs": [],
      "name": "etherPrice",
      "outputs": [
        {
          "internalType": "uint256",
          "name": "",
          "type": "uint256"
        }
      ],
      "stateMutability": "view",
      "type": "function"
    },
    {
      "inputs": [
        {
          "internalType": "address",
          "name": "_to",
          "type": "address"
        }
      ],
      "name": "flushETH",
      "outputs": [],
      "stateMutability": "nonpayable",
      "type": "function"
    },
    {
      "inputs": [],
      "name": "getMaxBlockTimestampDelay",
      "outputs": [
        {
          "internalType": "uint256",
          "name": "",
          "type": "uint256"
        }
      ],
      "stateMutability": "view",
      "type": "function"
    },
    {
      "inputs": [],
      "name": "getMaxDataTimestampDelay",
      "outputs": [
        {
          "internalType": "uint256",
          "name": "",
          "type": "uint256"
        }
      ],
      "stateMutability": "view",
      "type": "function"
    },
    {
      "inputs": [
        {
          "internalType": "bytes32",
          "name": "role",
          "type": "bytes32"
        }
      ],
      "name": "getRoleAdmin",
      "outputs": [
        {
          "internalType": "bytes32",
          "name": "",
          "type": "bytes32"
        }
      ],
      "stateMutability": "view",
      "type": "function"
    },
    {
      "inputs": [
        {
          "internalType": "uint256",
          "name": "index_",
          "type": "uint256"
        }
      ],
      "name": "getSarau",
      "outputs": [
        {
          "internalType": "address",
          "name": "",
          "type": "address"
        }
      ],
      "stateMutability": "view",
      "type": "function"
    },
    {
      "inputs": [
        {
          "internalType": "bytes32",
          "name": "role",
          "type": "bytes32"
        },
        {
          "internalType": "address",
          "name": "account",
          "type": "address"
        }
      ],
      "name": "grantRole",
      "outputs": [],
      "stateMutability": "nonpayable",
      "type": "function"
    },
    {
      "inputs": [
        {
          "internalType": "bytes32",
          "name": "role",
          "type": "bytes32"
        },
        {
          "internalType": "address",
          "name": "account",
          "type": "address"
        }
      ],
      "name": "hasRole",
      "outputs": [
        {
          "internalType": "bool",
          "name": "",
          "type": "bool"
        }
      ],
      "stateMutability": "view",
      "type": "function"
    },
    {
      "inputs": [
        {
          "internalType": "address",
          "name": "_receivedSigner",
          "type": "address"
        }
      ],
      "name": "isSignerAuthorized",
      "outputs": [
        {
          "internalType": "bool",
          "name": "",
          "type": "bool"
        }
      ],
      "stateMutability": "view",
      "type": "function"
    },
    {
      "inputs": [
        {
          "internalType": "uint256",
          "name": "_receivedTimestamp",
          "type": "uint256"
        }
      ],
      "name": "isTimestampValid",
      "outputs": [
        {
          "internalType": "bool",
          "name": "",
          "type": "bool"
        }
      ],
      "stateMutability": "view",
      "type": "function"
    },
    {
      "inputs": [
        {
          "internalType": "uint256",
          "name": "index_",
          "type": "uint256"
        },
        {
          "internalType": "bytes32",
          "name": "code_",
          "type": "bytes32"
        }
      ],
      "name": "mint",
      "outputs": [
        {
          "internalType": "uint256",
          "name": "",
          "type": "uint256"
        }
      ],
      "stateMutability": "nonpayable",
      "type": "function"
    },
    {
      "inputs": [],
      "name": "nftImplementation",
      "outputs": [
        {
          "internalType": "address",
          "name": "",
          "type": "address"
        }
      ],
      "stateMutability": "view",
      "type": "function"
    },
    {
      "inputs": [],
      "name": "redstoneSigner",
      "outputs": [
        {
          "internalType": "address",
          "name": "",
          "type": "address"
        }
      ],
      "stateMutability": "view",
      "type": "function"
    },
    {
      "inputs": [
        {
          "internalType": "bytes32",
          "name": "role",
          "type": "bytes32"
        },
        {
          "internalType": "address",
          "name": "account",
          "type": "address"
        }
      ],
      "name": "renounceRole",
      "outputs": [],
      "stateMutability": "nonpayable",
      "type": "function"
    },
    {
      "inputs": [
        {
          "internalType": "bytes32",
          "name": "role",
          "type": "bytes32"
        },
        {
          "internalType": "address",
          "name": "account",
          "type": "address"
        }
      ],
      "name": "revokeRole",
      "outputs": [],
      "stateMutability": "nonpayable",
      "type": "function"
    },
    {
      "inputs": [
        {
          "internalType": "uint256",
          "name": "",
          "type": "uint256"
        }
      ],
      "name": "saraus",
      "outputs": [
        {
          "internalType": "address",
          "name": "",
          "type": "address"
        }
      ],
      "stateMutability": "view",
      "type": "function"
    },
    {
      "inputs": [
        {
          "internalType": "uint256",
          "name": "creationFee_",
          "type": "uint256"
        }
      ],
      "name": "setCreationUSDFee",
      "outputs": [],
      "stateMutability": "nonpayable",
      "type": "function"
    },
    {
      "inputs": [
        {
          "internalType": "address",
          "name": "redstoneSigner_",
          "type": "address"
        }
      ],
      "name": "setRedstoneSigner",
      "outputs": [],
      "stateMutability": "nonpayable",
      "type": "function"
    },
    {
      "inputs": [
        {
          "internalType": "bytes4",
          "name": "interfaceId",
          "type": "bytes4"
        }
      ],
      "name": "supportsInterface",
      "outputs": [
        {
          "internalType": "bool",
          "name": "",
          "type": "bool"
        }
      ],
      "stateMutability": "view",
      "type": "function"
    },
    {
      "inputs": [],
      "name": "updateEtherPrice",
      "outputs": [],
      "stateMutability": "nonpayable",
      "type": "function"
    },
    {
      "stateMutability": "payable",
      "type": "receive"
    }
  ],
  "bytecode": "0x60c06040523480156200001157600080fd5b50604051620033d9380380620033d9833981810160405281019062000037919062000233565b8173ffffffffffffffffffffffffffffffffffffffff1660808173ffffffffffffffffffffffffffffffffffffffff1660601b815250508060a081815250506200009a6000801b6200008e620000a260201b60201c565b620000aa60201b60201c565b5050620002e6565b600033905090565b620000bc82826200019b60201b60201c565b6200019757600160008084815260200190815260200160002060000160008373ffffffffffffffffffffffffffffffffffffffff1673ffffffffffffffffffffffffffffffffffffffff16815260200190815260200160002060006101000a81548160ff0219169083151502179055506200013c620000a260201b60201c565b73ffffffffffffffffffffffffffffffffffffffff168173ffffffffffffffffffffffffffffffffffffffff16837f2f8788117e7eff1d82e926ec794901d17c78024a50270940304540a733656f0d60405160405180910390a45b5050565b600080600084815260200190815260200160002060000160008373ffffffffffffffffffffffffffffffffffffffff1673ffffffffffffffffffffffffffffffffffffffff16815260200190815260200160002060009054906101000a900460ff16905092915050565b6000815190506200021681620002b2565b92915050565b6000815190506200022d81620002cc565b92915050565b600080604083850312156200024757600080fd5b6000620002578582860162000205565b92505060206200026a858286016200021c565b9150509250929050565b6000620002818262000292565b9050919050565b6000819050919050565b600073ffffffffffffffffffffffffffffffffffffffff82169050919050565b620002bd8162000274565b8114620002c957600080fd5b50565b620002d78162000288565b8114620002e357600080fd5b50565b60805160601c60a0516130bc6200031d60003960008181610d130152610f5701526000818161083c0152610f8401526130bc6000f3fe6080604052600436106101855760003560e01c806370e37325116100d1578063a217fddf1161008a578063e5a6b10f11610064578063e5a6b10f146105fe578063f31a210a14610629578063f61ac58b14610654578063f84f459c1461067f576101d0565b8063a217fddf14610581578063d547741f146105ac578063dc426881146105d5576101d0565b806370e373251461045f578063750582051461049c578063867b3d4b146104d957806391d14854146104f0578063971836e81461052d5780639e30795514610556576101d0565b806326987b601161013e57806336568abe1161011857806336568abe146103b557806342ba9bb3146103de5780635118af5a146104095780635335b6af14610434576101d0565b806326987b60146103365780632f2ff15d1461036157806330a7b1f51461038a576101d0565b806301ffc9a7146101d5578063071054bd1461021257806311c89b101461024257806314ebbef51461027f5780631801fbe5146102bc578063248a9ca3146102f9576101d0565b366101d057343373ffffffffffffffffffffffffffffffffffffffff167fa419615bc8fda4c87663805ee2a3597a6d71c1d476911d9892f340d965bc7bf160405160405180910390a3005b600080fd5b3480156101e157600080fd5b506101fc60048036038101906101f79190611fdf565b6106a8565b60405161020991906125b3565b60405180910390f35b61022c60048036038101906102279190612096565b610722565b6040516102399190612850565b60405180910390f35b34801561024e57600080fd5b5061026960048036038101906102649190611f51565b610a16565b60405161027691906125b3565b60405180910390f35b34801561028b57600080fd5b506102a660048036038101906102a19190612008565b610a70565b6040516102b39190612598565b60405180910390f35b3480156102c857600080fd5b506102e360048036038101906102de919061205a565b610aad565b6040516102f09190612850565b60405180910390f35b34801561030557600080fd5b50610320600480360381019061031b9190611f7a565b610b4a565b60405161032d91906125ce565b60405180910390f35b34801561034257600080fd5b5061034b610b69565b6040516103589190612850565b60405180910390f35b34801561036d57600080fd5b5061038860048036038101906103839190611fa3565b610b6f565b005b34801561039657600080fd5b5061039f610b90565b6040516103ac9190612850565b60405180910390f35b3480156103c157600080fd5b506103dc60048036038101906103d79190611fa3565b610ba7565b005b3480156103ea57600080fd5b506103f3610c2a565b6040516104009190612598565b60405180910390f35b34801561041557600080fd5b5061041e610c50565b60405161042b9190612850565b60405180910390f35b34801561044057600080fd5b50610449610c59565b6040516104569190612850565b60405180910390f35b34801561046b57600080fd5b5061048660048036038101906104819190612008565b610c5f565b6040516104939190612598565b60405180910390f35b3480156104a857600080fd5b506104c360048036038101906104be9190612008565b610c92565b6040516104d091906125b3565b60405180910390f35b3480156104e557600080fd5b506104ee610d0e565b005b3480156104fc57600080fd5b5061051760048036038101906105129190611fa3565b610d3f565b60405161052491906125b3565b60405180910390f35b34801561053957600080fd5b50610554600480360381019061054f9190612008565b610da9565b005b34801561056257600080fd5b5061056b610dc1565b6040516105789190612850565b60405180910390f35b34801561058d57600080fd5b50610596610dc7565b6040516105a391906125ce565b60405180910390f35b3480156105b857600080fd5b506105d360048036038101906105ce9190611fa3565b610dce565b005b3480156105e157600080fd5b506105fc60048036038101906105f79190611f51565b610def565b005b34801561060a57600080fd5b50610613610f55565b60405161062091906125ce565b60405180910390f35b34801561063557600080fd5b5061063e610f79565b60405161064b9190612850565b60405180910390f35b34801561066057600080fd5b50610669610f82565b6040516106769190612598565b60405180910390f35b34801561068b57600080fd5b506106a660048036038101906106a19190611f51565b610fa6565b005b60007f7965db0b000000000000000000000000000000000000000000000000000000007bffffffffffffffffffffffffffffffffffffffffffffffffffffffff1916827bffffffffffffffffffffffffffffffffffffffffffffffffffffffff1916148061071b575061071a82610ff8565b5b9050919050565b600061072c610b90565b341461076d576040517f08c379a0000000000000000000000000000000000000000000000000000000008152600401610764906126f0565b60405180910390fd5b60008b116107b0576040517f08c379a00000000000000000000000000000000000000000000000000000000081526004016107a7906126d0565b60405180910390fd5b60008a116107f3576040517f08c379a00000000000000000000000000000000000000000000000000000000081526004016107ea906127d0565b60405180910390fd5b8a8a11610835576040517f08c379a000000000000000000000000000000000000000000000000000000000815260040161082c90612730565b60405180910390fd5b60006108607f0000000000000000000000000000000000000000000000000000000000000000611062565b90508073ffffffffffffffffffffffffffffffffffffffff1663c170fc928e8e8e8e8e8e8e8e8e8e8e6040518c63ffffffff1660e01b81526004016108af9b9a9998979695949392919061286b565b600060405180830381600087803b1580156108c957600080fd5b505af11580156108dd573d6000803e3d6000fd5b505050508073ffffffffffffffffffffffffffffffffffffffff1663f2fde38b610905611137565b6040518263ffffffff1660e01b81526004016109219190612598565b600060405180830381600087803b15801561093b57600080fd5b505af115801561094f573d6000803e3d6000fd5b505050506001549150806003600084815260200190815260200160002060006101000a81548173ffffffffffffffffffffffffffffffffffffffff021916908373ffffffffffffffffffffffffffffffffffffffff160217905550818173ffffffffffffffffffffffffffffffffffffffff167fac100e67e29f770c65d8049cdf0b746851e89c395ca9d80fcbaaebc0d38cf65e60405160405180910390a360016000815480929190610a0190612b82565b9190505550509b9a5050505050505050505050565b60008173ffffffffffffffffffffffffffffffffffffffff16600560009054906101000a900473ffffffffffffffffffffffffffffffffffffffff1673ffffffffffffffffffffffffffffffffffffffff16149050919050565b60006003600083815260200190815260200160002060009054906101000a900473ffffffffffffffffffffffffffffffffffffffff169050919050565b6000610ab883610a70565b73ffffffffffffffffffffffffffffffffffffffff1663adf2cead836040518263ffffffff1660e01b8152600401610af091906125ce565b602060405180830381600087803b158015610b0a57600080fd5b505af1158015610b1e573d6000803e3d6000fd5b505050506040513d601f19601f82011682018060405250810190610b429190612031565b905092915050565b6000806000838152602001908152602001600020600101549050919050565b60015481565b610b7882610b4a565b610b818161113f565b610b8b8383611153565b505050565b6000600254600454610ba291906129ef565b905090565b610baf611137565b73ffffffffffffffffffffffffffffffffffffffff168173ffffffffffffffffffffffffffffffffffffffff1614610c1c576040517f08c379a0000000000000000000000000000000000000000000000000000000008152600401610c1390612830565b60405180910390fd5b610c268282611233565b5050565b600560009054906101000a900473ffffffffffffffffffffffffffffffffffffffff1681565b6000600f905090565b60025481565b60036020528060005260406000206000915054906101000a900473ffffffffffffffffffffffffffffffffffffffff1681565b600081610c9d610c50565b42610ca8919061295d565b11610ce8576040517f08c379a0000000000000000000000000000000000000000000000000000000008152600401610cdf906127f0565b60405180910390fd5b81421080610d075750610cf9610f79565b8242610d059190612a49565b105b9050919050565b610d377f0000000000000000000000000000000000000000000000000000000000000000611314565b600481905550565b600080600084815260200190815260200160002060000160008373ffffffffffffffffffffffffffffffffffffffff1673ffffffffffffffffffffffffffffffffffffffff16815260200190815260200160002060009054906101000a900460ff16905092915050565b6000801b610db68161113f565b816002819055505050565b60045481565b6000801b81565b610dd782610b4a565b610de08161113f565b610dea8383611233565b505050565b6000801b610dfc8161113f565b600073ffffffffffffffffffffffffffffffffffffffff168273ffffffffffffffffffffffffffffffffffffffff161415610e6c576040517f08c379a0000000000000000000000000000000000000000000000000000000008152600401610e63906127b0565b60405180910390fd5b600047905060008111610eb4576040517f08c379a0000000000000000000000000000000000000000000000000000000008152600401610eab90612810565b60405180910390fd5b8273ffffffffffffffffffffffffffffffffffffffff166108fc829081150290604051600060405180830381858888f19350505050158015610efa573d6000803e3d6000fd5b50610f03611137565b73ffffffffffffffffffffffffffffffffffffffff167f7e8bfbce8498a152a0bedcf83edec38ffb0a13b19a197cb7c2686fc6371013ab82604051610f489190612850565b60405180910390a2505050565b7f000000000000000000000000000000000000000000000000000000000000000081565b600060b4905090565b7f000000000000000000000000000000000000000000000000000000000000000081565b6000801b610fb38161113f565b81600560006101000a81548173ffffffffffffffffffffffffffffffffffffffff021916908373ffffffffffffffffffffffffffffffffffffffff1602179055505050565b60007f01ffc9a7000000000000000000000000000000000000000000000000000000007bffffffffffffffffffffffffffffffffffffffffffffffffffffffff1916827bffffffffffffffffffffffffffffffffffffffffffffffffffffffff1916149050919050565b60006040517f3d602d80600a3d3981f3363d3d373d3d3d363d7300000000000000000000000081528260601b60148201527f5af43d82803e903d91602b57fd5bf3000000000000000000000000000000000060288201526037816000f0915050600073ffffffffffffffffffffffffffffffffffffffff168173ffffffffffffffffffffffffffffffffffffffff161415611132576040517f08c379a000000000000000000000000000000000000000000000000000000000815260040161112990612770565b60405180910390fd5b919050565b600033905090565b6111508161114b611137565b611422565b50565b61115d8282610d3f565b61122f57600160008084815260200190815260200160002060000160008373ffffffffffffffffffffffffffffffffffffffff1673ffffffffffffffffffffffffffffffffffffffff16815260200190815260200160002060006101000a81548160ff0219169083151502179055506111d4611137565b73ffffffffffffffffffffffffffffffffffffffff168173ffffffffffffffffffffffffffffffffffffffff16837f2f8788117e7eff1d82e926ec794901d17c78024a50270940304540a733656f0d60405160405180910390a45b5050565b61123d8282610d3f565b1561131057600080600084815260200190815260200160002060000160008373ffffffffffffffffffffffffffffffffffffffff1673ffffffffffffffffffffffffffffffffffffffff16815260200190815260200160002060006101000a81548160ff0219169083151502179055506112b5611137565b73ffffffffffffffffffffffffffffffffffffffff168173ffffffffffffffffffffffffffffffffffffffff16837ff6391f5c32d9c69d2a47ea670b442974b53935d1edc7fd64eb21e047a839171b60405160405180910390a45b5050565b600080600167ffffffffffffffff811115611358577f4e487b7100000000000000000000000000000000000000000000000000000000600052604160045260246000fd5b6040519080825280602002602001820160405280156113865781602001602082028036833780820191505090505b50905082816000815181106113c4577f4e487b7100000000000000000000000000000000000000000000000000000000600052603260045260246000fd5b6020026020010181815250506113d9816114bf565b600081518110611412577f4e487b7100000000000000000000000000000000000000000000000000000000600052603260045260246000fd5b6020026020010151915050919050565b61142c8282610d3f565b6114bb576114518173ffffffffffffffffffffffffffffffffffffffff166014611627565b61145f8360001c6020611627565b60405160200161147092919061255e565b6040516020818303038152906040526040517f08c379a00000000000000000000000000000000000000000000000000000000081526004016114b2919061262e565b60405180910390fd5b5050565b60606000606136033590506000602060408360ff166114de91906129b3565b6114e89190612925565b905060606040519050818152816042830136036020830137602081016040526000818051906020012090506000816040516020016115269190612538565b60405160208183030381529060405280519060200120905060606040519050604181526041803603602083013760208101604052600061156f828461192190919063ffffffff16565b905061157a81610a16565b6115b9576040517f08c379a00000000000000000000000000000000000000000000000000000000081526004016115b090612710565b60405180910390fd5b6000606236033590506115cb81610c92565b61160a576040517f08c379a0000000000000000000000000000000000000000000000000000000008152600401611601906126b0565b60405180910390fd5b6116188a8960ff1689611948565b98505050505050505050919050565b60606000600283600261163a91906129ef565b611644919061295d565b67ffffffffffffffff811115611683577f4e487b7100000000000000000000000000000000000000000000000000000000600052604160045260246000fd5b6040519080825280601f01601f1916602001820160405280156116b55781602001600182028036833780820191505090505b5090507f300000000000000000000000000000000000000000000000000000000000000081600081518110611713577f4e487b7100000000000000000000000000000000000000000000000000000000600052603260045260246000fd5b60200101907effffffffffffffffffffffffffffffffffffffffffffffffffffffffffffff1916908160001a9053507f78000000000000000000000000000000000000000000000000000000000000008160018151811061179d577f4e487b7100000000000000000000000000000000000000000000000000000000600052603260045260246000fd5b60200101907effffffffffffffffffffffffffffffffffffffffffffffffffffffffffffff1916908160001a905350600060018460026117dd91906129ef565b6117e7919061295d565b90505b60018111156118d3577f3031323334353637383961626364656600000000000000000000000000000000600f86166010811061184f577f4e487b7100000000000000000000000000000000000000000000000000000000600052603260045260246000fd5b1a60f81b82828151811061188c577f4e487b7100000000000000000000000000000000000000000000000000000000600052603260045260246000fd5b60200101907effffffffffffffffffffffffffffffffffffffffffffffffffffffffffffff1916908160001a905350600485901c9450806118cc90612b58565b90506117ea565b5060008414611917576040517f08c379a000000000000000000000000000000000000000000000000000000000815260040161190e90612670565b60405180910390fd5b8091505092915050565b600080600061193085856119ee565b9150915061193d81611a40565b819250505092915050565b6060806000806000806042870136035995508951865260208a51026020870101604052600094505b89518510156119de576020850260208b0101519150600093505b888410156119d357816040850282013514156119bb5760206040850282010135602086026020880101526001830192505b89518314156119c8578894505b60018401935061198a565b600185019450611970565b5084955050505050509392505050565b600080604183511415611a305760008060006020860151925060408601519150606086015160001a9050611a2487828585611d91565b94509450505050611a39565b60006002915091505b9250929050565b60006004811115611a7a577f4e487b7100000000000000000000000000000000000000000000000000000000600052602160045260246000fd5b816004811115611ab3577f4e487b7100000000000000000000000000000000000000000000000000000000600052602160045260246000fd5b1415611abe57611d8e565b60016004811115611af8577f4e487b7100000000000000000000000000000000000000000000000000000000600052602160045260246000fd5b816004811115611b31577f4e487b7100000000000000000000000000000000000000000000000000000000600052602160045260246000fd5b1415611b72576040517f08c379a0000000000000000000000000000000000000000000000000000000008152600401611b6990612650565b60405180910390fd5b60026004811115611bac577f4e487b7100000000000000000000000000000000000000000000000000000000600052602160045260246000fd5b816004811115611be5577f4e487b7100000000000000000000000000000000000000000000000000000000600052602160045260246000fd5b1415611c26576040517f08c379a0000000000000000000000000000000000000000000000000000000008152600401611c1d90612690565b60405180910390fd5b60036004811115611c60577f4e487b7100000000000000000000000000000000000000000000000000000000600052602160045260246000fd5b816004811115611c99577f4e487b7100000000000000000000000000000000000000000000000000000000600052602160045260246000fd5b1415611cda576040517f08c379a0000000000000000000000000000000000000000000000000000000008152600401611cd190612750565b60405180910390fd5b600480811115611d13577f4e487b7100000000000000000000000000000000000000000000000000000000600052602160045260246000fd5b816004811115611d4c577f4e487b7100000000000000000000000000000000000000000000000000000000600052602160045260246000fd5b1415611d8d576040517f08c379a0000000000000000000000000000000000000000000000000000000008152600401611d8490612790565b60405180910390fd5b5b50565b6000807f7fffffffffffffffffffffffffffffff5d576e7357a4501ddfe92f46681b20a08360001c1115611dcc576000600391509150611e95565b601b8560ff1614158015611de45750601c8560ff1614155b15611df6576000600491509150611e95565b600060018787878760405160008152602001604052604051611e1b94939291906125e9565b6020604051602081039080840390855afa158015611e3d573d6000803e3d6000fd5b505050602060405103519050600073ffffffffffffffffffffffffffffffffffffffff168173ffffffffffffffffffffffffffffffffffffffff161415611e8c57600060019250925050611e95565b80600092509250505b94509492505050565b600081359050611ead8161302a565b92915050565b600081359050611ec281613041565b92915050565b600081359050611ed781613058565b92915050565b60008083601f840112611eef57600080fd5b8235905067ffffffffffffffff811115611f0857600080fd5b602083019150836001820283011115611f2057600080fd5b9250929050565b600081359050611f368161306f565b92915050565b600081519050611f4b8161306f565b92915050565b600060208284031215611f6357600080fd5b6000611f7184828501611e9e565b91505092915050565b600060208284031215611f8c57600080fd5b6000611f9a84828501611eb3565b91505092915050565b60008060408385031215611fb657600080fd5b6000611fc485828601611eb3565b9250506020611fd585828601611e9e565b9150509250929050565b600060208284031215611ff157600080fd5b6000611fff84828501611ec8565b91505092915050565b60006020828403121561201a57600080fd5b600061202884828501611f27565b91505092915050565b60006020828403121561204357600080fd5b600061205184828501611f3c565b91505092915050565b6000806040838503121561206d57600080fd5b600061207b85828601611f27565b925050602061208c85828601611eb3565b9150509250929050565b600080600080600080600080600080600060e08c8e0312156120b757600080fd5b60006120c58e828f01611f27565b9b505060206120d68e828f01611f27565b9a505060406120e78e828f01611f27565b99505060608c013567ffffffffffffffff81111561210457600080fd5b6121108e828f01611edd565b985098505060808c013567ffffffffffffffff81111561212f57600080fd5b61213b8e828f01611edd565b965096505060a08c013567ffffffffffffffff81111561215a57600080fd5b6121668e828f01611edd565b945094505060c08c013567ffffffffffffffff81111561218557600080fd5b6121918e828f01611edd565b92509250509295989b509295989b9093969950565b6121af81612a7d565b82525050565b6121be81612a8f565b82525050565b6121cd81612a9b565b82525050565b6121e46121df82612a9b565b612bcb565b82525050565b60006121f68385612909565b9350612203838584612b16565b61220c83612c04565b840190509392505050565b6000612222826128fe565b61222c8185612909565b935061223c818560208601612b25565b61224581612c04565b840191505092915050565b600061225b826128fe565b612265818561291a565b9350612275818560208601612b25565b80840191505092915050565b600061228e601883612909565b915061229982612c15565b602082019050919050565b60006122b1602083612909565b91506122bc82612c3e565b602082019050919050565b60006122d4601f83612909565b91506122df82612c67565b602082019050919050565b60006122f7601c8361291a565b915061230282612c90565b601c82019050919050565b600061231a601983612909565b915061232582612cb9565b602082019050919050565b600061233d602483612909565b915061234882612ce2565b604082019050919050565b6000612360600d83612909565b915061236b82612d31565b602082019050919050565b6000612383601583612909565b915061238e82612d5a565b602082019050919050565b60006123a6602883612909565b91506123b182612d83565b604082019050919050565b60006123c9602283612909565b91506123d482612dd2565b604082019050919050565b60006123ec601683612909565b91506123f782612e21565b602082019050919050565b600061240f602283612909565b915061241a82612e4a565b604082019050919050565b6000612432601f83612909565b915061243d82612e99565b602082019050919050565b6000612455602283612909565b915061246082612ec2565b604082019050919050565b6000612478602a83612909565b915061248382612f11565b604082019050919050565b600061249b60178361291a565b91506124a682612f60565b601782019050919050565b60006124be601483612909565b91506124c982612f89565b602082019050919050565b60006124e160118361291a565b91506124ec82612fb2565b601182019050919050565b6000612504602f83612909565b915061250f82612fdb565b604082019050919050565b61252381612aff565b82525050565b61253281612b09565b82525050565b6000612543826122ea565b915061254f82846121d3565b60208201915081905092915050565b60006125698261248e565b91506125758285612250565b9150612580826124d4565b915061258c8284612250565b91508190509392505050565b60006020820190506125ad60008301846121a6565b92915050565b60006020820190506125c860008301846121b5565b92915050565b60006020820190506125e360008301846121c4565b92915050565b60006080820190506125fe60008301876121c4565b61260b6020830186612529565b61261860408301856121c4565b61262560608301846121c4565b95945050505050565b600060208201905081810360008301526126488184612217565b905092915050565b6000602082019050818103600083015261266981612281565b9050919050565b60006020820190508181036000830152612689816122a4565b9050919050565b600060208201905081810360008301526126a9816122c7565b9050919050565b600060208201905081810360008301526126c98161230d565b9050919050565b600060208201905081810360008301526126e981612330565b9050919050565b6000602082019050818103600083015261270981612353565b9050919050565b6000602082019050818103600083015261272981612376565b9050919050565b6000602082019050818103600083015261274981612399565b9050919050565b60006020820190508181036000830152612769816123bc565b9050919050565b60006020820190508181036000830152612789816123df565b9050919050565b600060208201905081810360008301526127a981612402565b9050919050565b600060208201905081810360008301526127c981612425565b9050919050565b600060208201905081810360008301526127e981612448565b9050919050565b600060208201905081810360008301526128098161246b565b9050919050565b60006020820190508181036000830152612829816124b1565b9050919050565b60006020820190508181036000830152612849816124f7565b9050919050565b6000602082019050612865600083018461251a565b92915050565b600060e082019050612880600083018e61251a565b61288d602083018d61251a565b61289a604083018c61251a565b81810360608301526128ad818a8c6121ea565b905081810360808301526128c281888a6121ea565b905081810360a08301526128d78186886121ea565b905081810360c08301526128ec8184866121ea565b90509c9b505050505050505050505050565b600081519050919050565b600082825260208201905092915050565b600081905092915050565b600061293082612ad1565b915061293b83612ad1565b92508261ffff0382111561295257612951612bd5565b5b828201905092915050565b600061296882612aff565b915061297383612aff565b9250827fffffffffffffffffffffffffffffffffffffffffffffffffffffffffffffffff038211156129a8576129a7612bd5565b5b828201905092915050565b60006129be82612ad1565b91506129c983612ad1565b92508161ffff04831182151516156129e4576129e3612bd5565b5b828202905092915050565b60006129fa82612aff565b9150612a0583612aff565b9250817fffffffffffffffffffffffffffffffffffffffffffffffffffffffffffffffff0483118215151615612a3e57612a3d612bd5565b5b828202905092915050565b6000612a5482612aff565b9150612a5f83612aff565b925082821015612a7257612a71612bd5565b5b828203905092915050565b6000612a8882612adf565b9050919050565b60008115159050919050565b6000819050919050565b60007fffffffff0000000000000000000000000000000000000000000000000000000082169050919050565b600061ffff82169050919050565b600073ffffffffffffffffffffffffffffffffffffffff82169050919050565b6000819050919050565b600060ff82169050919050565b82818337600083830152505050565b60005b83811015612b43578082015181840152602081019050612b28565b83811115612b52576000848401525b50505050565b6000612b6382612aff565b91506000821415612b7757612b76612bd5565b5b600182039050919050565b6000612b8d82612aff565b91507fffffffffffffffffffffffffffffffffffffffffffffffffffffffffffffffff821415612bc057612bbf612bd5565b5b600182019050919050565b6000819050919050565b7f4e487b7100000000000000000000000000000000000000000000000000000000600052601160045260246000fd5b6000601f19601f8301169050919050565b7f45434453413a20696e76616c6964207369676e61747572650000000000000000600082015250565b7f537472696e67733a20686578206c656e67746820696e73756666696369656e74600082015250565b7f45434453413a20696e76616c6964207369676e6174757265206c656e67746800600082015250565b7f19457468657265756d205369676e6564204d6573736167653a0a333200000000600082015250565b7f446174612074696d657374616d7020697320696e76616c696400000000000000600082015250565b7f7374617274446174655f206d7573742062652067726561746572207468616e2060008201527f7a65726f00000000000000000000000000000000000000000000000000000000602082015250565b7f696e636f72726563742066656500000000000000000000000000000000000000600082015250565b7f5369676e6572206e6f7420617574686f72697a65640000000000000000000000600082015250565b7f656e64446174655f206d7573742062652067726561746572207468616e20737460008201527f617274446174655f000000000000000000000000000000000000000000000000602082015250565b7f45434453413a20696e76616c6964207369676e6174757265202773272076616c60008201527f7565000000000000000000000000000000000000000000000000000000000000602082015250565b7f455243313136373a20637265617465206661696c656400000000000000000000600082015250565b7f45434453413a20696e76616c6964207369676e6174757265202776272076616c60008201527f7565000000000000000000000000000000000000000000000000000000000000602082015250565b7f63616e6e6f7420776974686472617720746f207a65726f206164647265737300600082015250565b7f656e64446174655f206d7573742062652067726561746572207468616e207a6560008201527f726f000000000000000000000000000000000000000000000000000000000000602082015250565b7f446174612077697468206675747572652074696d657374616d7073206973206e60008201527f6f7420616c6c6f77656400000000000000000000000000000000000000000000602082015250565b7f416363657373436f6e74726f6c3a206163636f756e7420000000000000000000600082015250565b7f6e6f20657468657220746f207769746864726177000000000000000000000000600082015250565b7f206973206d697373696e6720726f6c6520000000000000000000000000000000600082015250565b7f416363657373436f6e74726f6c3a2063616e206f6e6c792072656e6f756e636560008201527f20726f6c657320666f722073656c660000000000000000000000000000000000602082015250565b61303381612a7d565b811461303e57600080fd5b50565b61304a81612a9b565b811461305557600080fd5b50565b61306181612aa5565b811461306c57600080fd5b50565b61307881612aff565b811461308357600080fd5b5056fea264697066735822122094ab482212708cb007edd845d59131a9ccaed2587a739d7b1c28c24862aed62864736f6c63430008040033",
  "linkReferences": {},
  "deployedLinkReferences": {}
}