{
  "_format": "hh-sol-artifact-1",
  "contractName": "SarauNFT",
  "sourceName": "contracts/SarauNFT.sol",
  "abi": [
    {
      "inputs": [],
      "name": "ApprovalCallerNotOwnerNorApproved",
      "type": "error"
    },
    {
      "inputs": [],
      "name": "ApprovalQueryForNonexistentToken",
      "type": "error"
    },
    {
      "inputs": [],
      "name": "ApproveToCaller",
      "type": "error"
    },
    {
      "inputs": [],
      "name": "BalanceQueryForZeroAddress",
      "type": "error"
    },
    {
      "inputs": [],
      "name": "MintERC2309QuantityExceedsLimit",
      "type": "error"
    },
    {
      "inputs": [],
      "name": "MintToZeroAddress",
      "type": "error"
    },
    {
      "inputs": [],
      "name": "MintZeroQuantity",
      "type": "error"
    },
    {
      "inputs": [],
      "name": "OwnerQueryForNonexistentToken",
      "type": "error"
    },
    {
      "inputs": [],
      "name": "OwnershipNotInitializedForExtraData",
      "type": "error"
    },
    {
      "inputs": [],
      "name": "TransferCallerNotOwnerNorApproved",
      "type": "error"
    },
    {
      "inputs": [],
      "name": "TransferFromIncorrectOwner",
      "type": "error"
    },
    {
      "inputs": [],
      "name": "TransferToNonERC721ReceiverImplementer",
      "type": "error"
    },
    {
      "inputs": [],
      "name": "TransferToZeroAddress",
      "type": "error"
    },
    {
      "inputs": [],
      "name": "URIQueryForNonexistentToken",
      "type": "error"
    },
    {
      "anonymous": false,
      "inputs": [
        {
          "indexed": true,
          "internalType": "address",
          "name": "owner",
          "type": "address"
        },
        {
          "indexed": true,
          "internalType": "address",
          "name": "approved",
          "type": "address"
        },
        {
          "indexed": true,
          "internalType": "uint256",
          "name": "tokenId",
          "type": "uint256"
        }
      ],
      "name": "Approval",
      "type": "event"
    },
    {
      "anonymous": false,
      "inputs": [
        {
          "indexed": true,
          "internalType": "address",
          "name": "owner",
          "type": "address"
        },
        {
          "indexed": true,
          "internalType": "address",
          "name": "operator",
          "type": "address"
        },
        {
          "indexed": false,
          "internalType": "bool",
          "name": "approved",
          "type": "bool"
        }
      ],
      "name": "ApprovalForAll",
      "type": "event"
    },
    {
      "anonymous": false,
      "inputs": [
        {
          "indexed": true,
          "internalType": "uint256",
          "name": "fromTokenId",
          "type": "uint256"
        },
        {
          "indexed": false,
          "internalType": "uint256",
          "name": "toTokenId",
          "type": "uint256"
        },
        {
          "indexed": true,
          "internalType": "address",
          "name": "from",
          "type": "address"
        },
        {
          "indexed": true,
          "internalType": "address",
          "name": "to",
          "type": "address"
        }
      ],
      "name": "ConsecutiveTransfer",
      "type": "event"
    },
    {
      "anonymous": false,
      "inputs": [
        {
          "indexed": false,
          "internalType": "uint8",
          "name": "version",
          "type": "uint8"
        }
      ],
      "name": "Initialized",
      "type": "event"
    },
    {
      "anonymous": false,
      "inputs": [
        {
          "indexed": true,
          "internalType": "address",
          "name": "previousOwner",
          "type": "address"
        },
        {
          "indexed": true,
          "internalType": "address",
          "name": "newOwner",
          "type": "address"
        }
      ],
      "name": "OwnershipTransferred",
      "type": "event"
    },
    {
      "anonymous": false,
      "inputs": [
        {
          "indexed": true,
          "internalType": "address",
          "name": "from",
          "type": "address"
        },
        {
          "indexed": true,
          "internalType": "address",
          "name": "to",
          "type": "address"
        },
        {
          "indexed": true,
          "internalType": "uint256",
          "name": "tokenId",
          "type": "uint256"
        }
      ],
      "name": "Transfer",
      "type": "event"
    },
    {
      "inputs": [
        {
          "internalType": "address",
          "name": "",
          "type": "address"
        }
      ],
      "name": "addressToMints",
      "outputs": [
        {
          "internalType": "uint8",
          "name": "",
          "type": "uint8"
        }
      ],
      "stateMutability": "view",
      "type": "function"
    },
    {
      "inputs": [
        {
          "internalType": "address",
          "name": "to",
          "type": "address"
        },
        {
          "internalType": "uint256",
          "name": "tokenId",
          "type": "uint256"
        }
      ],
      "name": "approve",
      "outputs": [],
      "stateMutability": "nonpayable",
      "type": "function"
    },
    {
      "inputs": [
        {
          "internalType": "address",
          "name": "owner",
          "type": "address"
        }
      ],
      "name": "balanceOf",
      "outputs": [
        {
          "internalType": "uint256",
          "name": "",
          "type": "uint256"
        }
      ],
      "stateMutability": "view",
      "type": "function"
    },
    {
      "inputs": [
        {
          "internalType": "address",
          "name": "wallet",
          "type": "address"
        }
      ],
      "name": "canMint",
      "outputs": [
        {
          "internalType": "bool",
          "name": "",
          "type": "bool"
        }
      ],
      "stateMutability": "view",
      "type": "function"
    },
    {
      "inputs": [],
      "name": "endDate",
      "outputs": [
        {
          "internalType": "uint256",
          "name": "",
          "type": "uint256"
        }
      ],
      "stateMutability": "view",
      "type": "function"
    },
    {
      "inputs": [
        {
          "internalType": "uint256",
          "name": "tokenId",
          "type": "uint256"
        }
      ],
      "name": "getApproved",
      "outputs": [
        {
          "internalType": "address",
          "name": "",
          "type": "address"
        }
      ],
      "stateMutability": "view",
      "type": "function"
    },
    {
      "inputs": [],
      "name": "homepage",
      "outputs": [
        {
          "internalType": "string",
          "name": "",
          "type": "string"
        }
      ],
      "stateMutability": "view",
      "type": "function"
    },
    {
      "inputs": [
        {
          "internalType": "uint256",
          "name": "maxMint_",
          "type": "uint256"
        },
        {
          "internalType": "uint256",
          "name": "startDate_",
          "type": "uint256"
        },
        {
          "internalType": "uint256",
          "name": "endDate_",
          "type": "uint256"
        },
        {
          "internalType": "string",
          "name": "homepage_",
          "type": "string"
        },
        {
          "internalType": "string",
          "name": "name_",
          "type": "string"
        },
        {
          "internalType": "string",
          "name": "symbol_",
          "type": "string"
        },
        {
          "internalType": "string",
          "name": "tokenURI_",
          "type": "string"
        }
      ],
      "name": "initialize",
      "outputs": [],
      "stateMutability": "nonpayable",
      "type": "function"
    },
    {
      "inputs": [
        {
          "internalType": "address",
          "name": "owner",
          "type": "address"
        },
        {
          "internalType": "address",
          "name": "operator",
          "type": "address"
        }
      ],
      "name": "isApprovedForAll",
      "outputs": [
        {
          "internalType": "bool",
          "name": "",
          "type": "bool"
        }
      ],
      "stateMutability": "view",
      "type": "function"
    },
    {
      "inputs": [],
      "name": "maxMint",
      "outputs": [
        {
          "internalType": "uint256",
          "name": "",
          "type": "uint256"
        }
      ],
      "stateMutability": "view",
      "type": "function"
    },
    {
      "inputs": [
        {
          "internalType": "bytes32",
          "name": "code_",
          "type": "bytes32"
        }
      ],
      "name": "mint",
      "outputs": [
        {
          "internalType": "uint256",
          "name": "",
          "type": "uint256"
        }
      ],
      "stateMutability": "nonpayable",
      "type": "function"
    },
    {
      "inputs": [],
      "name": "name",
      "outputs": [
        {
          "internalType": "string",
          "name": "",
          "type": "string"
        }
      ],
      "stateMutability": "view",
      "type": "function"
    },
    {
      "inputs": [],
      "name": "owner",
      "outputs": [
        {
          "internalType": "address",
          "name": "",
          "type": "address"
        }
      ],
      "stateMutability": "view",
      "type": "function"
    },
    {
      "inputs": [
        {
          "internalType": "uint256",
          "name": "tokenId",
          "type": "uint256"
        }
      ],
      "name": "ownerOf",
      "outputs": [
        {
          "internalType": "address",
          "name": "",
          "type": "address"
        }
      ],
      "stateMutability": "view",
      "type": "function"
    },
    {
      "inputs": [],
      "name": "renounceOwnership",
      "outputs": [],
      "stateMutability": "nonpayable",
      "type": "function"
    },
    {
      "inputs": [
        {
          "internalType": "address",
          "name": "from",
          "type": "address"
        },
        {
          "internalType": "address",
          "name": "to",
          "type": "address"
        },
        {
          "internalType": "uint256",
          "name": "tokenId",
          "type": "uint256"
        }
      ],
      "name": "safeTransferFrom",
      "outputs": [],
      "stateMutability": "nonpayable",
      "type": "function"
    },
    {
      "inputs": [
        {
          "internalType": "address",
          "name": "from",
          "type": "address"
        },
        {
          "internalType": "address",
          "name": "to",
          "type": "address"
        },
        {
          "internalType": "uint256",
          "name": "tokenId",
          "type": "uint256"
        },
        {
          "internalType": "bytes",
          "name": "_data",
          "type": "bytes"
        }
      ],
      "name": "safeTransferFrom",
      "outputs": [],
      "stateMutability": "nonpayable",
      "type": "function"
    },
    {
      "inputs": [
        {
          "internalType": "address",
          "name": "operator",
          "type": "address"
        },
        {
          "internalType": "bool",
          "name": "approved",
          "type": "bool"
        }
      ],
      "name": "setApprovalForAll",
      "outputs": [],
      "stateMutability": "nonpayable",
      "type": "function"
    },
    {
      "inputs": [
        {
          "internalType": "bytes32",
          "name": "code_",
          "type": "bytes32"
        }
      ],
      "name": "setCode",
      "outputs": [],
      "stateMutability": "nonpayable",
      "type": "function"
    },
    {
      "inputs": [],
      "name": "startDate",
      "outputs": [
        {
          "internalType": "uint256",
          "name": "",
          "type": "uint256"
        }
      ],
      "stateMutability": "view",
      "type": "function"
    },
    {
      "inputs": [
        {
          "internalType": "bytes4",
          "name": "interfaceId",
          "type": "bytes4"
        }
      ],
      "name": "supportsInterface",
      "outputs": [
        {
          "internalType": "bool",
          "name": "",
          "type": "bool"
        }
      ],
      "stateMutability": "view",
      "type": "function"
    },
    {
      "inputs": [],
      "name": "symbol",
      "outputs": [
        {
          "internalType": "string",
          "name": "",
          "type": "string"
        }
      ],
      "stateMutability": "view",
      "type": "function"
    },
    {
      "inputs": [
        {
          "internalType": "uint256",
          "name": "tokenId",
          "type": "uint256"
        }
      ],
      "name": "tokenURI",
      "outputs": [
        {
          "internalType": "string",
          "name": "",
          "type": "string"
        }
      ],
      "stateMutability": "view",
      "type": "function"
    },
    {
      "inputs": [],
      "name": "totalSupply",
      "outputs": [
        {
          "internalType": "uint256",
          "name": "",
          "type": "uint256"
        }
      ],
      "stateMutability": "view",
      "type": "function"
    },
    {
      "inputs": [
        {
          "internalType": "address",
          "name": "from",
          "type": "address"
        },
        {
          "internalType": "address",
          "name": "to",
          "type": "address"
        },
        {
          "internalType": "uint256",
          "name": "tokenId",
          "type": "uint256"
        }
      ],
      "name": "transferFrom",
      "outputs": [],
      "stateMutability": "nonpayable",
      "type": "function"
    },
    {
      "inputs": [
        {
          "internalType": "address",
          "name": "newOwner",
          "type": "address"
        }
      ],
      "name": "transferOwnership",
      "outputs": [],
      "stateMutability": "nonpayable",
      "type": "function"
    }
  ],
  "bytecode": "0x608060405234801561001057600080fd5b50612fb9806100206000396000f3fe608060405234801561001057600080fd5b506004361061018e5760003560e01c80637501f741116100de578063b9ef767f11610097578063c2ba474411610071578063c2ba474414610471578063c87b56dd146104a1578063e985e9c5146104d1578063f2fde38b146105015761018e565b8063b9ef767f1461041b578063c170fc9214610437578063c24a0f8b146104535761018e565b80637501f741146103595780638da5cb5b1461037757806395d89b4114610395578063a22cb465146103b3578063adf2cead146103cf578063b88d4fde146103ff5761018e565b806323b872dd1161014b57806363820f231161012557806363820f23146102d1578063686c4d3c1461030157806370a082311461031f578063715018a61461034f5761018e565b806323b872dd1461026957806342842e0e146102855780636352211e146102a15761018e565b806301ffc9a71461019357806306fdde03146101c3578063081812fc146101e1578063095ea7b3146102115780630b97bc861461022d57806318160ddd1461024b575b600080fd5b6101ad60048036038101906101a8919061249e565b61051d565b6040516101ba91906128ab565b60405180910390f35b6101cb6105af565b6040516101d891906128e1565b60405180910390f35b6101fb60048036038101906101f691906124f0565b61064a565b6040516102089190612844565b60405180910390f35b61022b60048036038101906102269190612439565b6106d2565b005b61023561081f565b6040516102429190612a43565b60405180910390f35b610253610825565b6040516102609190612a43565b60405180910390f35b610283600480360381019061027e9190612333565b61084e565b005b61029f600480360381019061029a9190612333565b610ba9565b005b6102bb60048036038101906102b691906124f0565b610bc9565b6040516102c89190612844565b60405180910390f35b6102eb60048036038101906102e691906122ce565b610bdb565b6040516102f89190612a5e565b60405180910390f35b610309610bfb565b60405161031691906128e1565b60405180910390f35b610339600480360381019061033491906122ce565b610c89565b6040516103469190612a43565b60405180910390f35b610357610d4b565b005b610361610d5f565b60405161036e9190612a43565b60405180910390f35b61037f610d65565b60405161038c9190612844565b60405180910390f35b61039d610d8f565b6040516103aa91906128e1565b60405180910390f35b6103cd60048036038101906103c891906123fd565b610e2a565b005b6103e960048036038101906103e49190612475565b610fab565b6040516103f69190612a43565b60405180910390f35b61041960048036038101906104149190612382565b61115f565b005b61043560048036038101906104309190612475565b6111d2565b005b610451600480360381019061044c9190612519565b6111e4565b005b61045b611515565b6040516104689190612a43565b60405180910390f35b61048b600480360381019061048691906122ce565b61151b565b60405161049891906128ab565b60405180910390f35b6104bb60048036038101906104b691906124f0565b611578565b6040516104c891906128e1565b60405180910390f35b6104eb60048036038101906104e691906122f7565b61160c565b6040516104f891906128ab565b60405180910390f35b61051b600480360381019061051691906122ce565b6116a9565b005b60006301ffc9a760e01b827bffffffffffffffffffffffffffffffffffffffffffffffffffffffff1916148061057857506380ac58cd60e01b827bffffffffffffffffffffffffffffffffffffffffffffffffffffffff1916145b806105a85750635b5e139f60e01b827bffffffffffffffffffffffffffffffffffffffffffffffffffffffff1916145b9050919050565b60606105b961172d565b60020180546105c790612be6565b80601f01602080910402602001604051908101604052809291908181526020018280546105f390612be6565b80156106405780601f1061061557610100808354040283529160200191610640565b820191906000526020600020905b81548152906001019060200180831161062357829003601f168201915b5050505050905090565b60006106558261175a565b61068b576040517fcf4700e400000000000000000000000000000000000000000000000000000000815260040160405180910390fd5b61069361172d565b600601600083815260200190815260200160002060000160009054906101000a900473ffffffffffffffffffffffffffffffffffffffff169050919050565b60006106dd82610bc9565b90508073ffffffffffffffffffffffffffffffffffffffff166106fe6117cb565b73ffffffffffffffffffffffffffffffffffffffff16146107615761072a816107256117cb565b61160c565b610760576040517fcfb3b94200000000000000000000000000000000000000000000000000000000815260040160405180910390fd5b5b8261076a61172d565b600601600084815260200190815260200160002060000160006101000a81548173ffffffffffffffffffffffffffffffffffffffff021916908373ffffffffffffffffffffffffffffffffffffffff160217905550818373ffffffffffffffffffffffffffffffffffffffff168273ffffffffffffffffffffffffffffffffffffffff167f8c5be1e5ebec7d5bd14f71427d1e84f3dd0314c0f7b2291e5b200ac8c7c3b92560405160405180910390a4505050565b60665481565b600061082f6117d3565b61083761172d565b6001015461084361172d565b600001540303905090565b6000610859826117d8565b90508373ffffffffffffffffffffffffffffffffffffffff168173ffffffffffffffffffffffffffffffffffffffff16146108c0576040517fa114810000000000000000000000000000000000000000000000000000000000815260040160405180910390fd5b6000806108cc846118c1565b915091506108e281876108dd6117cb565b6118f1565b61092e576108f7866108f26117cb565b61160c565b61092d576040517f59c896be00000000000000000000000000000000000000000000000000000000815260040160405180910390fd5b5b600073ffffffffffffffffffffffffffffffffffffffff168573ffffffffffffffffffffffffffffffffffffffff161415610995576040517fea553b3400000000000000000000000000000000000000000000000000000000815260040160405180910390fd5b6109a28686866001611935565b80156109ad57600082555b6109b561172d565b60050160008773ffffffffffffffffffffffffffffffffffffffff1673ffffffffffffffffffffffffffffffffffffffff168152602001908152602001600020600081546001900391905081905550610a0c61172d565b60050160008673ffffffffffffffffffffffffffffffffffffffff1673ffffffffffffffffffffffffffffffffffffffff1681526020019081526020016000206000815460010191905081905550610a8d85610a6988888761193b565b7c020000000000000000000000000000000000000000000000000000000017611963565b610a9561172d565b60040160008681526020019081526020016000208190555060007c020000000000000000000000000000000000000000000000000000000084161415610b395760006001850190506000610ae761172d565b6004016000838152602001908152602001600020541415610b3757610b0a61172d565b600001548114610b365783610b1d61172d565b6004016000838152602001908152602001600020819055505b5b505b838573ffffffffffffffffffffffffffffffffffffffff168773ffffffffffffffffffffffffffffffffffffffff167fddf252ad1be2c89b69c2b068fc378daa952ba7f163c4a11628f55a4df523b3ef60405160405180910390a4610ba1868686600161198e565b505050505050565b610bc48383836040518060200160405280600081525061115f565b505050565b6000610bd4826117d8565b9050919050565b606a6020528060005260406000206000915054906101000a900460ff1681565b60688054610c0890612be6565b80601f0160208091040260200160405190810160405280929190818152602001828054610c3490612be6565b8015610c815780601f10610c5657610100808354040283529160200191610c81565b820191906000526020600020905b815481529060010190602001808311610c6457829003601f168201915b505050505081565b60008073ffffffffffffffffffffffffffffffffffffffff168273ffffffffffffffffffffffffffffffffffffffff161415610cf1576040517f8f4eb60400000000000000000000000000000000000000000000000000000000815260040160405180910390fd5b67ffffffffffffffff610d0261172d565b60050160008473ffffffffffffffffffffffffffffffffffffffff1673ffffffffffffffffffffffffffffffffffffffff16815260200190815260200160002054169050919050565b610d53611994565b610d5d6000611a12565b565b60655481565b6000603360009054906101000a900473ffffffffffffffffffffffffffffffffffffffff16905090565b6060610d9961172d565b6003018054610da790612be6565b80601f0160208091040260200160405190810160405280929190818152602001828054610dd390612be6565b8015610e205780601f10610df557610100808354040283529160200191610e20565b820191906000526020600020905b815481529060010190602001808311610e0357829003601f168201915b5050505050905090565b610e326117cb565b73ffffffffffffffffffffffffffffffffffffffff168273ffffffffffffffffffffffffffffffffffffffff161415610e97576040517fb06307db00000000000000000000000000000000000000000000000000000000815260040160405180910390fd5b80610ea061172d565b6007016000610ead6117cb565b73ffffffffffffffffffffffffffffffffffffffff1673ffffffffffffffffffffffffffffffffffffffff16815260200190815260200160002060008473ffffffffffffffffffffffffffffffffffffffff1673ffffffffffffffffffffffffffffffffffffffff16815260200190815260200160002060006101000a81548160ff0219169083151502179055508173ffffffffffffffffffffffffffffffffffffffff16610f5a6117cb565b73ffffffffffffffffffffffffffffffffffffffff167f17307eab39ab6107e8899845ad3d59bd9653f200f220920489ca2b5937696c3183604051610f9f91906128ab565b60405180910390a35050565b6000610fb5610825565b60655411610ff8576040517f08c379a0000000000000000000000000000000000000000000000000000000008152600401610fef90612943565b60405180910390fd5b606654421015801561100c57506067544211155b61104b576040517f08c379a0000000000000000000000000000000000000000000000000000000008152600401611042906129e3565b60405180910390fd5b61105b611056611ad8565b61151b565b61109a576040517f08c379a000000000000000000000000000000000000000000000000000000000815260040161109190612a23565b60405180910390fd5b81606954146110de576040517f08c379a00000000000000000000000000000000000000000000000000000000081526004016110d590612983565b60405180910390fd5b6001606a60006110ec611ad8565b73ffffffffffffffffffffffffffffffffffffffff1673ffffffffffffffffffffffffffffffffffffffff16815260200190815260200160002060006101000a81548160ff021916908360ff160217905550611150611149611ad8565b6001611ae0565b611158610825565b9050919050565b61116a84848461084e565b60008373ffffffffffffffffffffffffffffffffffffffff163b146111cc5761119584848484611cc2565b6111cb576040517fd1a57ed600000000000000000000000000000000000000000000000000000000815260040160405180910390fd5b5b50505050565b6111da611994565b8060698190555050565b6111ec611e22565b60000160019054906101000a900460ff1661122057611209611e22565b60000160009054906101000a900460ff1615611229565b611228611e4f565b5b611268576040517f08c379a000000000000000000000000000000000000000000000000000000000815260040161125f906129a3565b60405180910390fd5b6000611272611e22565b60000160019054906101000a900460ff1615905080156112d5576001611296611e22565b60000160016101000a81548160ff02191690831515021790555060016112ba611e22565b60000160006101000a81548160ff0219169083151502179055505b60008060019054906101000a900460ff161590508080156113065750600160008054906101000a900460ff1660ff16105b80611333575061131530611e66565b1580156113325750600160008054906101000a900460ff1660ff16145b5b611372576040517f08c379a000000000000000000000000000000000000000000000000000000000815260040161136990612963565b60405180910390fd5b60016000806101000a81548160ff021916908360ff16021790555080156113af576001600060016101000a81548160ff0219169083151502179055505b8c6065819055508b6066819055508a6067819055508989606891906113d5929190612075565b508383606b91906113e7929190612075565b5061147a88888080601f016020809104026020016040519081016040528093929190818152602001838380828437600081840152601f19601f8201169050808301925050505050505087878080601f016020809104026020016040519081016040528093929190818152602001838380828437600081840152601f19601f82011690508083019250505050505050611e89565b611482611eef565b80156114db5760008060016101000a81548160ff0219169083151502179055507f7f26b83ff96e1f2b6a682f133852f6798a09c465da95921460cefb384740249860016040516114d291906128c6565b60405180910390a15b5080156115075760006114ec611e22565b60000160016101000a81548160ff0219169083151502179055505b505050505050505050505050565b60675481565b60006001606a60008473ffffffffffffffffffffffffffffffffffffffff1673ffffffffffffffffffffffffffffffffffffffff16815260200190815260200160002060009054906101000a900460ff1660ff1614159050919050565b6060606b805461158790612be6565b80601f01602080910402602001604051908101604052809291908181526020018280546115b390612be6565b80156116005780601f106115d557610100808354040283529160200191611600565b820191906000526020600020905b8154815290600101906020018083116115e357829003601f168201915b50505050509050919050565b600061161661172d565b60070160008473ffffffffffffffffffffffffffffffffffffffff1673ffffffffffffffffffffffffffffffffffffffff16815260200190815260200160002060008373ffffffffffffffffffffffffffffffffffffffff1673ffffffffffffffffffffffffffffffffffffffff16815260200190815260200160002060009054906101000a900460ff16905092915050565b6116b1611994565b600073ffffffffffffffffffffffffffffffffffffffff168173ffffffffffffffffffffffffffffffffffffffff161415611721576040517f08c379a000000000000000000000000000000000000000000000000000000000815260040161171890612923565b60405180910390fd5b61172a81611a12565b50565b6000807f2569078dfb4b0305704d3008e7403993ae9601b85f7ae5e742de3de8f8011c4090508091505090565b6000816117656117d3565b1115801561177d575061177661172d565b6000015482105b80156117c4575060007c01000000000000000000000000000000000000000000000000000000006117ac61172d565b60040160008581526020019081526020016000205416145b9050919050565b600033905090565b600090565b600080829050806117e76117d3565b1161188a576117f461172d565b6000015481101561188957600061180961172d565b600401600083815260200190815260200160002054905060007c010000000000000000000000000000000000000000000000000000000082161415611887575b600081141561187d5761185a61172d565b600401600083600190039350838152602001908152602001600020549050611849565b80925050506118bc565b505b5b6040517fdf2d9b4200000000000000000000000000000000000000000000000000000000815260040160405180910390fd5b919050565b60008060006118ce61172d565b600601600085815260200190815260200160002090508092508254915050915091565b600073ffffffffffffffffffffffffffffffffffffffff8316925073ffffffffffffffffffffffffffffffffffffffff821691508382148383141790509392505050565b50505050565b60008060e883901c905060e8611952868684611f48565b62ffffff16901b9150509392505050565b600073ffffffffffffffffffffffffffffffffffffffff83169250814260a01b178317905092915050565b50505050565b61199c611ad8565b73ffffffffffffffffffffffffffffffffffffffff166119ba610d65565b73ffffffffffffffffffffffffffffffffffffffff1614611a10576040517f08c379a0000000000000000000000000000000000000000000000000000000008152600401611a07906129c3565b60405180910390fd5b565b6000603360009054906101000a900473ffffffffffffffffffffffffffffffffffffffff16905081603360006101000a81548173ffffffffffffffffffffffffffffffffffffffff021916908373ffffffffffffffffffffffffffffffffffffffff1602179055508173ffffffffffffffffffffffffffffffffffffffff168173ffffffffffffffffffffffffffffffffffffffff167f8be0079c531659141344cd1fd0a4f28419497f9722a3daafe3b4186f6b6457e060405160405180910390a35050565b600033905090565b6000611aea61172d565b6000015490506000821415611b2b576040517fb562e8dd00000000000000000000000000000000000000000000000000000000815260040160405180910390fd5b611b386000848385611935565b600160406001901b178202611b4b61172d565b60050160008573ffffffffffffffffffffffffffffffffffffffff1673ffffffffffffffffffffffffffffffffffffffff16815260200190815260200160002060008282540192505081905550611bb883611ba9600086600061193b565b611bb285611f51565b17611963565b611bc061172d565b600401600083815260200190815260200160002081905550600080838301905073ffffffffffffffffffffffffffffffffffffffff85169150828260007fddf252ad1be2c89b69c2b068fc378daa952ba7f163c4a11628f55a4df523b3ef600080a4600183015b818114611c6257808360007fddf252ad1be2c89b69c2b068fc378daa952ba7f163c4a11628f55a4df523b3ef600080a4600181019050611c27565b506000821415611c9e576040517f2e07630000000000000000000000000000000000000000000000000000000000815260040160405180910390fd5b80611ca761172d565b600001819055505050611cbd600084838561198e565b505050565b60008373ffffffffffffffffffffffffffffffffffffffff1663150b7a02611ce86117cb565b8786866040518563ffffffff1660e01b8152600401611d0a949392919061285f565b602060405180830381600087803b158015611d2457600080fd5b505af1925050508015611d5557506040513d601f19601f82011682018060405250810190611d5291906124c7565b60015b611dcf573d8060008114611d85576040519150601f19603f3d011682016040523d82523d6000602084013e611d8a565b606091505b50600081511415611dc7576040517fd1a57ed600000000000000000000000000000000000000000000000000000000815260040160405180910390fd5b805181602001fd5b63150b7a0260e01b7bffffffffffffffffffffffffffffffffffffffffffffffffffffffff1916817bffffffffffffffffffffffffffffffffffffffffffffffffffffffff191614915050949350505050565b6000807fee151c8401928dc223602bb187aff91b9a56c7cae5476ef1b3287b085a16c85f90508091505090565b6000803090506000813b9050600081149250505090565b6000808273ffffffffffffffffffffffffffffffffffffffff163b119050919050565b611e91611e22565b60000160019054906101000a900460ff16611ee1576040517f08c379a0000000000000000000000000000000000000000000000000000000008152600401611ed890612903565b60405180910390fd5b611eeb8282611f61565b5050565b600060019054906101000a900460ff16611f3e576040517f08c379a0000000000000000000000000000000000000000000000000000000008152600401611f3590612a03565b60405180910390fd5b611f46612014565b565b60009392505050565b60006001821460e11b9050919050565b611f69611e22565b60000160019054906101000a900460ff16611fb9576040517f08c379a0000000000000000000000000000000000000000000000000000000008152600401611fb090612903565b60405180910390fd5b81611fc261172d565b6002019080519060200190611fd89291906120fb565b5080611fe261172d565b6003019080519060200190611ff89291906120fb565b506120016117d3565b61200961172d565b600001819055505050565b600060019054906101000a900460ff16612063576040517f08c379a000000000000000000000000000000000000000000000000000000000815260040161205a90612a03565b60405180910390fd5b61207361206e611ad8565b611a12565b565b82805461208190612be6565b90600052602060002090601f0160209004810192826120a357600085556120ea565b82601f106120bc57803560ff19168380011785556120ea565b828001600101855582156120ea579182015b828111156120e95782358255916020019190600101906120ce565b5b5090506120f79190612181565b5090565b82805461210790612be6565b90600052602060002090601f0160209004810192826121295760008555612170565b82601f1061214257805160ff1916838001178555612170565b82800160010185558215612170579182015b8281111561216f578251825591602001919060010190612154565b5b50905061217d9190612181565b5090565b5b8082111561219a576000816000905550600101612182565b5090565b60006121b16121ac84612a9e565b612a79565b9050828152602081018484840111156121c957600080fd5b6121d4848285612ba4565b509392505050565b6000813590506121eb81612f10565b92915050565b60008135905061220081612f27565b92915050565b60008135905061221581612f3e565b92915050565b60008135905061222a81612f55565b92915050565b60008151905061223f81612f55565b92915050565b600082601f83011261225657600080fd5b813561226684826020860161219e565b91505092915050565b60008083601f84011261228157600080fd5b8235905067ffffffffffffffff81111561229a57600080fd5b6020830191508360018202830111156122b257600080fd5b9250929050565b6000813590506122c881612f6c565b92915050565b6000602082840312156122e057600080fd5b60006122ee848285016121dc565b91505092915050565b6000806040838503121561230a57600080fd5b6000612318858286016121dc565b9250506020612329858286016121dc565b9150509250929050565b60008060006060848603121561234857600080fd5b6000612356868287016121dc565b9350506020612367868287016121dc565b9250506040612378868287016122b9565b9150509250925092565b6000806000806080858703121561239857600080fd5b60006123a6878288016121dc565b94505060206123b7878288016121dc565b93505060406123c8878288016122b9565b925050606085013567ffffffffffffffff8111156123e557600080fd5b6123f187828801612245565b91505092959194509250565b6000806040838503121561241057600080fd5b600061241e858286016121dc565b925050602061242f858286016121f1565b9150509250929050565b6000806040838503121561244c57600080fd5b600061245a858286016121dc565b925050602061246b858286016122b9565b9150509250929050565b60006020828403121561248757600080fd5b600061249584828501612206565b91505092915050565b6000602082840312156124b057600080fd5b60006124be8482850161221b565b91505092915050565b6000602082840312156124d957600080fd5b60006124e784828501612230565b91505092915050565b60006020828403121561250257600080fd5b6000612510848285016122b9565b91505092915050565b600080600080600080600080600080600060e08c8e03121561253a57600080fd5b60006125488e828f016122b9565b9b505060206125598e828f016122b9565b9a5050604061256a8e828f016122b9565b99505060608c013567ffffffffffffffff81111561258757600080fd5b6125938e828f0161226f565b985098505060808c013567ffffffffffffffff8111156125b257600080fd5b6125be8e828f0161226f565b965096505060a08c013567ffffffffffffffff8111156125dd57600080fd5b6125e98e828f0161226f565b945094505060c08c013567ffffffffffffffff81111561260857600080fd5b6126148e828f0161226f565b92509250509295989b509295989b9093969950565b61263281612b07565b82525050565b61264181612b19565b82525050565b600061265282612acf565b61265c8185612ae5565b935061266c818560208601612bb3565b61267581612ca7565b840191505092915050565b61268981612b92565b82525050565b600061269a82612ada565b6126a48185612af6565b93506126b4818560208601612bb3565b6126bd81612ca7565b840191505092915050565b60006126d5603483612af6565b91506126e082612cb8565b604082019050919050565b60006126f8602683612af6565b915061270382612d07565b604082019050919050565b600061271b601083612af6565b915061272682612d56565b602082019050919050565b600061273e602e83612af6565b915061274982612d7f565b604082019050919050565b6000612761601183612af6565b915061276c82612dce565b602082019050919050565b6000612784603783612af6565b915061278f82612df7565b604082019050919050565b60006127a7602083612af6565b91506127b282612e46565b602082019050919050565b60006127ca601383612af6565b91506127d582612e6f565b602082019050919050565b60006127ed602b83612af6565b91506127f882612e98565b604082019050919050565b6000612810600e83612af6565b915061281b82612ee7565b602082019050919050565b61282f81612b7b565b82525050565b61283e81612b85565b82525050565b60006020820190506128596000830184612629565b92915050565b60006080820190506128746000830187612629565b6128816020830186612629565b61288e6040830185612826565b81810360608301526128a08184612647565b905095945050505050565b60006020820190506128c06000830184612638565b92915050565b60006020820190506128db6000830184612680565b92915050565b600060208201905081810360008301526128fb818461268f565b905092915050565b6000602082019050818103600083015261291c816126c8565b9050919050565b6000602082019050818103600083015261293c816126eb565b9050919050565b6000602082019050818103600083015261295c8161270e565b9050919050565b6000602082019050818103600083015261297c81612731565b9050919050565b6000602082019050818103600083015261299c81612754565b9050919050565b600060208201905081810360008301526129bc81612777565b9050919050565b600060208201905081810360008301526129dc8161279a565b9050919050565b600060208201905081810360008301526129fc816127bd565b9050919050565b60006020820190508181036000830152612a1c816127e0565b9050919050565b60006020820190508181036000830152612a3c81612803565b9050919050565b6000602082019050612a586000830184612826565b92915050565b6000602082019050612a736000830184612835565b92915050565b6000612a83612a94565b9050612a8f8282612c18565b919050565b6000604051905090565b600067ffffffffffffffff821115612ab957612ab8612c78565b5b612ac282612ca7565b9050602081019050919050565b600081519050919050565b600081519050919050565b600082825260208201905092915050565b600082825260208201905092915050565b6000612b1282612b5b565b9050919050565b60008115159050919050565b6000819050919050565b60007fffffffff0000000000000000000000000000000000000000000000000000000082169050919050565b600073ffffffffffffffffffffffffffffffffffffffff82169050919050565b6000819050919050565b600060ff82169050919050565b6000612b9d82612b85565b9050919050565b82818337600083830152505050565b60005b83811015612bd1578082015181840152602081019050612bb6565b83811115612be0576000848401525b50505050565b60006002820490506001821680612bfe57607f821691505b60208210811415612c1257612c11612c49565b5b50919050565b612c2182612ca7565b810181811067ffffffffffffffff82111715612c4057612c3f612c78565b5b80604052505050565b7f4e487b7100000000000000000000000000000000000000000000000000000000600052602260045260246000fd5b7f4e487b7100000000000000000000000000000000000000000000000000000000600052604160045260246000fd5b6000601f19601f8301169050919050565b7f455243373231415f5f496e697469616c697a61626c653a20636f6e747261637460008201527f206973206e6f7420696e697469616c697a696e67000000000000000000000000602082015250565b7f4f776e61626c653a206e6577206f776e657220697320746865207a65726f206160008201527f6464726573730000000000000000000000000000000000000000000000000000602082015250565b7f6d6178206d696e74207265616368656400000000000000000000000000000000600082015250565b7f496e697469616c697a61626c653a20636f6e747261637420697320616c72656160008201527f647920696e697469616c697a6564000000000000000000000000000000000000602082015250565b7f696e76616c6964206d696e7420636f6465000000000000000000000000000000600082015250565b7f455243373231415f5f496e697469616c697a61626c653a20636f6e747261637460008201527f20697320616c726561647920696e697469616c697a6564000000000000000000602082015250565b7f4f776e61626c653a2063616c6c6572206973206e6f7420746865206f776e6572600082015250565b7f6f757473696465206d696e742077696e646f7700000000000000000000000000600082015250565b7f496e697469616c697a61626c653a20636f6e7472616374206973206e6f74206960008201527f6e697469616c697a696e67000000000000000000000000000000000000000000602082015250565b7f616c7265616479206d696e746564000000000000000000000000000000000000600082015250565b612f1981612b07565b8114612f2457600080fd5b50565b612f3081612b19565b8114612f3b57600080fd5b50565b612f4781612b25565b8114612f5257600080fd5b50565b612f5e81612b2f565b8114612f6957600080fd5b50565b612f7581612b7b565b8114612f8057600080fd5b5056fea2646970667358221220a8a189621380df6a0c470f1348ecdf78202333221f7d28e910803fbf6a3179ab64736f6c63430008040033",
  "linkReferences": {},
  "deployedLinkReferences": {}
}